
c:/Users/localadmin/Documents/personal_gitlab/particle_test/ADC_test/target/1.4.4/boron/ADC_test.elf:     file format elf32-littlearm

Sections:
Idx Name          Size      VMA       LMA       File off  Algn
  0 .module_info  00000018  000d4000  000d4000  00004000  2**2
                  CONTENTS, ALLOC, LOAD, READONLY, DATA
  1 .dynalib      00000004  000d4018  000d4018  00004018  2**2
                  CONTENTS, ALLOC, LOAD, READONLY, DATA
  2 .text         00001e50  000d4020  000d4020  00004020  2**3
                  CONTENTS, ALLOC, LOAD, READONLY, CODE
  3 .backup       00000000  2003f400  2003f400  00015f08  2**0
                  CONTENTS
  4 .data         0000006c  2003e32c  000d5e70  0000e32c  2**2
                  CONTENTS, ALLOC, LOAD, DATA
  5 .bss          00000458  2003e398  2003e398  0001e398  2**2
                  ALLOC
  6 .module_info_suffix 00000028  000d5edc  000d5edc  00015edc  2**0
                  CONTENTS, ALLOC, LOAD, READONLY, DATA
  7 .module_info_crc 00000004  000d5f04  000d5f04  00015f04  2**0
                  CONTENTS, ALLOC, LOAD, READONLY, DATA
  8 .debug_info   000b352a  00000000  00000000  00015f08  2**0
                  CONTENTS, READONLY, DEBUGGING
  9 .debug_abbrev 0000eac8  00000000  00000000  000c9432  2**0
                  CONTENTS, READONLY, DEBUGGING
 10 .debug_loc    00019269  00000000  00000000  000d7efa  2**0
                  CONTENTS, READONLY, DEBUGGING
 11 .debug_aranges 000020b8  00000000  00000000  000f1163  2**0
                  CONTENTS, READONLY, DEBUGGING
 12 .debug_ranges 00003cd0  00000000  00000000  000f321b  2**0
                  CONTENTS, READONLY, DEBUGGING
 13 .debug_macro  00032c53  00000000  00000000  000f6eeb  2**0
                  CONTENTS, READONLY, DEBUGGING
 14 .debug_line   000245e2  00000000  00000000  00129b3e  2**0
                  CONTENTS, READONLY, DEBUGGING
 15 .debug_str    000fb8d5  00000000  00000000  0014e120  2**0
                  CONTENTS, READONLY, DEBUGGING
 16 .debug_frame  0000be9c  00000000  00000000  002499f8  2**2
                  CONTENTS, READONLY, DEBUGGING

Disassembly of section .text:

000d4020 <module_user_pre_init>:
/**
 * Initializes this user module. Returns the start of the heap.
 */
void* module_user_pre_init() {

    if ( (&link_global_data_start!=&link_global_data_initial_values) && (link_global_data_size != 0))
   d4020:	4809      	ldr	r0, [pc, #36]	; (d4048 <module_user_pre_init+0x28>)
   d4022:	490a      	ldr	r1, [pc, #40]	; (d404c <module_user_pre_init+0x2c>)
   d4024:	4288      	cmp	r0, r1
extern constructor_ptr_t link_constructors_end;

/**
 * Initializes this user module. Returns the start of the heap.
 */
void* module_user_pre_init() {
   d4026:	b508      	push	{r3, lr}

    if ( (&link_global_data_start!=&link_global_data_initial_values) && (link_global_data_size != 0))
   d4028:	d005      	beq.n	d4036 <module_user_pre_init+0x16>
   d402a:	4a09      	ldr	r2, [pc, #36]	; (d4050 <module_user_pre_init+0x30>)
   d402c:	4282      	cmp	r2, r0
   d402e:	d002      	beq.n	d4036 <module_user_pre_init+0x16>
    {
        memcpy(&link_global_data_start, &link_global_data_initial_values, link_global_data_size);
   d4030:	1a12      	subs	r2, r2, r0
   d4032:	f001 fd37 	bl	d5aa4 <memcpy>
    }

    memset(&link_bss_location, 0, link_bss_size );
   d4036:	4807      	ldr	r0, [pc, #28]	; (d4054 <module_user_pre_init+0x34>)
   d4038:	4a07      	ldr	r2, [pc, #28]	; (d4058 <module_user_pre_init+0x38>)
   d403a:	2100      	movs	r1, #0
   d403c:	1a12      	subs	r2, r2, r0
   d403e:	f001 fd3c 	bl	d5aba <memset>
    return &link_global_data_start;
}
   d4042:	4801      	ldr	r0, [pc, #4]	; (d4048 <module_user_pre_init+0x28>)
   d4044:	bd08      	pop	{r3, pc}
   d4046:	bf00      	nop
   d4048:	2003e32c 	.word	0x2003e32c
   d404c:	000d5e70 	.word	0x000d5e70
   d4050:	2003e398 	.word	0x2003e398
   d4054:	2003e398 	.word	0x2003e398
   d4058:	2003e7f0 	.word	0x2003e7f0

000d405c <module_user_init>:
extern constructor_ptr_t link_constructors_location[];
extern constructor_ptr_t link_constructors_end;
#define link_constructors_size   ((unsigned long)&link_constructors_end  -  (unsigned long)&link_constructors_location )

void module_user_init()
{
   d405c:	b570      	push	{r4, r5, r6, lr}
    module_user_init_hook();
   d405e:	f000 fbb1 	bl	d47c4 <module_user_init_hook>
   d4062:	4c07      	ldr	r4, [pc, #28]	; (d4080 <module_user_init+0x24>)
   d4064:	4b07      	ldr	r3, [pc, #28]	; (d4084 <module_user_init+0x28>)
   d4066:	1ae4      	subs	r4, r4, r3
   d4068:	08a4      	lsrs	r4, r4, #2

    // invoke constructors
    int ctor_num;
    for (ctor_num=0; ctor_num < link_constructors_size/sizeof(constructor_ptr_t); ctor_num++ )
   d406a:	2500      	movs	r5, #0
   d406c:	461e      	mov	r6, r3
   d406e:	42a5      	cmp	r5, r4
   d4070:	d004      	beq.n	d407c <module_user_init+0x20>
    {
        link_constructors_location[ctor_num]();
   d4072:	f856 3025 	ldr.w	r3, [r6, r5, lsl #2]
   d4076:	4798      	blx	r3
{
    module_user_init_hook();

    // invoke constructors
    int ctor_num;
    for (ctor_num=0; ctor_num < link_constructors_size/sizeof(constructor_ptr_t); ctor_num++ )
   d4078:	3501      	adds	r5, #1
   d407a:	e7f8      	b.n	d406e <module_user_init+0x12>
    {
        link_constructors_location[ctor_num]();
    }
}
   d407c:	bd70      	pop	{r4, r5, r6, pc}
   d407e:	bf00      	nop
   d4080:	000d5e68 	.word	0x000d5e68
   d4084:	000d5e2c 	.word	0x000d5e2c

000d4088 <module_user_setup>:

/**
 * Export these functions with a fuller name so they don't clash with the setup/loop wrappers in the system module.
 */
void module_user_setup() {
    setup();
   d4088:	f000 b813 	b.w	d40b2 <setup>

000d408c <module_user_loop>:
}

void module_user_loop() {
   d408c:	b508      	push	{r3, lr}
    loop();
   d408e:	f000 f81b 	bl	d40c8 <loop>
    _post_loop();
}
   d4092:	e8bd 4008 	ldmia.w	sp!, {r3, lr}
    setup();
}

void module_user_loop() {
    loop();
    _post_loop();
   d4096:	f000 bb63 	b.w	d4760 <_post_loop>

000d409a <_ZdlPv>:
   d409a:	f000 b9f1 	b.w	d4480 <free>

000d409e <_ZdaPv>:
	free(p);
}

void operator delete[](void *p)
{
	free(p);
   d409e:	f000 b9ef 	b.w	d4480 <free>

000d40a2 <__cxa_guard_acquire>:

/* Provide default implemenation for __cxa_guard_acquire() and
 * __cxa_guard_release(). Note: these must be revisited if a multitasking
 * OS is ported to this platform. */
__extension__ typedef int __guard __attribute__((mode (__DI__)));
int __cxa_guard_acquire(__guard *g) {return !*(char *)(g);};
   d40a2:	7800      	ldrb	r0, [r0, #0]
   d40a4:	fab0 f080 	clz	r0, r0
   d40a8:	0940      	lsrs	r0, r0, #5
   d40aa:	4770      	bx	lr

000d40ac <__cxa_guard_release>:
void __cxa_guard_release (__guard *g) {*(char *)g = 1;};
   d40ac:	2301      	movs	r3, #1
   d40ae:	7003      	strb	r3, [r0, #0]
   d40b0:	4770      	bx	lr

000d40b2 <setup>:
 */

int analog_in = A0; //initialize analog input A0 to variable
int analogValue; //used to store analog readings

void setup() {
   d40b2:	b508      	push	{r3, lr}
  Serial.begin(9600); //used for debugging over USB
   d40b4:	f000 fc74 	bl	d49a0 <_Z16_fetch_usbserialv>
   d40b8:	f44f 5116 	mov.w	r1, #9600	; 0x2580
}
   d40bc:	e8bd 4008 	ldmia.w	sp!, {r3, lr}

int analog_in = A0; //initialize analog input A0 to variable
int analogValue; //used to store analog readings

void setup() {
  Serial.begin(9600); //used for debugging over USB
   d40c0:	f000 bc62 	b.w	d4988 <_ZN9USBSerial5beginEl>
   d40c4:	0000      	movs	r0, r0
	...

000d40c8 <loop>:
}
 
void loop() {
   d40c8:	b537      	push	{r0, r1, r2, r4, r5, lr}
  analogValue = analogRead(analog_in); //read the analog input
   d40ca:	4b13      	ldr	r3, [pc, #76]	; (d4118 <loop+0x50>)
   d40cc:	8818      	ldrh	r0, [r3, #0]
   d40ce:	f000 ff17 	bl	d4f00 <analogRead>
   d40d2:	4b12      	ldr	r3, [pc, #72]	; (d411c <loop+0x54>)
   d40d4:	4604      	mov	r4, r0
   d40d6:	6018      	str	r0, [r3, #0]
  float voltage = analogValue * (3.3/4096.0);
  Serial.printlnf("%f", voltage); //print the ADC value to USB
   d40d8:	f000 fc62 	bl	d49a0 <_Z16_fetch_usbserialv>
   d40dc:	4605      	mov	r5, r0
    }

    template <typename... Args>
    inline size_t printlnf(const char* format, Args... args)
    {
        return this->printf_impl(true, format, args...);
   d40de:	4620      	mov	r0, r4
   d40e0:	f001 fa0a 	bl	d54f8 <__aeabi_i2d>
   d40e4:	a30a      	add	r3, pc, #40	; (adr r3, d4110 <loop+0x48>)
   d40e6:	e9d3 2300 	ldrd	r2, r3, [r3]
   d40ea:	f001 fa6b 	bl	d55c4 <__aeabi_dmul>
   d40ee:	f001 fc7b 	bl	d59e8 <__aeabi_d2f>
   d40f2:	f001 fa13 	bl	d551c <__aeabi_f2d>
   d40f6:	4a0a      	ldr	r2, [pc, #40]	; (d4120 <loop+0x58>)
   d40f8:	e9cd 0100 	strd	r0, r1, [sp]
   d40fc:	2101      	movs	r1, #1
   d40fe:	4628      	mov	r0, r5
   d4100:	f000 faa4 	bl	d464c <_ZN5Print11printf_implEbPKcz>
  delay(100); //blocking delay 100ms
   d4104:	2064      	movs	r0, #100	; 0x64
   d4106:	b003      	add	sp, #12
   d4108:	e8bd 4030 	ldmia.w	sp!, {r4, r5, lr}
 
void loop() {
  analogValue = analogRead(analog_in); //read the analog input
  float voltage = analogValue * (3.3/4096.0);
  Serial.printlnf("%f", voltage); //print the ADC value to USB
  delay(100); //blocking delay 100ms
   d410c:	f000 baea 	b.w	d46e4 <delay>
   d4110:	66666666 	.word	0x66666666
   d4114:	3f4a6666 	.word	0x3f4a6666
   d4118:	2003e32c 	.word	0x2003e32c
   d411c:	2003e39c 	.word	0x2003e39c
   d4120:	000d5b40 	.word	0x000d5b40

000d4124 <_GLOBAL__sub_I_analog_in>:

inline void pinSetFast(pin_t _pin) __attribute__((always_inline));
inline void pinResetFast(pin_t _pin) __attribute__((always_inline));
inline int32_t pinReadFast(pin_t _pin) __attribute__((always_inline));

static Hal_Pin_Info* PIN_MAP = HAL_Pin_Map();
   d4124:	f000 b810 	b.w	d4148 <HAL_Pin_Map>

000d4128 <netdb_freeaddrinfo>:

DYNALIB_BEGIN(hal_netdb)

DYNALIB_FN(0, hal_netdb, netdb_gethostbyname, struct hostent*(const char*))
DYNALIB_FN(1, hal_netdb, netdb_gethostbyname_r, int(const char*, struct hostent*, char*, size_t, struct hostent**, int*))
DYNALIB_FN(2, hal_netdb, netdb_freeaddrinfo, void(struct addrinfo*))
   d4128:	b508      	push	{r3, lr}
   d412a:	4b02      	ldr	r3, [pc, #8]	; (d4134 <netdb_freeaddrinfo+0xc>)
   d412c:	681b      	ldr	r3, [r3, #0]
   d412e:	689b      	ldr	r3, [r3, #8]
   d4130:	9301      	str	r3, [sp, #4]
   d4132:	bd08      	pop	{r3, pc}
   d4134:	00030268 	.word	0x00030268

000d4138 <netdb_getaddrinfo>:
DYNALIB_FN(3, hal_netdb, netdb_getaddrinfo, int(const char*, const char*, const struct addrinfo*, struct addrinfo**))
   d4138:	b508      	push	{r3, lr}
   d413a:	4b02      	ldr	r3, [pc, #8]	; (d4144 <netdb_getaddrinfo+0xc>)
   d413c:	681b      	ldr	r3, [r3, #0]
   d413e:	68db      	ldr	r3, [r3, #12]
   d4140:	9301      	str	r3, [sp, #4]
   d4142:	bd08      	pop	{r3, pc}
   d4144:	00030268 	.word	0x00030268

000d4148 <HAL_Pin_Map>:
// New HAL functions must be added to the end of this list.
// GNINRAW

DYNALIB_BEGIN(hal_gpio)

DYNALIB_FN(0, hal_gpio, HAL_Pin_Map, Hal_Pin_Info*(void))
   d4148:	b508      	push	{r3, lr}
   d414a:	4b02      	ldr	r3, [pc, #8]	; (d4154 <HAL_Pin_Map+0xc>)
   d414c:	681b      	ldr	r3, [r3, #0]
   d414e:	681b      	ldr	r3, [r3, #0]
   d4150:	9301      	str	r3, [sp, #4]
   d4152:	bd08      	pop	{r3, pc}
   d4154:	0003022c 	.word	0x0003022c

000d4158 <HAL_Validate_Pin_Function>:
DYNALIB_FN(1, hal_gpio, HAL_Validate_Pin_Function, PinFunction(pin_t, PinFunction))
   d4158:	b508      	push	{r3, lr}
   d415a:	4b02      	ldr	r3, [pc, #8]	; (d4164 <HAL_Validate_Pin_Function+0xc>)
   d415c:	681b      	ldr	r3, [r3, #0]
   d415e:	685b      	ldr	r3, [r3, #4]
   d4160:	9301      	str	r3, [sp, #4]
   d4162:	bd08      	pop	{r3, pc}
   d4164:	0003022c 	.word	0x0003022c

000d4168 <HAL_ADC_Read>:
DYNALIB_FN(8, hal_gpio, HAL_Interrupts_Enable_All, void(void))
DYNALIB_FN(9, hal_gpio, HAL_Interrupts_Disable_All, void(void))

DYNALIB_FN(10, hal_gpio, HAL_DAC_Write, void(pin_t, uint16_t))
DYNALIB_FN(11, hal_gpio, HAL_ADC_Set_Sample_Time, void(uint8_t))
DYNALIB_FN(12, hal_gpio, HAL_ADC_Read, int32_t(uint16_t))
   d4168:	b508      	push	{r3, lr}
   d416a:	4b02      	ldr	r3, [pc, #8]	; (d4174 <HAL_ADC_Read+0xc>)
   d416c:	681b      	ldr	r3, [r3, #0]
   d416e:	6b1b      	ldr	r3, [r3, #48]	; 0x30
   d4170:	9301      	str	r3, [sp, #4]
   d4172:	bd08      	pop	{r3, pc}
   d4174:	0003022c 	.word	0x0003022c

000d4178 <HAL_SPI_Init>:
DYNALIB_FN(2, hal_spi, HAL_SPI_Set_Bit_Order, void(HAL_SPI_Interface, uint8_t))
DYNALIB_FN(3, hal_spi, HAL_SPI_Set_Data_Mode, void(HAL_SPI_Interface, uint8_t))
DYNALIB_FN(4, hal_spi, HAL_SPI_Set_Clock_Divider, void(HAL_SPI_Interface, uint8_t))
DYNALIB_FN(5, hal_spi, HAL_SPI_Send_Receive_Data, uint16_t(HAL_SPI_Interface, uint16_t))
DYNALIB_FN(6, hal_spi, HAL_SPI_Is_Enabled_Old, bool(void))
DYNALIB_FN(7, hal_spi, HAL_SPI_Init, void(HAL_SPI_Interface))
   d4178:	b508      	push	{r3, lr}
   d417a:	4b02      	ldr	r3, [pc, #8]	; (d4184 <HAL_SPI_Init+0xc>)
   d417c:	681b      	ldr	r3, [r3, #0]
   d417e:	69db      	ldr	r3, [r3, #28]
   d4180:	9301      	str	r3, [sp, #4]
   d4182:	bd08      	pop	{r3, pc}
   d4184:	00030230 	.word	0x00030230

000d4188 <HAL_SPI_Is_Enabled>:
DYNALIB_FN(8, hal_spi, HAL_SPI_Is_Enabled, bool(HAL_SPI_Interface))
   d4188:	b508      	push	{r3, lr}
   d418a:	4b02      	ldr	r3, [pc, #8]	; (d4194 <HAL_SPI_Is_Enabled+0xc>)
   d418c:	681b      	ldr	r3, [r3, #0]
   d418e:	6a1b      	ldr	r3, [r3, #32]
   d4190:	9301      	str	r3, [sp, #4]
   d4192:	bd08      	pop	{r3, pc}
   d4194:	00030230 	.word	0x00030230

000d4198 <HAL_RNG_GetRandomNumber>:

DYNALIB_BEGIN(hal)

#if PLATFORM_ID > 3
DYNALIB_FN(0, hal, HAL_RNG_Configuration, void(void))
DYNALIB_FN(1, hal, HAL_RNG_GetRandomNumber, uint32_t(void))
   d4198:	b508      	push	{r3, lr}
   d419a:	4b02      	ldr	r3, [pc, #8]	; (d41a4 <HAL_RNG_GetRandomNumber+0xc>)
   d419c:	681b      	ldr	r3, [r3, #0]
   d419e:	685b      	ldr	r3, [r3, #4]
   d41a0:	9301      	str	r3, [sp, #4]
   d41a2:	bd08      	pop	{r3, pc}
   d41a4:	00030218 	.word	0x00030218

000d41a8 <HAL_Timer_Get_Milli_Seconds>:
#endif

DYNALIB_FN(BASE_IDX + 0, hal, HAL_Delay_Milliseconds, void(uint32_t))
DYNALIB_FN(BASE_IDX + 1, hal, HAL_Delay_Microseconds, void(uint32_t))
DYNALIB_FN(BASE_IDX + 2, hal, HAL_Timer_Get_Micro_Seconds, system_tick_t(void))
DYNALIB_FN(BASE_IDX + 3, hal, HAL_Timer_Get_Milli_Seconds, system_tick_t(void))
   d41a8:	b508      	push	{r3, lr}
   d41aa:	4b02      	ldr	r3, [pc, #8]	; (d41b4 <HAL_Timer_Get_Milli_Seconds+0xc>)
   d41ac:	681b      	ldr	r3, [r3, #0]
   d41ae:	695b      	ldr	r3, [r3, #20]
   d41b0:	9301      	str	r3, [sp, #4]
   d41b2:	bd08      	pop	{r3, pc}
   d41b4:	00030218 	.word	0x00030218

000d41b8 <os_thread_is_current>:
DYNALIB_BEGIN(hal_concurrent)

#if PLATFORM_THREADING
DYNALIB_FN(0, hal_concurrent, __gthread_equal, bool(__gthread_t, __gthread_t))
DYNALIB_FN(1, hal_concurrent, os_thread_create, os_result_t(os_thread_t*, const char*, os_thread_prio_t, os_thread_fn_t, void*, size_t))
DYNALIB_FN(2, hal_concurrent, os_thread_is_current, bool(os_thread_t))
   d41b8:	b508      	push	{r3, lr}
   d41ba:	4b02      	ldr	r3, [pc, #8]	; (d41c4 <os_thread_is_current+0xc>)
   d41bc:	681b      	ldr	r3, [r3, #0]
   d41be:	689b      	ldr	r3, [r3, #8]
   d41c0:	9301      	str	r3, [sp, #4]
   d41c2:	bd08      	pop	{r3, pc}
   d41c4:	00030248 	.word	0x00030248

000d41c8 <os_thread_join>:
DYNALIB_FN(3, hal_concurrent, os_thread_yield, os_result_t(void))
DYNALIB_FN(4, hal_concurrent, os_thread_join, os_result_t(os_thread_t))
   d41c8:	b508      	push	{r3, lr}
   d41ca:	4b02      	ldr	r3, [pc, #8]	; (d41d4 <os_thread_join+0xc>)
   d41cc:	681b      	ldr	r3, [r3, #0]
   d41ce:	691b      	ldr	r3, [r3, #16]
   d41d0:	9301      	str	r3, [sp, #4]
   d41d2:	bd08      	pop	{r3, pc}
   d41d4:	00030248 	.word	0x00030248

000d41d8 <os_thread_cleanup>:
DYNALIB_FN(5, hal_concurrent, os_thread_cleanup, os_result_t(os_thread_t))
   d41d8:	b508      	push	{r3, lr}
   d41da:	4b02      	ldr	r3, [pc, #8]	; (d41e4 <os_thread_cleanup+0xc>)
   d41dc:	681b      	ldr	r3, [r3, #0]
   d41de:	695b      	ldr	r3, [r3, #20]
   d41e0:	9301      	str	r3, [sp, #4]
   d41e2:	bd08      	pop	{r3, pc}
   d41e4:	00030248 	.word	0x00030248

000d41e8 <os_mutex_create>:
DYNALIB_FN(8, hal_concurrent, os_timer_create, int(os_timer_t*, unsigned, void(*)(os_timer_t), void*, bool, void*))
DYNALIB_FN(9, hal_concurrent, os_timer_destroy, int(os_timer_t, void*))
DYNALIB_FN(10, hal_concurrent, os_timer_get_id, int(os_timer_t, void**))
DYNALIB_FN(11, hal_concurrent, os_timer_change, int(os_timer_t, os_timer_change_t, bool, unsigned, unsigned, void*))

DYNALIB_FN(12, hal_concurrent, os_mutex_create, int(os_mutex_t*))
   d41e8:	b508      	push	{r3, lr}
   d41ea:	4b02      	ldr	r3, [pc, #8]	; (d41f4 <os_mutex_create+0xc>)
   d41ec:	681b      	ldr	r3, [r3, #0]
   d41ee:	6b1b      	ldr	r3, [r3, #48]	; 0x30
   d41f0:	9301      	str	r3, [sp, #4]
   d41f2:	bd08      	pop	{r3, pc}
   d41f4:	00030248 	.word	0x00030248

000d41f8 <os_mutex_recursive_create>:
DYNALIB_FN(13, hal_concurrent, os_mutex_destroy, int(os_mutex_t))
DYNALIB_FN(14, hal_concurrent, os_mutex_lock, int(os_mutex_t))
DYNALIB_FN(15, hal_concurrent, os_mutex_trylock, int(os_mutex_t))
DYNALIB_FN(16, hal_concurrent, os_mutex_unlock, int(os_mutex_t))

DYNALIB_FN(17, hal_concurrent, os_mutex_recursive_create, int(os_mutex_recursive_t*))
   d41f8:	b508      	push	{r3, lr}
   d41fa:	4b02      	ldr	r3, [pc, #8]	; (d4204 <os_mutex_recursive_create+0xc>)
   d41fc:	681b      	ldr	r3, [r3, #0]
   d41fe:	6c5b      	ldr	r3, [r3, #68]	; 0x44
   d4200:	9301      	str	r3, [sp, #4]
   d4202:	bd08      	pop	{r3, pc}
   d4204:	00030248 	.word	0x00030248

000d4208 <inet_inet_ntop>:
DYNALIB_FN(0, hal_inet, inet_inet_addr, in_addr_t(const char*))
DYNALIB_FN(1, hal_inet, inet_inet_aton, int(const char*, struct in_addr*))
DYNALIB_FN(2, hal_inet, inet_inet_network, in_addr_t(const char*))
DYNALIB_FN(3, hal_inet, inet_inet_ntoa, char*(struct in_addr))
DYNALIB_FN(4, hal_inet, inet_inet_ntoa_r, char*(struct in_addr, char*, socklen_t))
DYNALIB_FN(5, hal_inet, inet_inet_ntop, const char*(int, const void*, char*, socklen_t))
   d4208:	b508      	push	{r3, lr}
   d420a:	4b02      	ldr	r3, [pc, #8]	; (d4214 <inet_inet_ntop+0xc>)
   d420c:	681b      	ldr	r3, [r3, #0]
   d420e:	695b      	ldr	r3, [r3, #20]
   d4210:	9301      	str	r3, [sp, #4]
   d4212:	bd08      	pop	{r3, pc}
   d4214:	00030264 	.word	0x00030264

000d4218 <HAL_USART_Init>:
#define BASE_IDX 6 // Base index for all subsequent functions
#else
#define BASE_IDX 0
#endif

DYNALIB_FN(BASE_IDX + 0, hal_usart, HAL_USART_Init, void(HAL_USART_Serial, Ring_Buffer*, Ring_Buffer*))
   d4218:	b508      	push	{r3, lr}
   d421a:	4b02      	ldr	r3, [pc, #8]	; (d4224 <HAL_USART_Init+0xc>)
   d421c:	681b      	ldr	r3, [r3, #0]
   d421e:	681b      	ldr	r3, [r3, #0]
   d4220:	9301      	str	r3, [sp, #4]
   d4222:	bd08      	pop	{r3, pc}
   d4224:	0003023c 	.word	0x0003023c

000d4228 <HAL_USART_Write_Data>:
DYNALIB_FN(BASE_IDX + 1, hal_usart, HAL_USART_Begin, void(HAL_USART_Serial, uint32_t))
DYNALIB_FN(BASE_IDX + 2, hal_usart, HAL_USART_End, void(HAL_USART_Serial))
DYNALIB_FN(BASE_IDX + 3, hal_usart, HAL_USART_Write_Data, uint32_t(HAL_USART_Serial, uint8_t))
   d4228:	b508      	push	{r3, lr}
   d422a:	4b02      	ldr	r3, [pc, #8]	; (d4234 <HAL_USART_Write_Data+0xc>)
   d422c:	681b      	ldr	r3, [r3, #0]
   d422e:	68db      	ldr	r3, [r3, #12]
   d4230:	9301      	str	r3, [sp, #4]
   d4232:	bd08      	pop	{r3, pc}
   d4234:	0003023c 	.word	0x0003023c

000d4238 <HAL_USART_Available_Data>:
DYNALIB_FN(BASE_IDX + 4, hal_usart, HAL_USART_Available_Data, int32_t(HAL_USART_Serial))
   d4238:	b508      	push	{r3, lr}
   d423a:	4b02      	ldr	r3, [pc, #8]	; (d4244 <HAL_USART_Available_Data+0xc>)
   d423c:	681b      	ldr	r3, [r3, #0]
   d423e:	691b      	ldr	r3, [r3, #16]
   d4240:	9301      	str	r3, [sp, #4]
   d4242:	bd08      	pop	{r3, pc}
   d4244:	0003023c 	.word	0x0003023c

000d4248 <HAL_USART_Read_Data>:
DYNALIB_FN(BASE_IDX + 5, hal_usart, HAL_USART_Read_Data, int32_t(HAL_USART_Serial))
   d4248:	b508      	push	{r3, lr}
   d424a:	4b02      	ldr	r3, [pc, #8]	; (d4254 <HAL_USART_Read_Data+0xc>)
   d424c:	681b      	ldr	r3, [r3, #0]
   d424e:	695b      	ldr	r3, [r3, #20]
   d4250:	9301      	str	r3, [sp, #4]
   d4252:	bd08      	pop	{r3, pc}
   d4254:	0003023c 	.word	0x0003023c

000d4258 <HAL_USART_Peek_Data>:
DYNALIB_FN(BASE_IDX + 6, hal_usart, HAL_USART_Peek_Data, int32_t(HAL_USART_Serial))
   d4258:	b508      	push	{r3, lr}
   d425a:	4b02      	ldr	r3, [pc, #8]	; (d4264 <HAL_USART_Peek_Data+0xc>)
   d425c:	681b      	ldr	r3, [r3, #0]
   d425e:	699b      	ldr	r3, [r3, #24]
   d4260:	9301      	str	r3, [sp, #4]
   d4262:	bd08      	pop	{r3, pc}
   d4264:	0003023c 	.word	0x0003023c

000d4268 <HAL_USART_Flush_Data>:
DYNALIB_FN(BASE_IDX + 7, hal_usart, HAL_USART_Flush_Data, void(HAL_USART_Serial))
   d4268:	b508      	push	{r3, lr}
   d426a:	4b02      	ldr	r3, [pc, #8]	; (d4274 <HAL_USART_Flush_Data+0xc>)
   d426c:	681b      	ldr	r3, [r3, #0]
   d426e:	69db      	ldr	r3, [r3, #28]
   d4270:	9301      	str	r3, [sp, #4]
   d4272:	bd08      	pop	{r3, pc}
   d4274:	0003023c 	.word	0x0003023c

000d4278 <HAL_USART_Is_Enabled>:
DYNALIB_FN(BASE_IDX + 8, hal_usart, HAL_USART_Is_Enabled, bool(HAL_USART_Serial))
   d4278:	b508      	push	{r3, lr}
   d427a:	4b02      	ldr	r3, [pc, #8]	; (d4284 <HAL_USART_Is_Enabled+0xc>)
   d427c:	681b      	ldr	r3, [r3, #0]
   d427e:	6a1b      	ldr	r3, [r3, #32]
   d4280:	9301      	str	r3, [sp, #4]
   d4282:	bd08      	pop	{r3, pc}
   d4284:	0003023c 	.word	0x0003023c

000d4288 <HAL_USART_Available_Data_For_Write>:
DYNALIB_FN(BASE_IDX + 9, hal_usart, HAL_USART_Half_Duplex, void(HAL_USART_Serial, bool))
DYNALIB_FN(BASE_IDX + 10, hal_usart, HAL_USART_Available_Data_For_Write, int32_t(HAL_USART_Serial))
   d4288:	b508      	push	{r3, lr}
   d428a:	4b02      	ldr	r3, [pc, #8]	; (d4294 <HAL_USART_Available_Data_For_Write+0xc>)
   d428c:	681b      	ldr	r3, [r3, #0]
   d428e:	6a9b      	ldr	r3, [r3, #40]	; 0x28
   d4290:	9301      	str	r3, [sp, #4]
   d4292:	bd08      	pop	{r3, pc}
   d4294:	0003023c 	.word	0x0003023c

000d4298 <HAL_I2C_Write_Data>:
DYNALIB_FN(BASE_IDX + 3, hal_i2c, HAL_I2C_Begin, void(HAL_I2C_Interface, I2C_Mode, uint8_t, void*))
DYNALIB_FN(BASE_IDX + 4, hal_i2c, HAL_I2C_End, void(HAL_I2C_Interface, void*))
DYNALIB_FN(BASE_IDX + 5, hal_i2c, HAL_I2C_Request_Data, uint32_t(HAL_I2C_Interface, uint8_t, uint8_t, uint8_t, void*))
DYNALIB_FN(BASE_IDX + 6, hal_i2c, HAL_I2C_Begin_Transmission, void(HAL_I2C_Interface, uint8_t, void*))
DYNALIB_FN(BASE_IDX + 7, hal_i2c, HAL_I2C_End_Transmission, uint8_t(HAL_I2C_Interface, uint8_t, void*))
DYNALIB_FN(BASE_IDX + 8, hal_i2c, HAL_I2C_Write_Data, uint32_t(HAL_I2C_Interface, uint8_t, void*))
   d4298:	b508      	push	{r3, lr}
   d429a:	4b02      	ldr	r3, [pc, #8]	; (d42a4 <HAL_I2C_Write_Data+0xc>)
   d429c:	681b      	ldr	r3, [r3, #0]
   d429e:	6a1b      	ldr	r3, [r3, #32]
   d42a0:	9301      	str	r3, [sp, #4]
   d42a2:	bd08      	pop	{r3, pc}
   d42a4:	00030228 	.word	0x00030228

000d42a8 <HAL_I2C_Available_Data>:
DYNALIB_FN(BASE_IDX + 9, hal_i2c, HAL_I2C_Available_Data, int32_t(HAL_I2C_Interface, void*))
   d42a8:	b508      	push	{r3, lr}
   d42aa:	4b02      	ldr	r3, [pc, #8]	; (d42b4 <HAL_I2C_Available_Data+0xc>)
   d42ac:	681b      	ldr	r3, [r3, #0]
   d42ae:	6a5b      	ldr	r3, [r3, #36]	; 0x24
   d42b0:	9301      	str	r3, [sp, #4]
   d42b2:	bd08      	pop	{r3, pc}
   d42b4:	00030228 	.word	0x00030228

000d42b8 <HAL_I2C_Read_Data>:
DYNALIB_FN(BASE_IDX + 10, hal_i2c, HAL_I2C_Read_Data, int32_t(HAL_I2C_Interface, void*))
   d42b8:	b508      	push	{r3, lr}
   d42ba:	4b02      	ldr	r3, [pc, #8]	; (d42c4 <HAL_I2C_Read_Data+0xc>)
   d42bc:	681b      	ldr	r3, [r3, #0]
   d42be:	6a9b      	ldr	r3, [r3, #40]	; 0x28
   d42c0:	9301      	str	r3, [sp, #4]
   d42c2:	bd08      	pop	{r3, pc}
   d42c4:	00030228 	.word	0x00030228

000d42c8 <HAL_I2C_Peek_Data>:
DYNALIB_FN(BASE_IDX + 11, hal_i2c, HAL_I2C_Peek_Data, int32_t(HAL_I2C_Interface, void*))
   d42c8:	b508      	push	{r3, lr}
   d42ca:	4b02      	ldr	r3, [pc, #8]	; (d42d4 <HAL_I2C_Peek_Data+0xc>)
   d42cc:	681b      	ldr	r3, [r3, #0]
   d42ce:	6adb      	ldr	r3, [r3, #44]	; 0x2c
   d42d0:	9301      	str	r3, [sp, #4]
   d42d2:	bd08      	pop	{r3, pc}
   d42d4:	00030228 	.word	0x00030228

000d42d8 <HAL_I2C_Flush_Data>:
DYNALIB_FN(BASE_IDX + 12, hal_i2c, HAL_I2C_Flush_Data, void(HAL_I2C_Interface, void*))
   d42d8:	b508      	push	{r3, lr}
   d42da:	4b02      	ldr	r3, [pc, #8]	; (d42e4 <HAL_I2C_Flush_Data+0xc>)
   d42dc:	681b      	ldr	r3, [r3, #0]
   d42de:	6b1b      	ldr	r3, [r3, #48]	; 0x30
   d42e0:	9301      	str	r3, [sp, #4]
   d42e2:	bd08      	pop	{r3, pc}
   d42e4:	00030228 	.word	0x00030228

000d42e8 <HAL_I2C_Is_Enabled>:
DYNALIB_FN(BASE_IDX + 13, hal_i2c, HAL_I2C_Is_Enabled, bool(HAL_I2C_Interface, void*))
   d42e8:	b508      	push	{r3, lr}
   d42ea:	4b02      	ldr	r3, [pc, #8]	; (d42f4 <HAL_I2C_Is_Enabled+0xc>)
   d42ec:	681b      	ldr	r3, [r3, #0]
   d42ee:	6b5b      	ldr	r3, [r3, #52]	; 0x34
   d42f0:	9301      	str	r3, [sp, #4]
   d42f2:	bd08      	pop	{r3, pc}
   d42f4:	00030228 	.word	0x00030228

000d42f8 <HAL_I2C_Init>:
DYNALIB_FN(BASE_IDX + 14, hal_i2c, HAL_I2C_Set_Callback_On_Receive, void(HAL_I2C_Interface, void(*)(int), void*))
DYNALIB_FN(BASE_IDX + 15, hal_i2c, HAL_I2C_Set_Callback_On_Request, void(HAL_I2C_Interface, void(*)(void), void*))
DYNALIB_FN(BASE_IDX + 16, hal_i2c, HAL_I2C_Init, void(HAL_I2C_Interface, void*))
   d42f8:	b508      	push	{r3, lr}
   d42fa:	4b02      	ldr	r3, [pc, #8]	; (d4304 <HAL_I2C_Init+0xc>)
   d42fc:	681b      	ldr	r3, [r3, #0]
   d42fe:	6c1b      	ldr	r3, [r3, #64]	; 0x40
   d4300:	9301      	str	r3, [sp, #4]
   d4302:	bd08      	pop	{r3, pc}
   d4304:	00030228 	.word	0x00030228

000d4308 <HAL_USB_USART_Init>:
#endif

DYNALIB_BEGIN(hal_usb)

#ifdef USB_CDC_ENABLE
DYNALIB_FN(0, hal_usb, HAL_USB_USART_Init, void(HAL_USB_USART_Serial, const HAL_USB_USART_Config*))
   d4308:	b508      	push	{r3, lr}
   d430a:	4b02      	ldr	r3, [pc, #8]	; (d4314 <HAL_USB_USART_Init+0xc>)
   d430c:	681b      	ldr	r3, [r3, #0]
   d430e:	681b      	ldr	r3, [r3, #0]
   d4310:	9301      	str	r3, [sp, #4]
   d4312:	bd08      	pop	{r3, pc}
   d4314:	0003024c 	.word	0x0003024c

000d4318 <HAL_USB_USART_Begin>:
DYNALIB_FN(1, hal_usb, HAL_USB_USART_Begin, void(HAL_USB_USART_Serial, uint32_t, void *))
   d4318:	b508      	push	{r3, lr}
   d431a:	4b02      	ldr	r3, [pc, #8]	; (d4324 <HAL_USB_USART_Begin+0xc>)
   d431c:	681b      	ldr	r3, [r3, #0]
   d431e:	685b      	ldr	r3, [r3, #4]
   d4320:	9301      	str	r3, [sp, #4]
   d4322:	bd08      	pop	{r3, pc}
   d4324:	0003024c 	.word	0x0003024c

000d4328 <HAL_USB_USART_Available_Data>:
DYNALIB_FN(2, hal_usb, HAL_USB_USART_End, void(HAL_USB_USART_Serial))
DYNALIB_FN(3, hal_usb, HAL_USB_USART_Baud_Rate, unsigned int(HAL_USB_USART_Serial))
DYNALIB_FN(4, hal_usb, HAL_USB_USART_Available_Data, int32_t(HAL_USB_USART_Serial))
   d4328:	b508      	push	{r3, lr}
   d432a:	4b02      	ldr	r3, [pc, #8]	; (d4334 <HAL_USB_USART_Available_Data+0xc>)
   d432c:	681b      	ldr	r3, [r3, #0]
   d432e:	691b      	ldr	r3, [r3, #16]
   d4330:	9301      	str	r3, [sp, #4]
   d4332:	bd08      	pop	{r3, pc}
   d4334:	0003024c 	.word	0x0003024c

000d4338 <HAL_USB_USART_Available_Data_For_Write>:
DYNALIB_FN(5, hal_usb, HAL_USB_USART_Available_Data_For_Write, int32_t(HAL_USB_USART_Serial))
   d4338:	b508      	push	{r3, lr}
   d433a:	4b02      	ldr	r3, [pc, #8]	; (d4344 <HAL_USB_USART_Available_Data_For_Write+0xc>)
   d433c:	681b      	ldr	r3, [r3, #0]
   d433e:	695b      	ldr	r3, [r3, #20]
   d4340:	9301      	str	r3, [sp, #4]
   d4342:	bd08      	pop	{r3, pc}
   d4344:	0003024c 	.word	0x0003024c

000d4348 <HAL_USB_USART_Receive_Data>:
DYNALIB_FN(6, hal_usb, HAL_USB_USART_Receive_Data, int32_t(HAL_USB_USART_Serial, uint8_t))
   d4348:	b508      	push	{r3, lr}
   d434a:	4b02      	ldr	r3, [pc, #8]	; (d4354 <HAL_USB_USART_Receive_Data+0xc>)
   d434c:	681b      	ldr	r3, [r3, #0]
   d434e:	699b      	ldr	r3, [r3, #24]
   d4350:	9301      	str	r3, [sp, #4]
   d4352:	bd08      	pop	{r3, pc}
   d4354:	0003024c 	.word	0x0003024c

000d4358 <HAL_USB_USART_Send_Data>:
DYNALIB_FN(7, hal_usb, HAL_USB_USART_Send_Data, int32_t(HAL_USB_USART_Serial, uint8_t))
   d4358:	b508      	push	{r3, lr}
   d435a:	4b02      	ldr	r3, [pc, #8]	; (d4364 <HAL_USB_USART_Send_Data+0xc>)
   d435c:	681b      	ldr	r3, [r3, #0]
   d435e:	69db      	ldr	r3, [r3, #28]
   d4360:	9301      	str	r3, [sp, #4]
   d4362:	bd08      	pop	{r3, pc}
   d4364:	0003024c 	.word	0x0003024c

000d4368 <HAL_USB_USART_Flush_Data>:
DYNALIB_FN(8, hal_usb, HAL_USB_USART_Flush_Data, void(HAL_USB_USART_Serial))
   d4368:	b508      	push	{r3, lr}
   d436a:	4b02      	ldr	r3, [pc, #8]	; (d4374 <HAL_USB_USART_Flush_Data+0xc>)
   d436c:	681b      	ldr	r3, [r3, #0]
   d436e:	6a1b      	ldr	r3, [r3, #32]
   d4370:	9301      	str	r3, [sp, #4]
   d4372:	bd08      	pop	{r3, pc}
   d4374:	0003024c 	.word	0x0003024c

000d4378 <set_system_mode>:
#endif

DYNALIB_BEGIN(system)

DYNALIB_FN(0, system, system_mode, System_Mode_TypeDef(void))
DYNALIB_FN(1, system, set_system_mode, void(System_Mode_TypeDef))
   d4378:	b508      	push	{r3, lr}
   d437a:	4b02      	ldr	r3, [pc, #8]	; (d4384 <set_system_mode+0xc>)
   d437c:	681b      	ldr	r3, [r3, #0]
   d437e:	685b      	ldr	r3, [r3, #4]
   d4380:	9301      	str	r3, [sp, #4]
   d4382:	bd08      	pop	{r3, pc}
   d4384:	00030220 	.word	0x00030220

000d4388 <system_delay_ms>:

DYNALIB_FN(2, system, set_ymodem_serial_flash_update_handler, void(ymodem_serial_flash_update_handler))
DYNALIB_FN(3, system, system_firmwareUpdate, bool(Stream*, void*))
DYNALIB_FN(4, system, system_fileTransfer, bool(system_file_transfer_t*, void*))

DYNALIB_FN(5, system, system_delay_ms, void(unsigned long, bool))
   d4388:	b508      	push	{r3, lr}
   d438a:	4b02      	ldr	r3, [pc, #8]	; (d4394 <system_delay_ms+0xc>)
   d438c:	681b      	ldr	r3, [r3, #0]
   d438e:	695b      	ldr	r3, [r3, #20]
   d4390:	9301      	str	r3, [sp, #4]
   d4392:	bd08      	pop	{r3, pc}
   d4394:	00030220 	.word	0x00030220

000d4398 <system_ctrl_set_app_request_handler>:
DYNALIB_FN(BASE_IDX + 6, system, led_pattern_period, uint16_t(int, int, void*))
DYNALIB_FN(BASE_IDX + 7, system, system_set_tester_handlers, int(system_tester_handlers_t*, void*))
DYNALIB_FN(BASE_IDX + 8, system, system_format_diag_data, int(const uint16_t*, size_t, unsigned, appender_fn, void*, void*))

// Control requests
DYNALIB_FN(BASE_IDX + 9, system, system_ctrl_set_app_request_handler, int(ctrl_request_handler_fn, void*))
   d4398:	b508      	push	{r3, lr}
   d439a:	4b03      	ldr	r3, [pc, #12]	; (d43a8 <system_ctrl_set_app_request_handler+0x10>)
   d439c:	681b      	ldr	r3, [r3, #0]
   d439e:	f8d3 3088 	ldr.w	r3, [r3, #136]	; 0x88
   d43a2:	9301      	str	r3, [sp, #4]
   d43a4:	bd08      	pop	{r3, pc}
   d43a6:	0000      	.short	0x0000
   d43a8:	00030220 	.word	0x00030220

000d43ac <system_ctrl_set_result>:
DYNALIB_FN(BASE_IDX + 10, system, system_ctrl_alloc_reply_data, int(ctrl_request*, size_t, void*))
DYNALIB_FN(BASE_IDX + 11, system, system_ctrl_free_request_data, void(ctrl_request*, void*))
DYNALIB_FN(BASE_IDX + 12, system, system_ctrl_set_result, void(ctrl_request*, int, ctrl_completion_handler_fn, void*, void*))
   d43ac:	b508      	push	{r3, lr}
   d43ae:	4b03      	ldr	r3, [pc, #12]	; (d43bc <system_ctrl_set_result+0x10>)
   d43b0:	681b      	ldr	r3, [r3, #0]
   d43b2:	f8d3 3094 	ldr.w	r3, [r3, #148]	; 0x94
   d43b6:	9301      	str	r3, [sp, #4]
   d43b8:	bd08      	pop	{r3, pc}
   d43ba:	0000      	.short	0x0000
   d43bc:	00030220 	.word	0x00030220

000d43c0 <network_connect>:
#endif

DYNALIB_BEGIN(system_net)

DYNALIB_FN(0, system_net, network_config, const void*(network_handle_t, uint32_t, void*))
DYNALIB_FN(1, system_net, network_connect, void(network_handle_t, uint32_t, uint32_t, void*))
   d43c0:	b508      	push	{r3, lr}
   d43c2:	4b02      	ldr	r3, [pc, #8]	; (d43cc <network_connect+0xc>)
   d43c4:	681b      	ldr	r3, [r3, #0]
   d43c6:	685b      	ldr	r3, [r3, #4]
   d43c8:	9301      	str	r3, [sp, #4]
   d43ca:	bd08      	pop	{r3, pc}
   d43cc:	00030240 	.word	0x00030240

000d43d0 <network_connecting>:
DYNALIB_FN(2, system_net, network_connecting, bool(network_handle_t, uint32_t, void*))
   d43d0:	b508      	push	{r3, lr}
   d43d2:	4b02      	ldr	r3, [pc, #8]	; (d43dc <network_connecting+0xc>)
   d43d4:	681b      	ldr	r3, [r3, #0]
   d43d6:	689b      	ldr	r3, [r3, #8]
   d43d8:	9301      	str	r3, [sp, #4]
   d43da:	bd08      	pop	{r3, pc}
   d43dc:	00030240 	.word	0x00030240

000d43e0 <network_disconnect>:
DYNALIB_FN(3, system_net, network_disconnect, void(network_handle_t, uint32_t, void*))
   d43e0:	b508      	push	{r3, lr}
   d43e2:	4b02      	ldr	r3, [pc, #8]	; (d43ec <network_disconnect+0xc>)
   d43e4:	681b      	ldr	r3, [r3, #0]
   d43e6:	68db      	ldr	r3, [r3, #12]
   d43e8:	9301      	str	r3, [sp, #4]
   d43ea:	bd08      	pop	{r3, pc}
   d43ec:	00030240 	.word	0x00030240

000d43f0 <network_ready>:
DYNALIB_FN(4, system_net, network_ready, bool(network_handle_t, uint32_t, void*))
   d43f0:	b508      	push	{r3, lr}
   d43f2:	4b02      	ldr	r3, [pc, #8]	; (d43fc <network_ready+0xc>)
   d43f4:	681b      	ldr	r3, [r3, #0]
   d43f6:	691b      	ldr	r3, [r3, #16]
   d43f8:	9301      	str	r3, [sp, #4]
   d43fa:	bd08      	pop	{r3, pc}
   d43fc:	00030240 	.word	0x00030240

000d4400 <network_on>:
DYNALIB_FN(5, system_net, network_on, void(network_handle_t, uint32_t, uint32_t, void*))
   d4400:	b508      	push	{r3, lr}
   d4402:	4b02      	ldr	r3, [pc, #8]	; (d440c <network_on+0xc>)
   d4404:	681b      	ldr	r3, [r3, #0]
   d4406:	695b      	ldr	r3, [r3, #20]
   d4408:	9301      	str	r3, [sp, #4]
   d440a:	bd08      	pop	{r3, pc}
   d440c:	00030240 	.word	0x00030240

000d4410 <network_off>:
DYNALIB_FN(6, system_net, network_off, void(network_handle_t, uint32_t, uint32_t, void*))
   d4410:	b508      	push	{r3, lr}
   d4412:	4b02      	ldr	r3, [pc, #8]	; (d441c <network_off+0xc>)
   d4414:	681b      	ldr	r3, [r3, #0]
   d4416:	699b      	ldr	r3, [r3, #24]
   d4418:	9301      	str	r3, [sp, #4]
   d441a:	bd08      	pop	{r3, pc}
   d441c:	00030240 	.word	0x00030240

000d4420 <network_listen>:
DYNALIB_FN(7, system_net, network_listen, void(network_handle_t, uint32_t, void*))
   d4420:	b508      	push	{r3, lr}
   d4422:	4b02      	ldr	r3, [pc, #8]	; (d442c <network_listen+0xc>)
   d4424:	681b      	ldr	r3, [r3, #0]
   d4426:	69db      	ldr	r3, [r3, #28]
   d4428:	9301      	str	r3, [sp, #4]
   d442a:	bd08      	pop	{r3, pc}
   d442c:	00030240 	.word	0x00030240

000d4430 <network_listening>:
DYNALIB_FN(8, system_net, network_listening, bool(network_handle_t, uint32_t, void*))
   d4430:	b508      	push	{r3, lr}
   d4432:	4b02      	ldr	r3, [pc, #8]	; (d443c <network_listening+0xc>)
   d4434:	681b      	ldr	r3, [r3, #0]
   d4436:	6a1b      	ldr	r3, [r3, #32]
   d4438:	9301      	str	r3, [sp, #4]
   d443a:	bd08      	pop	{r3, pc}
   d443c:	00030240 	.word	0x00030240

000d4440 <network_set_listen_timeout>:
DYNALIB_FN(9, system_net, network_has_credentials, bool(network_handle_t, uint32_t, void*))
DYNALIB_FN(10, system_net, network_set_credentials, int(network_handle_t, uint32_t, NetworkCredentials*, void*))
DYNALIB_FN(11, system_net, network_clear_credentials, bool(network_handle_t, uint32_t, NetworkCredentials*, void*))
DYNALIB_FN(12, system_net, network_set_listen_timeout, void(network_handle_t, uint16_t, void*))
   d4440:	b508      	push	{r3, lr}
   d4442:	4b02      	ldr	r3, [pc, #8]	; (d444c <network_set_listen_timeout+0xc>)
   d4444:	681b      	ldr	r3, [r3, #0]
   d4446:	6b1b      	ldr	r3, [r3, #48]	; 0x30
   d4448:	9301      	str	r3, [sp, #4]
   d444a:	bd08      	pop	{r3, pc}
   d444c:	00030240 	.word	0x00030240

000d4450 <network_get_listen_timeout>:
DYNALIB_FN(13, system_net, network_get_listen_timeout, uint16_t(network_handle_t, uint32_t, void*))
   d4450:	b508      	push	{r3, lr}
   d4452:	4b02      	ldr	r3, [pc, #8]	; (d445c <network_get_listen_timeout+0xc>)
   d4454:	681b      	ldr	r3, [r3, #0]
   d4456:	6b5b      	ldr	r3, [r3, #52]	; 0x34
   d4458:	9301      	str	r3, [sp, #4]
   d445a:	bd08      	pop	{r3, pc}
   d445c:	00030240 	.word	0x00030240

000d4460 <spark_set_random_seed_from_cloud_handler>:
DYNALIB_FN(10, system_cloud, spark_unsubscribe, void(void*))
DYNALIB_FN(11, system_cloud, spark_sync_time, bool(void*))
DYNALIB_FN(12, system_cloud, spark_sync_time_pending, bool(void*))
DYNALIB_FN(13, system_cloud, spark_sync_time_last, system_tick_t(time_t*, void*))
DYNALIB_FN(14, system_cloud, spark_set_connection_property, int(unsigned, unsigned, particle::protocol::connection_properties_t*, void*))
DYNALIB_FN(15, system_cloud, spark_set_random_seed_from_cloud_handler, int(void (*handler)(unsigned int), void*))
   d4460:	b508      	push	{r3, lr}
   d4462:	4b02      	ldr	r3, [pc, #8]	; (d446c <spark_set_random_seed_from_cloud_handler+0xc>)
   d4464:	681b      	ldr	r3, [r3, #0]
   d4466:	6bdb      	ldr	r3, [r3, #60]	; 0x3c
   d4468:	9301      	str	r3, [sp, #4]
   d446a:	bd08      	pop	{r3, pc}
   d446c:	00030244 	.word	0x00030244

000d4470 <malloc>:
#include <assert.h>
#endif

DYNALIB_BEGIN(rt)

DYNALIB_FN(0, rt, malloc, void*(size_t))
   d4470:	b508      	push	{r3, lr}
   d4472:	4b02      	ldr	r3, [pc, #8]	; (d447c <malloc+0xc>)
   d4474:	681b      	ldr	r3, [r3, #0]
   d4476:	681b      	ldr	r3, [r3, #0]
   d4478:	9301      	str	r3, [sp, #4]
   d447a:	bd08      	pop	{r3, pc}
   d447c:	0003021c 	.word	0x0003021c

000d4480 <free>:
DYNALIB_FN(1, rt, free, void(void*))
   d4480:	b508      	push	{r3, lr}
   d4482:	4b02      	ldr	r3, [pc, #8]	; (d448c <free+0xc>)
   d4484:	681b      	ldr	r3, [r3, #0]
   d4486:	685b      	ldr	r3, [r3, #4]
   d4488:	9301      	str	r3, [sp, #4]
   d448a:	bd08      	pop	{r3, pc}
   d448c:	0003021c 	.word	0x0003021c

000d4490 <vsnprintf>:
DYNALIB_FN(4, rt, siprintf, int(char*, const char*, ...))
DYNALIB_FN(5, rt, sscanf, int(const char*, const char*, ...))
DYNALIB_FN(6, rt, siscanf, int(const char*, const char*, ...))
DYNALIB_FN(7, rt, snprintf, int(char*, size_t, const char*, ...))
DYNALIB_FN(8, rt, sniprintf, int(char*, size_t, const char*, ...))
DYNALIB_FN(9, rt, vsnprintf, int(char*, size_t, const char*, va_list))
   d4490:	b508      	push	{r3, lr}
   d4492:	4b02      	ldr	r3, [pc, #8]	; (d449c <vsnprintf+0xc>)
   d4494:	681b      	ldr	r3, [r3, #0]
   d4496:	6a5b      	ldr	r3, [r3, #36]	; 0x24
   d4498:	9301      	str	r3, [sp, #4]
   d449a:	bd08      	pop	{r3, pc}
   d449c:	0003021c 	.word	0x0003021c

000d44a0 <_ZN5spark13EthernetClass9listeningEv>:
    uint16_t getListenTimeout(void) {
        return network_get_listen_timeout(*this, 0, NULL);
    }

    bool listening(void) {
        return network_listening(*this, 0, NULL);
   d44a0:	2200      	movs	r2, #0
   d44a2:	4611      	mov	r1, r2
   d44a4:	6840      	ldr	r0, [r0, #4]
   d44a6:	f7ff bfc3 	b.w	d4430 <network_listening>

000d44aa <_ZN5spark13EthernetClass16getListenTimeoutEv>:
    void setListenTimeout(uint16_t timeout) {
        network_set_listen_timeout(*this, timeout, NULL);
    }

    uint16_t getListenTimeout(void) {
        return network_get_listen_timeout(*this, 0, NULL);
   d44aa:	2200      	movs	r2, #0
   d44ac:	4611      	mov	r1, r2
   d44ae:	6840      	ldr	r0, [r0, #4]
   d44b0:	f7ff bfce 	b.w	d4450 <network_get_listen_timeout>

000d44b4 <_ZN5spark13EthernetClass16setListenTimeoutEt>:
    void listen(bool begin=true) {
        network_listen(*this, begin ? 0 : 1, NULL);
    }

    void setListenTimeout(uint16_t timeout) {
        network_set_listen_timeout(*this, timeout, NULL);
   d44b4:	2200      	movs	r2, #0
   d44b6:	6840      	ldr	r0, [r0, #4]
   d44b8:	f7ff bfc2 	b.w	d4440 <network_set_listen_timeout>

000d44bc <_ZN5spark13EthernetClass6listenEb>:
    void disconnect() {
        network_disconnect(*this, NETWORK_DISCONNECT_REASON_USER, NULL);
    }

    void listen(bool begin=true) {
        network_listen(*this, begin ? 0 : 1, NULL);
   d44bc:	2200      	movs	r2, #0
   d44be:	f081 0101 	eor.w	r1, r1, #1
   d44c2:	6840      	ldr	r0, [r0, #4]
   d44c4:	f7ff bfac 	b.w	d4420 <network_listen>

000d44c8 <_ZN5spark13EthernetClass3offEv>:
    void on() {
        network_on(*this, 0, 0, NULL);
    }

    void off() {
        network_off(*this, 0, 0, NULL);
   d44c8:	2300      	movs	r3, #0
   d44ca:	461a      	mov	r2, r3
   d44cc:	4619      	mov	r1, r3
   d44ce:	6840      	ldr	r0, [r0, #4]
   d44d0:	f7ff bf9e 	b.w	d4410 <network_off>

000d44d4 <_ZN5spark13EthernetClass2onEv>:
    EthernetClass() :
            NetworkClass(NETWORK_INTERFACE_ETHERNET) {
    }

    void on() {
        network_on(*this, 0, 0, NULL);
   d44d4:	2300      	movs	r3, #0
   d44d6:	461a      	mov	r2, r3
   d44d8:	4619      	mov	r1, r3
   d44da:	6840      	ldr	r0, [r0, #4]
   d44dc:	f7ff bf90 	b.w	d4400 <network_on>

000d44e0 <_ZN5spark13EthernetClass5readyEv>:
    bool listening(void) {
        return network_listening(*this, 0, NULL);
    }

    bool ready() {
        return network_ready(*this, 0,  NULL);
   d44e0:	2200      	movs	r2, #0
   d44e2:	4611      	mov	r1, r2
   d44e4:	6840      	ldr	r0, [r0, #4]
   d44e6:	f7ff bf83 	b.w	d43f0 <network_ready>

000d44ea <_ZN5spark13EthernetClass10connectingEv>:
    void connect(unsigned flags=0) {
        network_connect(*this, flags, 0, NULL);
    }

    bool connecting(void) {
        return network_connecting(*this, 0, NULL);
   d44ea:	2200      	movs	r2, #0
   d44ec:	4611      	mov	r1, r2
   d44ee:	6840      	ldr	r0, [r0, #4]
   d44f0:	f7ff bf6e 	b.w	d43d0 <network_connecting>

000d44f4 <_ZN5spark13EthernetClass10disconnectEv>:
    }

    void disconnect() {
        network_disconnect(*this, NETWORK_DISCONNECT_REASON_USER, NULL);
   d44f4:	2200      	movs	r2, #0
   d44f6:	2102      	movs	r1, #2
   d44f8:	6840      	ldr	r0, [r0, #4]
   d44fa:	f7ff bf71 	b.w	d43e0 <network_disconnect>

000d44fe <_ZN5spark13EthernetClass7connectEj>:
    void off() {
        network_off(*this, 0, 0, NULL);
    }

    void connect(unsigned flags=0) {
        network_connect(*this, flags, 0, NULL);
   d44fe:	2300      	movs	r3, #0
   d4500:	461a      	mov	r2, r3
   d4502:	6840      	ldr	r0, [r0, #4]
   d4504:	f7ff bf5c 	b.w	d43c0 <network_connect>

000d4508 <_GLOBAL__sub_I__ZN5spark8EthernetE>:
    static NetworkClass& from(network_interface_t nif);

    virtual IPAddress resolve(const char* name);

    explicit NetworkClass(network_interface_t iface)
            : iface_(iface) {
   d4508:	4b02      	ldr	r3, [pc, #8]	; (d4514 <_GLOBAL__sub_I__ZN5spark8EthernetE+0xc>)
   d450a:	2203      	movs	r2, #3
   d450c:	605a      	str	r2, [r3, #4]
    }

class EthernetClass : public NetworkClass {
public:
    EthernetClass() :
            NetworkClass(NETWORK_INTERFACE_ETHERNET) {
   d450e:	4a02      	ldr	r2, [pc, #8]	; (d4518 <_GLOBAL__sub_I__ZN5spark8EthernetE+0x10>)
   d4510:	601a      	str	r2, [r3, #0]
   d4512:	4770      	bx	lr
   d4514:	2003e3a0 	.word	0x2003e3a0
   d4518:	000d5b4c 	.word	0x000d5b4c

000d451c <_ZN8SPIClassD1Ev>:
  Mutex mutex_;
#endif

public:
  SPIClass(HAL_SPI_Interface spi);
  virtual ~SPIClass() {};
   d451c:	4770      	bx	lr

000d451e <_ZN8SPIClassD0Ev>:
   d451e:	b510      	push	{r4, lr}
   d4520:	2110      	movs	r1, #16
   d4522:	4604      	mov	r4, r0
   d4524:	f000 fd4b 	bl	d4fbe <_ZdlPvj>
   d4528:	4620      	mov	r0, r4
   d452a:	bd10      	pop	{r4, pc}

000d452c <_ZN8SPIClassC1E17HAL_SPI_Interface>:
  if (!info->enabled || info->default_settings)
    return particle::__SPISettings();
  return particle::__SPISettings(info->clock, info->bit_order, info->data_mode);
}

SPIClass::SPIClass(HAL_SPI_Interface spi)
   d452c:	b570      	push	{r4, r5, r6, lr}
   d452e:	4b08      	ldr	r3, [pc, #32]	; (d4550 <_ZN8SPIClassC1E17HAL_SPI_Interface+0x24>)
   d4530:	6003      	str	r3, [r0, #0]
   d4532:	4604      	mov	r4, r0
    Mutex(os_mutex_t handle) : handle_(handle) {}

    /**
     * Creates a new mutex.
     */
    Mutex() : handle_(nullptr)
   d4534:	2500      	movs	r5, #0
   d4536:	460e      	mov	r6, r1
   d4538:	f840 5f0c 	str.w	r5, [r0, #12]!
    {
        os_mutex_create(&handle_);
   d453c:	f7ff fe54 	bl	d41e8 <os_mutex_create>
{
  _spi = spi;
  HAL_SPI_Init(_spi);
   d4540:	4630      	mov	r0, r6
  return particle::__SPISettings(info->clock, info->bit_order, info->data_mode);
}

SPIClass::SPIClass(HAL_SPI_Interface spi)
{
  _spi = spi;
   d4542:	7126      	strb	r6, [r4, #4]
  HAL_SPI_Init(_spi);
   d4544:	f7ff fe18 	bl	d4178 <HAL_SPI_Init>
  dividerReference = SPI_CLK_SYSTEM;     // 0 indicates the system clock
   d4548:	60a5      	str	r5, [r4, #8]
}
   d454a:	4620      	mov	r0, r4
   d454c:	bd70      	pop	{r4, r5, r6, pc}
   d454e:	bf00      	nop
   d4550:	000d5b80 	.word	0x000d5b80

000d4554 <_ZN8SPIClass9isEnabledEv>:
  //To Do
}

bool SPIClass::isEnabled()
{
  return HAL_SPI_Is_Enabled(_spi);
   d4554:	7900      	ldrb	r0, [r0, #4]
   d4556:	f7ff be17 	b.w	d4188 <HAL_SPI_Is_Enabled>
	...

000d455c <_GLOBAL__sub_I_System>:
    WAKEUP_REASON_RTC = 2,
    WAKEUP_REASON_PIN_OR_RTC = 3
};

struct SleepResult {
    SleepResult() {}
   d455c:	4b04      	ldr	r3, [pc, #16]	; (d4570 <_GLOBAL__sub_I_System+0x14>)
   d455e:	2000      	movs	r0, #0
   d4560:	f64f 72ff 	movw	r2, #65535	; 0xffff
   d4564:	7018      	strb	r0, [r3, #0]
   d4566:	8058      	strh	r0, [r3, #2]
   d4568:	809a      	strh	r2, [r3, #4]

class SystemClass {
public:

    SystemClass(System_Mode_TypeDef mode = DEFAULT) {
        set_system_mode(mode);
   d456a:	f7ff bf05 	b.w	d4378 <set_system_mode>
   d456e:	bf00      	nop
   d4570:	2003e3a8 	.word	0x2003e3a8

000d4574 <_GLOBAL__sub_I__ZN8particle3ble13WiringBleLock6mutex_E>:
    /**
     * Creates a shared mutex.
     */
    RecursiveMutex(os_mutex_recursive_t handle) : handle_(handle) {}

    RecursiveMutex() : handle_(nullptr)
   d4574:	4802      	ldr	r0, [pc, #8]	; (d4580 <_GLOBAL__sub_I__ZN8particle3ble13WiringBleLock6mutex_E+0xc>)
   d4576:	2300      	movs	r3, #0
   d4578:	6003      	str	r3, [r0, #0]
    {
        os_mutex_recursive_create(&handle_);
   d457a:	f7ff be3d 	b.w	d41f8 <os_mutex_recursive_create>
   d457e:	bf00      	nop
   d4580:	2003e3b0 	.word	0x2003e3b0

000d4584 <_ZN5Print5writeEPKhj>:

// Public Methods //////////////////////////////////////////////////////////////

/* default implementation: may be overridden */
size_t Print::write(const uint8_t *buffer, size_t size)
{
   d4584:	b5f8      	push	{r3, r4, r5, r6, r7, lr}
   d4586:	4606      	mov	r6, r0
   d4588:	460d      	mov	r5, r1
   d458a:	188f      	adds	r7, r1, r2
  size_t n = 0;
   d458c:	2400      	movs	r4, #0
  while (size--) {
   d458e:	42bd      	cmp	r5, r7
   d4590:	d00c      	beq.n	d45ac <_ZN5Print5writeEPKhj+0x28>
     int chunk = write(*buffer++);
   d4592:	6833      	ldr	r3, [r6, #0]
   d4594:	f815 1b01 	ldrb.w	r1, [r5], #1
   d4598:	689b      	ldr	r3, [r3, #8]
   d459a:	4630      	mov	r0, r6
   d459c:	4798      	blx	r3
     if (chunk>=0)
   d459e:	2800      	cmp	r0, #0
   d45a0:	db01      	blt.n	d45a6 <_ZN5Print5writeEPKhj+0x22>
         n += chunk;
   d45a2:	4404      	add	r4, r0

/* default implementation: may be overridden */
size_t Print::write(const uint8_t *buffer, size_t size)
{
  size_t n = 0;
  while (size--) {
   d45a4:	e7f3      	b.n	d458e <_ZN5Print5writeEPKhj+0xa>
     int chunk = write(*buffer++);
   d45a6:	2c00      	cmp	r4, #0
   d45a8:	bf08      	it	eq
   d45aa:	4604      	moveq	r4, r0
             n = chunk;
         break;
     }
  }
  return n;
}
   d45ac:	4620      	mov	r0, r4
   d45ae:	bdf8      	pop	{r3, r4, r5, r6, r7, pc}

000d45b0 <_ZN5Print5writeEPKc>:

    int getWriteError() { return write_error; }
    void clearWriteError() { setWriteError(0); }

    virtual size_t write(uint8_t) = 0;
    size_t write(const char *str) {
   d45b0:	b570      	push	{r4, r5, r6, lr}
   d45b2:	4605      	mov	r5, r0
      if (str == NULL) return 0;
   d45b4:	460c      	mov	r4, r1
      return write((const uint8_t *)str, strlen(str));
    }
   d45b6:	4608      	mov	r0, r1
    int getWriteError() { return write_error; }
    void clearWriteError() { setWriteError(0); }

    virtual size_t write(uint8_t) = 0;
    size_t write(const char *str) {
      if (str == NULL) return 0;
   d45b8:	b149      	cbz	r1, d45ce <_ZN5Print5writeEPKc+0x1e>
      return write((const uint8_t *)str, strlen(str));
   d45ba:	f001 faaf 	bl	d5b1c <strlen>
   d45be:	682b      	ldr	r3, [r5, #0]
   d45c0:	4602      	mov	r2, r0
   d45c2:	4621      	mov	r1, r4
   d45c4:	4628      	mov	r0, r5
   d45c6:	68db      	ldr	r3, [r3, #12]
    }
   d45c8:	e8bd 4070 	ldmia.w	sp!, {r4, r5, r6, lr}
    void clearWriteError() { setWriteError(0); }

    virtual size_t write(uint8_t) = 0;
    size_t write(const char *str) {
      if (str == NULL) return 0;
      return write((const uint8_t *)str, strlen(str));
   d45cc:	4718      	bx	r3
    }
   d45ce:	bd70      	pop	{r4, r5, r6, pc}

000d45d0 <_ZN5Print5printEc>:
  return write(str);
}

size_t Print::print(char c)
{
  return write(c);
   d45d0:	6803      	ldr	r3, [r0, #0]
   d45d2:	689b      	ldr	r3, [r3, #8]
   d45d4:	4718      	bx	r3

000d45d6 <_ZN5Print7printlnEv>:
{
  return print(reinterpret_cast<const char*>(str));
}

size_t Print::println(void)
{
   d45d6:	b538      	push	{r3, r4, r5, lr}
  size_t n = print('\r');
   d45d8:	210d      	movs	r1, #13
{
  return print(reinterpret_cast<const char*>(str));
}

size_t Print::println(void)
{
   d45da:	4605      	mov	r5, r0
  size_t n = print('\r');
   d45dc:	f7ff fff8 	bl	d45d0 <_ZN5Print5printEc>
  n += print('\n');
   d45e0:	210a      	movs	r1, #10
  return print(reinterpret_cast<const char*>(str));
}

size_t Print::println(void)
{
  size_t n = print('\r');
   d45e2:	4604      	mov	r4, r0
  n += print('\n');
   d45e4:	4628      	mov	r0, r5
   d45e6:	f7ff fff3 	bl	d45d0 <_ZN5Print5printEc>
  return n;
}
   d45ea:	4420      	add	r0, r4
   d45ec:	bd38      	pop	{r3, r4, r5, pc}

000d45ee <_ZN5Print11printNumberEmh>:
  return println(reinterpret_cast<const char*>(str));
}

// Private Methods /////////////////////////////////////////////////////////////

size_t Print::printNumber(unsigned long n, uint8_t base) {
   d45ee:	b530      	push	{r4, r5, lr}
   d45f0:	b08b      	sub	sp, #44	; 0x2c
   d45f2:	460b      	mov	r3, r1
  char buf[8 * sizeof(long) + 1]; // Assumes 8-bit chars plus zero byte.
  char *str = &buf[sizeof(buf) - 1];

  *str = '\0';
   d45f4:	2100      	movs	r1, #0
   d45f6:	f88d 1024 	strb.w	r1, [sp, #36]	; 0x24

  // prevent crash if called with base == 1
  if (base < 2) base = 10;
   d45fa:	2a01      	cmp	r2, #1
   d45fc:	bf98      	it	ls
   d45fe:	220a      	movls	r2, #10
   d4600:	f10d 0423 	add.w	r4, sp, #35	; 0x23

  do {
    unsigned long m = n;
    n /= base;
   d4604:	fbb3 f5f2 	udiv	r5, r3, r2
    char c = m - base * n;
   d4608:	fb05 3312 	mls	r3, r5, r2, r3
   d460c:	f003 03ff 	and.w	r3, r3, #255	; 0xff
    *--str = c < 10 ? c + '0' : c + 'A' - 10;
   d4610:	2b09      	cmp	r3, #9
   d4612:	bf94      	ite	ls
   d4614:	3330      	addls	r3, #48	; 0x30
   d4616:	3337      	addhi	r3, #55	; 0x37
   d4618:	b2db      	uxtb	r3, r3
   d461a:	4621      	mov	r1, r4
   d461c:	f804 3901 	strb.w	r3, [r4], #-1
   d4620:	462b      	mov	r3, r5
  *str = '\0';

  // prevent crash if called with base == 1
  if (base < 2) base = 10;

  do {
   d4622:	2d00      	cmp	r5, #0
   d4624:	d1ee      	bne.n	d4604 <_ZN5Print11printNumberEmh+0x16>
    n /= base;
    char c = m - base * n;
    *--str = c < 10 ? c + '0' : c + 'A' - 10;
  } while(n);

  return write(str);
   d4626:	f7ff ffc3 	bl	d45b0 <_ZN5Print5writeEPKc>
}
   d462a:	b00b      	add	sp, #44	; 0x2c
   d462c:	bd30      	pop	{r4, r5, pc}

000d462e <_ZN5Print5printEmi>:
    return printNumber(n, base);
  }
}

size_t Print::print(unsigned long n, int base)
{
   d462e:	b410      	push	{r4}
  if (base == 0) return write(n);
   d4630:	b92a      	cbnz	r2, d463e <_ZN5Print5printEmi+0x10>
   d4632:	6803      	ldr	r3, [r0, #0]
  else return printNumber(n, base);
}
   d4634:	f85d 4b04 	ldr.w	r4, [sp], #4
  }
}

size_t Print::print(unsigned long n, int base)
{
  if (base == 0) return write(n);
   d4638:	689b      	ldr	r3, [r3, #8]
   d463a:	b2c9      	uxtb	r1, r1
   d463c:	4718      	bx	r3
  else return printNumber(n, base);
   d463e:	b2d2      	uxtb	r2, r2
}
   d4640:	f85d 4b04 	ldr.w	r4, [sp], #4
}

size_t Print::print(unsigned long n, int base)
{
  if (base == 0) return write(n);
  else return printNumber(n, base);
   d4644:	f7ff bfd3 	b.w	d45ee <_ZN5Print11printNumberEmh>

000d4648 <_ZN5Print5printEhi>:
  return write(c);
}

size_t Print::print(unsigned char b, int base)
{
  return print((unsigned long) b, base);
   d4648:	f7ff bff1 	b.w	d462e <_ZN5Print5printEmi>

000d464c <_ZN5Print11printf_implEbPKcz>:

  return n;
}

size_t Print::printf_impl(bool newline, const char* format, ...)
{
   d464c:	b40c      	push	{r2, r3}
   d464e:	e92d 43f0 	stmdb	sp!, {r4, r5, r6, r7, r8, r9, lr}
   d4652:	b087      	sub	sp, #28
   d4654:	af00      	add	r7, sp, #0
   d4656:	f107 0438 	add.w	r4, r7, #56	; 0x38
   d465a:	4605      	mov	r5, r0
   d465c:	f854 9b04 	ldr.w	r9, [r4], #4
    const int bufsize = 20;
    char test[bufsize];
    va_list marker;
    va_start(marker, format);
   d4660:	603c      	str	r4, [r7, #0]

  return n;
}

size_t Print::printf_impl(bool newline, const char* format, ...)
{
   d4662:	460e      	mov	r6, r1
    const int bufsize = 20;
    char test[bufsize];
    va_list marker;
    va_start(marker, format);
    size_t n = vsnprintf(test, bufsize, format, marker);
   d4664:	4623      	mov	r3, r4
   d4666:	464a      	mov	r2, r9
   d4668:	2114      	movs	r1, #20
   d466a:	1d38      	adds	r0, r7, #4
   d466c:	f7ff ff10 	bl	d4490 <vsnprintf>
    va_end(marker);

    if (n<bufsize)
   d4670:	2813      	cmp	r0, #19
   d4672:	d805      	bhi.n	d4680 <_ZN5Print11printf_implEbPKcz+0x34>
  return n;
}

size_t Print::print(const char str[])
{
  return write(str);
   d4674:	1d39      	adds	r1, r7, #4
   d4676:	4628      	mov	r0, r5
   d4678:	f7ff ff9a 	bl	d45b0 <_ZN5Print5writeEPKc>
   d467c:	4604      	mov	r4, r0
   d467e:	e013      	b.n	d46a8 <_ZN5Print11printf_implEbPKcz+0x5c>
    {
        n = print(test);
    }
    else
    {
        char bigger[n+1];
   d4680:	f100 0308 	add.w	r3, r0, #8
   d4684:	f023 0307 	bic.w	r3, r3, #7
        va_start(marker, format);
        n = vsnprintf(bigger, n+1, format, marker);
        va_end(marker);
        n = print(bigger);
   d4688:	46e8      	mov	r8, sp
    {
        n = print(test);
    }
    else
    {
        char bigger[n+1];
   d468a:	ebad 0d03 	sub.w	sp, sp, r3
        va_start(marker, format);
        n = vsnprintf(bigger, n+1, format, marker);
   d468e:	1c41      	adds	r1, r0, #1
   d4690:	4623      	mov	r3, r4
   d4692:	464a      	mov	r2, r9
   d4694:	4668      	mov	r0, sp
        n = print(test);
    }
    else
    {
        char bigger[n+1];
        va_start(marker, format);
   d4696:	603c      	str	r4, [r7, #0]
        n = vsnprintf(bigger, n+1, format, marker);
   d4698:	f7ff fefa 	bl	d4490 <vsnprintf>
  return n;
}

size_t Print::print(const char str[])
{
  return write(str);
   d469c:	4669      	mov	r1, sp
   d469e:	4628      	mov	r0, r5
   d46a0:	f7ff ff86 	bl	d45b0 <_ZN5Print5writeEPKc>
   d46a4:	4604      	mov	r4, r0
   d46a6:	46c5      	mov	sp, r8
        va_start(marker, format);
        n = vsnprintf(bigger, n+1, format, marker);
        va_end(marker);
        n = print(bigger);
    }
    if (newline)
   d46a8:	b11e      	cbz	r6, d46b2 <_ZN5Print11printf_implEbPKcz+0x66>
        n += println();
   d46aa:	4628      	mov	r0, r5
   d46ac:	f7ff ff93 	bl	d45d6 <_ZN5Print7printlnEv>
   d46b0:	4404      	add	r4, r0
    return n;
}
   d46b2:	4620      	mov	r0, r4
   d46b4:	371c      	adds	r7, #28
   d46b6:	46bd      	mov	sp, r7
   d46b8:	e8bd 43f0 	ldmia.w	sp!, {r4, r5, r6, r7, r8, r9, lr}
   d46bc:	b002      	add	sp, #8
   d46be:	4770      	bx	lr

000d46c0 <_GLOBAL__sub_I__ZN5spark3LogE>:
    // This handler doesn't support direct logging
}

// spark::Logger
inline spark::Logger::Logger(const char *name) :
        name_(name) {
   d46c0:	4b01      	ldr	r3, [pc, #4]	; (d46c8 <_GLOBAL__sub_I__ZN5spark3LogE+0x8>)
   d46c2:	4a02      	ldr	r2, [pc, #8]	; (d46cc <_GLOBAL__sub_I__ZN5spark3LogE+0xc>)
   d46c4:	601a      	str	r2, [r3, #0]
   d46c6:	4770      	bx	lr
   d46c8:	2003e3b4 	.word	0x2003e3b4
   d46cc:	000d5bfb 	.word	0x000d5bfb

000d46d0 <_GLOBAL__sub_I_TIME_FORMAT_DEFAULT>:
            calendar_time_cache = Convert_UnixTime_To_CalendarTime(unix_time);
            unix_time_cache = unix_time;
    }
}

const char* TimeClass::format_spec = TIME_FORMAT_DEFAULT;
   d46d0:	4b02      	ldr	r3, [pc, #8]	; (d46dc <_GLOBAL__sub_I_TIME_FORMAT_DEFAULT+0xc>)
   d46d2:	681a      	ldr	r2, [r3, #0]
   d46d4:	4b02      	ldr	r3, [pc, #8]	; (d46e0 <_GLOBAL__sub_I_TIME_FORMAT_DEFAULT+0x10>)
   d46d6:	601a      	str	r2, [r3, #0]
   d46d8:	4770      	bx	lr
   d46da:	bf00      	nop
   d46dc:	2003e330 	.word	0x2003e330
   d46e0:	2003e3b8 	.word	0x2003e3b8

000d46e4 <delay>:
    return (value - fromStart) * (toEnd - toStart) / (fromEnd - fromStart) + toStart;
}

void delay(unsigned long ms)
{
    system_delay_ms(ms, false);
   d46e4:	2100      	movs	r1, #0
   d46e6:	f7ff be4f 	b.w	d4388 <system_delay_ms>

000d46ea <_ZNSt14_Function_baseD1Ev>:
	}
      };

    _Function_base() : _M_manager(nullptr) { }

    ~_Function_base()
   d46ea:	b510      	push	{r4, lr}
    {
      if (_M_manager)
   d46ec:	6883      	ldr	r3, [r0, #8]
	}
      };

    _Function_base() : _M_manager(nullptr) { }

    ~_Function_base()
   d46ee:	4604      	mov	r4, r0
    {
      if (_M_manager)
   d46f0:	b113      	cbz	r3, d46f8 <_ZNSt14_Function_baseD1Ev+0xe>
	_M_manager(_M_functor, _M_functor, __destroy_functor);
   d46f2:	2203      	movs	r2, #3
   d46f4:	4601      	mov	r1, r0
   d46f6:	4798      	blx	r3
    }
   d46f8:	4620      	mov	r0, r4
   d46fa:	bd10      	pop	{r4, pc}

000d46fc <_ZN8RGBClassD1Ev>:
#include "rgbled.h"

typedef void (raw_rgb_change_handler_t)(uint8_t, uint8_t, uint8_t);
typedef std::function<raw_rgb_change_handler_t> wiring_rgb_change_handler_t;

class RGBClass {
   d46fc:	b510      	push	{r4, lr}
   d46fe:	4604      	mov	r4, r0
   *  @ingroup functors
   *
   *  Polymorphic function wrapper.
   */
  template<typename _Res, typename... _ArgTypes>
    class function<_Res(_ArgTypes...)>
   d4700:	f7ff fff3 	bl	d46ea <_ZNSt14_Function_baseD1Ev>
   d4704:	4620      	mov	r0, r4
   d4706:	bd10      	pop	{r4, pc}

000d4708 <_GLOBAL__sub_I_RGB>:
	{
	  _Base::_M_init_functor(__functor, std::__addressof(__f.get()));
	}
      };

    _Function_base() : _M_manager(nullptr) { }
   d4708:	4803      	ldr	r0, [pc, #12]	; (d4718 <_GLOBAL__sub_I_RGB+0x10>)
#include "spark_wiring_rgb.h"
#include "spark_wiring_interrupts.h"

#include "core_hal.h"

RGBClass RGB;
   d470a:	4a04      	ldr	r2, [pc, #16]	; (d471c <_GLOBAL__sub_I_RGB+0x14>)
   d470c:	4904      	ldr	r1, [pc, #16]	; (d4720 <_GLOBAL__sub_I_RGB+0x18>)
   d470e:	2300      	movs	r3, #0
   d4710:	6083      	str	r3, [r0, #8]
   d4712:	f000 bc4f 	b.w	d4fb4 <__aeabi_atexit>
   d4716:	bf00      	nop
   d4718:	2003e3bc 	.word	0x2003e3bc
   d471c:	2003e398 	.word	0x2003e398
   d4720:	000d46fd 	.word	0x000d46fd

000d4724 <serialEventRun>:

/**
 * Provides background processing of serial data.
 */
void serialEventRun()
{
   d4724:	b508      	push	{r3, lr}
    if (serialEvent && Serial.available()>0)
   d4726:	4b0c      	ldr	r3, [pc, #48]	; (d4758 <serialEventRun+0x34>)
   d4728:	b133      	cbz	r3, d4738 <serialEventRun+0x14>
   d472a:	f000 f939 	bl	d49a0 <_Z16_fetch_usbserialv>
   d472e:	6803      	ldr	r3, [r0, #0]
   d4730:	691b      	ldr	r3, [r3, #16]
   d4732:	4798      	blx	r3
   d4734:	2800      	cmp	r0, #0
   d4736:	dc09      	bgt.n	d474c <serialEventRun+0x28>
        serialEvent();

    if (serialEvent1 && Serial1.available()>0)
   d4738:	4b08      	ldr	r3, [pc, #32]	; (d475c <serialEventRun+0x38>)
   d473a:	b163      	cbz	r3, d4756 <serialEventRun+0x32>
   d473c:	f000 f9fe 	bl	d4b3c <_Z22__fetch_global_Serial1v>
   d4740:	6803      	ldr	r3, [r0, #0]
   d4742:	691b      	ldr	r3, [r3, #16]
   d4744:	4798      	blx	r3
   d4746:	2800      	cmp	r0, #0
   d4748:	dc03      	bgt.n	d4752 <serialEventRun+0x2e>
   d474a:	bd08      	pop	{r3, pc}
 * Provides background processing of serial data.
 */
void serialEventRun()
{
    if (serialEvent && Serial.available()>0)
        serialEvent();
   d474c:	f3af 8000 	nop.w
   d4750:	e7f2      	b.n	d4738 <serialEventRun+0x14>

    if (serialEvent1 && Serial1.available()>0)
        serialEvent1();
   d4752:	f3af 8000 	nop.w
   d4756:	bd08      	pop	{r3, pc}
	...

000d4760 <_post_loop>:
#if Wiring_Serial5
void serialEvent5() __attribute__((weak));
#endif

void _post_loop()
{
   d4760:	b508      	push	{r3, lr}
	serialEventRun();
   d4762:	f7ff ffdf 	bl	d4724 <serialEventRun>
		return !timeout_fn;
	}

	static inline system_tick_t current_time()
	{
		return HAL_Timer_Get_Milli_Seconds();
   d4766:	f7ff fd1f 	bl	d41a8 <HAL_Timer_Get_Milli_Seconds>
	/**
	 * Lifesign that the application is still working normally.
	 */
	static void checkin()
	{
		last_checkin = current_time();
   d476a:	4b01      	ldr	r3, [pc, #4]	; (d4770 <_post_loop+0x10>)
   d476c:	6018      	str	r0, [r3, #0]
   d476e:	bd08      	pop	{r3, pc}
   d4770:	2003e734 	.word	0x2003e734

000d4774 <_Z27ctrl_request_custom_handlerP12ctrl_request>:
bool __backup_ram_was_valid() { return false; }

#endif

// Default handler for CTRL_REQUEST_APP_CUSTOM requests
void __attribute((weak)) ctrl_request_custom_handler(ctrl_request* req) {
   d4774:	b507      	push	{r0, r1, r2, lr}
    system_ctrl_set_result(req, SYSTEM_ERROR_NOT_SUPPORTED, nullptr, nullptr, nullptr);
   d4776:	2300      	movs	r3, #0
   d4778:	9300      	str	r3, [sp, #0]
   d477a:	461a      	mov	r2, r3
   d477c:	f06f 0177 	mvn.w	r1, #119	; 0x77
   d4780:	f7ff fe14 	bl	d43ac <system_ctrl_set_result>
}
   d4784:	b003      	add	sp, #12
   d4786:	f85d fb04 	ldr.w	pc, [sp], #4
	...

000d478c <_ZL20ctrl_request_handlerP12ctrl_request>:
// Callback invoked to process a logging configuration request
void(*log_process_ctrl_request_callback)(ctrl_request* req) = nullptr;
#endif

// Application handler for control requests
static void ctrl_request_handler(ctrl_request* req) {
   d478c:	b507      	push	{r0, r1, r2, lr}
    switch (req->type) {
   d478e:	8843      	ldrh	r3, [r0, #2]
   d4790:	2b0a      	cmp	r3, #10
   d4792:	d008      	beq.n	d47a6 <_ZL20ctrl_request_handlerP12ctrl_request+0x1a>
   d4794:	2b50      	cmp	r3, #80	; 0x50
   d4796:	d109      	bne.n	d47ac <_ZL20ctrl_request_handlerP12ctrl_request+0x20>
#if Wiring_LogConfig
    case CTRL_REQUEST_LOG_CONFIG: {
        if (log_process_ctrl_request_callback) {
   d4798:	4b09      	ldr	r3, [pc, #36]	; (d47c0 <_ZL20ctrl_request_handlerP12ctrl_request+0x34>)
   d479a:	681b      	ldr	r3, [r3, #0]
   d479c:	b13b      	cbz	r3, d47ae <_ZL20ctrl_request_handlerP12ctrl_request+0x22>
    }
    default:
        system_ctrl_set_result(req, SYSTEM_ERROR_NOT_SUPPORTED, nullptr, nullptr, nullptr);
        break;
    }
}
   d479e:	b003      	add	sp, #12
   d47a0:	f85d eb04 	ldr.w	lr, [sp], #4
static void ctrl_request_handler(ctrl_request* req) {
    switch (req->type) {
#if Wiring_LogConfig
    case CTRL_REQUEST_LOG_CONFIG: {
        if (log_process_ctrl_request_callback) {
            log_process_ctrl_request_callback(req);
   d47a4:	4718      	bx	r3
        }
        break;
    }
#endif
    case CTRL_REQUEST_APP_CUSTOM: {
        ctrl_request_custom_handler(req);
   d47a6:	f7ff ffe5 	bl	d4774 <_Z27ctrl_request_custom_handlerP12ctrl_request>
        break;
   d47aa:	e006      	b.n	d47ba <_ZL20ctrl_request_handlerP12ctrl_request+0x2e>
    }
    default:
        system_ctrl_set_result(req, SYSTEM_ERROR_NOT_SUPPORTED, nullptr, nullptr, nullptr);
   d47ac:	2300      	movs	r3, #0
   d47ae:	9300      	str	r3, [sp, #0]
   d47b0:	461a      	mov	r2, r3
   d47b2:	f06f 0177 	mvn.w	r1, #119	; 0x77
   d47b6:	f7ff fdf9 	bl	d43ac <system_ctrl_set_result>
        break;
    }
}
   d47ba:	b003      	add	sp, #12
   d47bc:	f85d fb04 	ldr.w	pc, [sp], #4
   d47c0:	2003e3cc 	.word	0x2003e3cc

000d47c4 <module_user_init_hook>:

void module_user_init_hook()
{
   d47c4:	b510      	push	{r4, lr}
    }
#endif

#if HAL_PLATFORM_RNG
    // Initialize the default stdlib PRNG using hardware RNG as a seed
    const uint32_t seed = HAL_RNG_GetRandomNumber();
   d47c6:	f7ff fce7 	bl	d4198 <HAL_RNG_GetRandomNumber>
   d47ca:	4604      	mov	r4, r0
    srand(seed);
   d47cc:	f001 f97e 	bl	d5acc <srand>

    // If the user defines random_seed_from_cloud, call it with a seed value
    // generated by a hardware RNG as well.
    if (random_seed_from_cloud) {
   d47d0:	4b07      	ldr	r3, [pc, #28]	; (d47f0 <module_user_init_hook+0x2c>)
   d47d2:	b113      	cbz	r3, d47da <module_user_init_hook+0x16>
        random_seed_from_cloud(seed);
   d47d4:	4620      	mov	r0, r4
   d47d6:	f3af 8000 	nop.w
    }
#endif
    // Register the random_seed_from_cloud handler
    spark_set_random_seed_from_cloud_handler(&random_seed_from_cloud, nullptr);
   d47da:	2100      	movs	r1, #0
   d47dc:	4804      	ldr	r0, [pc, #16]	; (d47f0 <module_user_init_hook+0x2c>)
   d47de:	f7ff fe3f 	bl	d4460 <spark_set_random_seed_from_cloud_handler>

    // Register application handler for the control requests
    system_ctrl_set_app_request_handler(ctrl_request_handler, nullptr);
   d47e2:	2100      	movs	r1, #0
   d47e4:	4803      	ldr	r0, [pc, #12]	; (d47f4 <module_user_init_hook+0x30>)
}
   d47e6:	e8bd 4010 	ldmia.w	sp!, {r4, lr}
#endif
    // Register the random_seed_from_cloud handler
    spark_set_random_seed_from_cloud_handler(&random_seed_from_cloud, nullptr);

    // Register application handler for the control requests
    system_ctrl_set_app_request_handler(ctrl_request_handler, nullptr);
   d47ea:	f7ff bdd5 	b.w	d4398 <system_ctrl_set_app_request_handler>
   d47ee:	bf00      	nop
   d47f0:	00000000 	.word	0x00000000
   d47f4:	000d478d 	.word	0x000d478d

000d47f8 <_ZN9IPAddressD1Ev>:
    IPAddress(uint8_t first_octet, uint8_t second_octet, uint8_t third_octet, uint8_t fourth_octet);
    IPAddress(uint32_t address);
    IPAddress(const uint8_t* address);
    IPAddress(const HAL_IPAddress& address);

    virtual ~IPAddress() {}
   d47f8:	4770      	bx	lr

000d47fa <_ZN9IPAddressD0Ev>:
   d47fa:	b510      	push	{r4, lr}
   d47fc:	2118      	movs	r1, #24
   d47fe:	4604      	mov	r4, r0
   d4800:	f000 fbdd 	bl	d4fbe <_ZdlPvj>
   d4804:	4620      	mov	r0, r4
   d4806:	bd10      	pop	{r4, pc}

000d4808 <_ZNK9IPAddress7printToER5Print>:
#endif // Wiring_IPv6
	return address.ipv4==that.address.ipv4;
}

size_t IPAddress::printTo(Print& p) const
{
   d4808:	b5f0      	push	{r4, r5, r6, r7, lr}
#if Wiring_IPv6
#if HAL_USE_INET_HAL_POSIX
	if (address.v==6) {
   d480a:	7d03      	ldrb	r3, [r0, #20]
   d480c:	2b06      	cmp	r3, #6
#endif // Wiring_IPv6
	return address.ipv4==that.address.ipv4;
}

size_t IPAddress::printTo(Print& p) const
{
   d480e:	b08d      	sub	sp, #52	; 0x34
   d4810:	460e      	mov	r6, r1
   d4812:	f100 0704 	add.w	r7, r0, #4
   d4816:	f04f 0400 	mov.w	r4, #0
#if Wiring_IPv6
#if HAL_USE_INET_HAL_POSIX
	if (address.v==6) {
   d481a:	d002      	beq.n	d4822 <_ZNK9IPAddress7printToER5Print+0x1a>
   d481c:	f100 0508 	add.w	r5, r0, #8
   d4820:	e018      	b.n	d4854 <_ZNK9IPAddress7printToER5Print+0x4c>
		char buf[INET6_ADDRSTRLEN+1];
		buf[0] = 0;
   d4822:	ad0c      	add	r5, sp, #48	; 0x30
		inet_inet_ntop(AF_INET6, address.ipv6, buf, sizeof(buf));
   d4824:	4639      	mov	r1, r7
{
#if Wiring_IPv6
#if HAL_USE_INET_HAL_POSIX
	if (address.v==6) {
		char buf[INET6_ADDRSTRLEN+1];
		buf[0] = 0;
   d4826:	f805 4d30 	strb.w	r4, [r5, #-48]!
		inet_inet_ntop(AF_INET6, address.ipv6, buf, sizeof(buf));
   d482a:	232f      	movs	r3, #47	; 0x2f
   d482c:	462a      	mov	r2, r5
   d482e:	200a      	movs	r0, #10
   d4830:	f7ff fcea 	bl	d4208 <inet_inet_ntop>
    void clearWriteError() { setWriteError(0); }

    virtual size_t write(uint8_t) = 0;
    size_t write(const char *str) {
      if (str == NULL) return 0;
      return write((const uint8_t *)str, strlen(str));
   d4834:	4628      	mov	r0, r5
   d4836:	f001 f971 	bl	d5b1c <strlen>
   d483a:	6833      	ldr	r3, [r6, #0]
   d483c:	4602      	mov	r2, r0
   d483e:	68db      	ldr	r3, [r3, #12]
   d4840:	4629      	mov	r1, r5
   d4842:	4630      	mov	r0, r6
   d4844:	4798      	blx	r3
   d4846:	e00f      	b.n	d4868 <_ZNK9IPAddress7printToER5Print+0x60>
#endif // HAL_USE_INET_HAL_POSIX
#endif // Wiring_IPv6
    size_t n = 0;
    for (int i = 0; i < 4; i++)
    {
        if (n)
   d4848:	b124      	cbz	r4, d4854 <_ZNK9IPAddress7printToER5Print+0x4c>
            n += p.print('.');
   d484a:	212e      	movs	r1, #46	; 0x2e
   d484c:	4630      	mov	r0, r6
   d484e:	f7ff febf 	bl	d45d0 <_ZN5Print5printEc>
   d4852:	4404      	add	r4, r0
        n += p.print((*this)[i], DEC);
   d4854:	f815 1d01 	ldrb.w	r1, [r5, #-1]!
   d4858:	220a      	movs	r2, #10
   d485a:	4630      	mov	r0, r6
   d485c:	f7ff fef4 	bl	d4648 <_ZN5Print5printEhi>
#else
#pragma message "HAL_USE_INET_HAL_POSIX is required for IPv6 support in IPAddress::printTo()"
#endif // HAL_USE_INET_HAL_POSIX
#endif // Wiring_IPv6
    size_t n = 0;
    for (int i = 0; i < 4; i++)
   d4860:	42bd      	cmp	r5, r7
    {
        if (n)
            n += p.print('.');
        n += p.print((*this)[i], DEC);
   d4862:	4404      	add	r4, r0
#else
#pragma message "HAL_USE_INET_HAL_POSIX is required for IPv6 support in IPAddress::printTo()"
#endif // HAL_USE_INET_HAL_POSIX
#endif // Wiring_IPv6
    size_t n = 0;
    for (int i = 0; i < 4; i++)
   d4864:	d1f0      	bne.n	d4848 <_ZNK9IPAddress7printToER5Print+0x40>
    {
        if (n)
            n += p.print('.');
        n += p.print((*this)[i], DEC);
   d4866:	4620      	mov	r0, r4
    }
    return n;
}
   d4868:	b00d      	add	sp, #52	; 0x34
   d486a:	bdf0      	pop	{r4, r5, r6, r7, pc}

000d486c <_ZN9IPAddressC1Ev>:

#if HAL_USE_INET_HAL_POSIX
#include <arpa/inet.h>
#endif // HAL_USE_INET_HAL_POSIX

IPAddress::IPAddress()
   d486c:	b510      	push	{r4, lr}
   d486e:	4b05      	ldr	r3, [pc, #20]	; (d4884 <_ZN9IPAddressC1Ev+0x18>)
   d4870:	4604      	mov	r4, r0
        return address;
    }

    virtual size_t printTo(Print& p) const;

    void clear() { memset(&address, 0, sizeof (address)); }
   d4872:	2211      	movs	r2, #17
   d4874:	f840 3b04 	str.w	r3, [r0], #4
   d4878:	2100      	movs	r1, #0
   d487a:	f001 f91e 	bl	d5aba <memset>
{
    clear();
}
   d487e:	4620      	mov	r0, r4
   d4880:	bd10      	pop	{r4, pc}
   d4882:	bf00      	nop
   d4884:	000d5c98 	.word	0x000d5c98

000d4888 <_ZN9IPAddressC1ERK16_HAL_IPAddress_t>:

IPAddress::IPAddress(const HAL_IPAddress& address)
   d4888:	4603      	mov	r3, r0
   d488a:	4a07      	ldr	r2, [pc, #28]	; (d48a8 <_ZN9IPAddressC1ERK16_HAL_IPAddress_t+0x20>)
   d488c:	b510      	push	{r4, lr}
   d488e:	f843 2b04 	str.w	r2, [r3], #4
{
    memcpy(&this->address, &address, sizeof(address));
   d4892:	f101 0210 	add.w	r2, r1, #16
   d4896:	f851 4b04 	ldr.w	r4, [r1], #4
   d489a:	f843 4b04 	str.w	r4, [r3], #4
   d489e:	4291      	cmp	r1, r2
   d48a0:	d1f9      	bne.n	d4896 <_ZN9IPAddressC1ERK16_HAL_IPAddress_t+0xe>
   d48a2:	780a      	ldrb	r2, [r1, #0]
   d48a4:	701a      	strb	r2, [r3, #0]
}
   d48a6:	bd10      	pop	{r4, pc}
   d48a8:	000d5c98 	.word	0x000d5c98

000d48ac <_ZN9IPAddress8set_ipv4Ehhhh>:
    return address.ipv4!=0;
#endif
}

void IPAddress::set_ipv4(uint8_t b0, uint8_t b1, uint8_t b2, uint8_t b3)
{
   d48ac:	b510      	push	{r4, lr}
    address.ipv4 = b0<<24 | b1 << 16 | b2 << 8 | b3;
   d48ae:	f89d 4008 	ldrb.w	r4, [sp, #8]
   d48b2:	ea44 2303 	orr.w	r3, r4, r3, lsl #8
   d48b6:	ea43 4202 	orr.w	r2, r3, r2, lsl #16
   d48ba:	ea42 6101 	orr.w	r1, r2, r1, lsl #24
        return &address;
    }

    inline void setVersion(uint8_t version) {
#if HAL_IPv6
        address.v = version;
   d48be:	2304      	movs	r3, #4
   d48c0:	6041      	str	r1, [r0, #4]
   d48c2:	7503      	strb	r3, [r0, #20]
   d48c4:	bd10      	pop	{r4, pc}

000d48c6 <_ZN9IPAddressaSEPKh>:
    setVersion(4);
}

IPAddress& IPAddress::operator=(const uint8_t* address)
{
   d48c6:	b537      	push	{r0, r1, r2, r4, r5, lr}
    set_ipv4(address[0], address[1], address[2], address[3]);
   d48c8:	780d      	ldrb	r5, [r1, #0]
   d48ca:	788b      	ldrb	r3, [r1, #2]
   d48cc:	784a      	ldrb	r2, [r1, #1]
   d48ce:	78c9      	ldrb	r1, [r1, #3]
   d48d0:	9100      	str	r1, [sp, #0]
   d48d2:	4629      	mov	r1, r5
   d48d4:	f7ff ffea 	bl	d48ac <_ZN9IPAddress8set_ipv4Ehhhh>
    return *this;
}
   d48d8:	b003      	add	sp, #12
   d48da:	bd30      	pop	{r4, r5, pc}

000d48dc <_ZN9USBSerial14blockOnOverrunEb>:
  HAL_USB_USART_Flush_Data(_serial);
}

void USBSerial::blockOnOverrun(bool block)
{
  _blocking = block;
   d48dc:	7441      	strb	r1, [r0, #17]
   d48de:	4770      	bx	lr

000d48e0 <_ZN9USBSerialD1Ev>:
#include "usb_hal.h"
#include "system_task.h"
#include "spark_wiring_startup.h"
#include "concurrent_hal.h"

class USBSerial : public Stream
   d48e0:	4770      	bx	lr

000d48e2 <_ZN9USBSerial4readEv>:
}


// Read data from buffer
int USBSerial::read()
{
   d48e2:	b508      	push	{r3, lr}
	return std::max(-1, (int)HAL_USB_USART_Receive_Data(_serial, false));
   d48e4:	2100      	movs	r1, #0
   d48e6:	7c00      	ldrb	r0, [r0, #16]
   d48e8:	f7ff fd2e 	bl	d4348 <HAL_USB_USART_Receive_Data>
}
   d48ec:	ea30 0020 	bics.w	r0, r0, r0, asr #32
   d48f0:	bf28      	it	cs
   d48f2:	f04f 30ff 	movcs.w	r0, #4294967295
   d48f6:	bd08      	pop	{r3, pc}

000d48f8 <_ZN9USBSerial4peekEv>:
{
  _blocking = block;
}

int USBSerial::peek()
{
   d48f8:	b508      	push	{r3, lr}
	return std::max(-1, (int)HAL_USB_USART_Receive_Data(_serial, true));
   d48fa:	2101      	movs	r1, #1
   d48fc:	7c00      	ldrb	r0, [r0, #16]
   d48fe:	f7ff fd23 	bl	d4348 <HAL_USB_USART_Receive_Data>
}
   d4902:	ea30 0020 	bics.w	r0, r0, r0, asr #32
   d4906:	bf28      	it	cs
   d4908:	f04f 30ff 	movcs.w	r0, #4294967295
   d490c:	bd08      	pop	{r3, pc}

000d490e <_ZN9USBSerial17availableForWriteEv>:
{
	return std::max(-1, (int)HAL_USB_USART_Receive_Data(_serial, false));
}

int USBSerial::availableForWrite()
{
   d490e:	b508      	push	{r3, lr}
  return std::max(0, (int)HAL_USB_USART_Available_Data_For_Write(_serial));
   d4910:	7c00      	ldrb	r0, [r0, #16]
   d4912:	f7ff fd11 	bl	d4338 <HAL_USB_USART_Available_Data_For_Write>
}
   d4916:	ea20 70e0 	bic.w	r0, r0, r0, asr #31
   d491a:	bd08      	pop	{r3, pc}

000d491c <_ZN9USBSerial9availableEv>:

int USBSerial::available()
{
   d491c:	b508      	push	{r3, lr}
	return std::max(0, (int)HAL_USB_USART_Available_Data(_serial));
   d491e:	7c00      	ldrb	r0, [r0, #16]
   d4920:	f7ff fd02 	bl	d4328 <HAL_USB_USART_Available_Data>
}
   d4924:	ea20 70e0 	bic.w	r0, r0, r0, asr #31
   d4928:	bd08      	pop	{r3, pc}

000d492a <_ZN9USBSerial5flushEv>:
  return 0;
}

void USBSerial::flush()
{
  HAL_USB_USART_Flush_Data(_serial);
   d492a:	7c00      	ldrb	r0, [r0, #16]
   d492c:	f7ff bd1c 	b.w	d4368 <HAL_USB_USART_Flush_Data>

000d4930 <_ZN9USBSerialD0Ev>:
   d4930:	b510      	push	{r4, lr}
   d4932:	2114      	movs	r1, #20
   d4934:	4604      	mov	r4, r0
   d4936:	f000 fb42 	bl	d4fbe <_ZdlPvj>
   d493a:	4620      	mov	r0, r4
   d493c:	bd10      	pop	{r4, pc}

000d493e <_ZN9USBSerial5writeEh>:
{
	return std::max(0, (int)HAL_USB_USART_Available_Data(_serial));
}

size_t USBSerial::write(uint8_t byte)
{
   d493e:	b538      	push	{r3, r4, r5, lr}
   d4940:	4604      	mov	r4, r0
  if (HAL_USB_USART_Available_Data_For_Write(_serial) > 0 || _blocking) {
   d4942:	7c00      	ldrb	r0, [r0, #16]
{
	return std::max(0, (int)HAL_USB_USART_Available_Data(_serial));
}

size_t USBSerial::write(uint8_t byte)
{
   d4944:	460d      	mov	r5, r1
  if (HAL_USB_USART_Available_Data_For_Write(_serial) > 0 || _blocking) {
   d4946:	f7ff fcf7 	bl	d4338 <HAL_USB_USART_Available_Data_For_Write>
   d494a:	2800      	cmp	r0, #0
   d494c:	dc01      	bgt.n	d4952 <_ZN9USBSerial5writeEh+0x14>
   d494e:	7c60      	ldrb	r0, [r4, #17]
   d4950:	b128      	cbz	r0, d495e <_ZN9USBSerial5writeEh+0x20>
    return std::max(0, (int)HAL_USB_USART_Send_Data(_serial, byte));
   d4952:	4629      	mov	r1, r5
   d4954:	7c20      	ldrb	r0, [r4, #16]
   d4956:	f7ff fcff 	bl	d4358 <HAL_USB_USART_Send_Data>
   d495a:	ea20 70e0 	bic.w	r0, r0, r0, asr #31
  }
  return 0;
}
   d495e:	bd38      	pop	{r3, r4, r5, pc}

000d4960 <_ZN9USBSerialC1E20HAL_USB_USART_SerialRK20HAL_USB_USART_Config>:

  HAL_USB_USART_Config conf = acquireSerialBuffer();
  HAL_USB_USART_Init(_serial, &conf);
}

USBSerial::USBSerial(HAL_USB_USART_Serial serial, const HAL_USB_USART_Config& conf)
   d4960:	b510      	push	{r4, lr}
   d4962:	4604      	mov	r4, r0
  protected:
    void setWriteError(int err = 1) { write_error = err; }
    size_t printf_impl(bool newline, const char* format, ...);

  public:
    Print() : write_error(0) {}
   d4964:	2300      	movs	r3, #0
   d4966:	6063      	str	r3, [r4, #4]
    virtual int available() = 0;
    virtual int read() = 0;
    virtual int peek() = 0;
    virtual void flush() = 0;

    Stream() {_timeout=1000;}
   d4968:	f44f 737a 	mov.w	r3, #1000	; 0x3e8
   d496c:	60a3      	str	r3, [r4, #8]
   d496e:	4b05      	ldr	r3, [pc, #20]	; (d4984 <_ZN9USBSerialC1E20HAL_USB_USART_SerialRK20HAL_USB_USART_Config+0x24>)
   d4970:	6023      	str	r3, [r4, #0]
{
  _serial = serial;
  _blocking = true;
   d4972:	2301      	movs	r3, #1

  HAL_USB_USART_Config conf = acquireSerialBuffer();
  HAL_USB_USART_Init(_serial, &conf);
}

USBSerial::USBSerial(HAL_USB_USART_Serial serial, const HAL_USB_USART_Config& conf)
   d4974:	4608      	mov	r0, r1
{
  _serial = serial;
   d4976:	7421      	strb	r1, [r4, #16]
  _blocking = true;
   d4978:	7463      	strb	r3, [r4, #17]

  HAL_USB_USART_Init(_serial, &conf);
   d497a:	4611      	mov	r1, r2
   d497c:	f7ff fcc4 	bl	d4308 <HAL_USB_USART_Init>
}
   d4980:	4620      	mov	r0, r4
   d4982:	bd10      	pop	{r4, pc}
   d4984:	000d5cac 	.word	0x000d5cac

000d4988 <_ZN9USBSerial5beginEl>:
// Public methods
//

void USBSerial::begin(long speed)
{
    HAL_USB_USART_Begin(_serial, speed, NULL);
   d4988:	2200      	movs	r2, #0
   d498a:	7c00      	ldrb	r0, [r0, #16]
   d498c:	f7ff bcc4 	b.w	d4318 <HAL_USB_USART_Begin>

000d4990 <_Z19acquireSerialBufferv>:

// Preinstantiate Objects //////////////////////////////////////////////////////
#ifdef SPARK_USB_SERIAL

HAL_USB_USART_Config __attribute__((weak)) acquireSerialBuffer()
{
   d4990:	b510      	push	{r4, lr}
  HAL_USB_USART_Config conf = {0};
   d4992:	2214      	movs	r2, #20

// Preinstantiate Objects //////////////////////////////////////////////////////
#ifdef SPARK_USB_SERIAL

HAL_USB_USART_Config __attribute__((weak)) acquireSerialBuffer()
{
   d4994:	4604      	mov	r4, r0
  HAL_USB_USART_Config conf = {0};
   d4996:	2100      	movs	r1, #0
   d4998:	f001 f88f 	bl	d5aba <memset>
  conf.rx_buffer_size = USB_RX_BUFFER_SIZE;
  conf.tx_buffer_size = USB_TX_BUFFER_SIZE;
#endif

  return conf;
}
   d499c:	4620      	mov	r0, r4
   d499e:	bd10      	pop	{r4, pc}

000d49a0 <_Z16_fetch_usbserialv>:

USBSerial& _fetch_usbserial()
{
   d49a0:	b530      	push	{r4, r5, lr}
  HAL_USB_USART_Config conf = acquireSerialBuffer();
	static USBSerial _usbserial(HAL_USB_USART_SERIAL, conf);
   d49a2:	4d0e      	ldr	r5, [pc, #56]	; (d49dc <_Z16_fetch_usbserialv+0x3c>)

  return conf;
}

USBSerial& _fetch_usbserial()
{
   d49a4:	b087      	sub	sp, #28
  HAL_USB_USART_Config conf = acquireSerialBuffer();
   d49a6:	a801      	add	r0, sp, #4
   d49a8:	f7ff fff2 	bl	d4990 <_Z19acquireSerialBufferv>
	static USBSerial _usbserial(HAL_USB_USART_SERIAL, conf);
   d49ac:	6829      	ldr	r1, [r5, #0]
   d49ae:	f011 0401 	ands.w	r4, r1, #1
   d49b2:	d110      	bne.n	d49d6 <_Z16_fetch_usbserialv+0x36>
   d49b4:	4628      	mov	r0, r5
   d49b6:	f7ff fb74 	bl	d40a2 <__cxa_guard_acquire>
   d49ba:	b160      	cbz	r0, d49d6 <_Z16_fetch_usbserialv+0x36>
   d49bc:	aa01      	add	r2, sp, #4
   d49be:	4621      	mov	r1, r4
   d49c0:	4807      	ldr	r0, [pc, #28]	; (d49e0 <_Z16_fetch_usbserialv+0x40>)
   d49c2:	f7ff ffcd 	bl	d4960 <_ZN9USBSerialC1E20HAL_USB_USART_SerialRK20HAL_USB_USART_Config>
   d49c6:	4628      	mov	r0, r5
   d49c8:	f7ff fb70 	bl	d40ac <__cxa_guard_release>
   d49cc:	4a05      	ldr	r2, [pc, #20]	; (d49e4 <_Z16_fetch_usbserialv+0x44>)
   d49ce:	4906      	ldr	r1, [pc, #24]	; (d49e8 <_Z16_fetch_usbserialv+0x48>)
   d49d0:	4803      	ldr	r0, [pc, #12]	; (d49e0 <_Z16_fetch_usbserialv+0x40>)
   d49d2:	f000 faef 	bl	d4fb4 <__aeabi_atexit>
	return _usbserial;
}
   d49d6:	4802      	ldr	r0, [pc, #8]	; (d49e0 <_Z16_fetch_usbserialv+0x40>)
   d49d8:	b007      	add	sp, #28
   d49da:	bd30      	pop	{r4, r5, pc}
   d49dc:	2003e3d0 	.word	0x2003e3d0
   d49e0:	2003e3d4 	.word	0x2003e3d4
   d49e4:	2003e398 	.word	0x2003e398
   d49e8:	000d48e1 	.word	0x000d48e1

000d49ec <_ZN5spark13CellularClass5readyEv>:
        return network_listening(*this, 0, NULL);
    }

    bool ready()
    {
        return network_ready(*this, 0,  NULL);
   d49ec:	2200      	movs	r2, #0
   d49ee:	4611      	mov	r1, r2
   d49f0:	6840      	ldr	r0, [r0, #4]
   d49f2:	f7ff bcfd 	b.w	d43f0 <network_ready>

000d49f6 <_ZN5spark13CellularClass9listeningEv>:
    uint16_t getListenTimeout(void) {
        return network_get_listen_timeout(*this, 0, NULL);
    }

    bool listening(void) {
        return network_listening(*this, 0, NULL);
   d49f6:	2200      	movs	r2, #0
   d49f8:	4611      	mov	r1, r2
   d49fa:	6840      	ldr	r0, [r0, #4]
   d49fc:	f7ff bd18 	b.w	d4430 <network_listening>

000d4a00 <_ZN5spark13CellularClass16getListenTimeoutEv>:
    void setListenTimeout(uint16_t timeout) {
        network_set_listen_timeout(*this, timeout, NULL);
    }

    uint16_t getListenTimeout(void) {
        return network_get_listen_timeout(*this, 0, NULL);
   d4a00:	2200      	movs	r2, #0
   d4a02:	4611      	mov	r1, r2
   d4a04:	6840      	ldr	r0, [r0, #4]
   d4a06:	f7ff bd23 	b.w	d4450 <network_get_listen_timeout>

000d4a0a <_ZN5spark13CellularClass16setListenTimeoutEt>:
    void listen(bool begin=true) {
        network_listen(*this, begin ? 0 : 1, NULL);
    }

    void setListenTimeout(uint16_t timeout) {
        network_set_listen_timeout(*this, timeout, NULL);
   d4a0a:	2200      	movs	r2, #0
   d4a0c:	6840      	ldr	r0, [r0, #4]
   d4a0e:	f7ff bd17 	b.w	d4440 <network_set_listen_timeout>

000d4a12 <_ZN5spark13CellularClass6listenEb>:
        cellular_credentials_clear(nullptr);
    }
#endif // HAL_PLATFORM_MESH

    void listen(bool begin=true) {
        network_listen(*this, begin ? 0 : 1, NULL);
   d4a12:	2200      	movs	r2, #0
   d4a14:	f081 0101 	eor.w	r1, r1, #1
   d4a18:	6840      	ldr	r0, [r0, #4]
   d4a1a:	f7ff bd01 	b.w	d4420 <network_listen>

000d4a1e <_ZN5spark13CellularClass3offEv>:
    }
    void on() {
        network_on(*this, 0, 0, NULL);
    }
    void off() {
        network_off(*this, 0, 0, NULL);
   d4a1e:	2300      	movs	r3, #0
   d4a20:	461a      	mov	r2, r3
   d4a22:	4619      	mov	r1, r3
   d4a24:	6840      	ldr	r0, [r0, #4]
   d4a26:	f7ff bcf3 	b.w	d4410 <network_off>

000d4a2a <_ZN5spark13CellularClass2onEv>:

    IPAddress localIP() {
        return IPAddress(((CellularConfig*)network_config(*this, 0, NULL))->nw.aucIP);
    }
    void on() {
        network_on(*this, 0, 0, NULL);
   d4a2a:	2300      	movs	r3, #0
   d4a2c:	461a      	mov	r2, r3
   d4a2e:	4619      	mov	r1, r3
   d4a30:	6840      	ldr	r0, [r0, #4]
   d4a32:	f7ff bce5 	b.w	d4400 <network_on>

000d4a36 <_ZN5spark13CellularClass10connectingEv>:
    }
    void connect(unsigned flags=0) {
        network_connect(*this, flags, 0, NULL);
    }
    bool connecting(void) {
        return network_connecting(*this, 0, NULL);
   d4a36:	2200      	movs	r2, #0
   d4a38:	4611      	mov	r1, r2
   d4a3a:	6840      	ldr	r0, [r0, #4]
   d4a3c:	f7ff bcc8 	b.w	d43d0 <network_connecting>

000d4a40 <_ZN5spark13CellularClass10disconnectEv>:
    }

    void disconnect() {
        network_disconnect(*this, NETWORK_DISCONNECT_REASON_USER, NULL);
   d4a40:	2200      	movs	r2, #0
   d4a42:	2102      	movs	r1, #2
   d4a44:	6840      	ldr	r0, [r0, #4]
   d4a46:	f7ff bccb 	b.w	d43e0 <network_disconnect>

000d4a4a <_ZN5spark13CellularClass7connectEj>:
    }
    void off() {
        network_off(*this, 0, 0, NULL);
    }
    void connect(unsigned flags=0) {
        network_connect(*this, flags, 0, NULL);
   d4a4a:	2300      	movs	r3, #0
   d4a4c:	461a      	mov	r2, r3
   d4a4e:	6840      	ldr	r0, [r0, #4]
   d4a50:	f7ff bcb6 	b.w	d43c0 <network_connect>

000d4a54 <_GLOBAL__sub_I__ZN5spark13CellularClass4RSSIEv>:
        return (band_get.ok = true);
    }

    CellularClass Cellular;
    // NetworkClass& Network = Cellular;
}
   d4a54:	b538      	push	{r3, r4, r5, lr}
    int tx_total;
    int rx_total;

    CellularDataHal()
    {
        memset(this, 0, sizeof(*this));
   d4a56:	4c08      	ldr	r4, [pc, #32]	; (d4a78 <_GLOBAL__sub_I__ZN5spark13CellularClass4RSSIEv+0x24>)
   d4a58:	2528      	movs	r5, #40	; 0x28
   d4a5a:	462a      	mov	r2, r5
   d4a5c:	2100      	movs	r1, #0
   d4a5e:	4620      	mov	r0, r4
   d4a60:	f001 f82b 	bl	d5aba <memset>
        cid = -1;
   d4a64:	f04f 33ff 	mov.w	r3, #4294967295
   d4a68:	6063      	str	r3, [r4, #4]
   d4a6a:	4b04      	ldr	r3, [pc, #16]	; (d4a7c <_GLOBAL__sub_I__ZN5spark13CellularClass4RSSIEv+0x28>)
        size = sizeof(*this);
   d4a6c:	8025      	strh	r5, [r4, #0]
   d4a6e:	2204      	movs	r2, #4
   d4a70:	605a      	str	r2, [r3, #4]

class CellularClass : public NetworkClass
{
public:
    CellularClass() :
            NetworkClass(NETWORK_INTERFACE_CELLULAR) {
   d4a72:	4a03      	ldr	r2, [pc, #12]	; (d4a80 <_GLOBAL__sub_I__ZN5spark13CellularClass4RSSIEv+0x2c>)
   d4a74:	601a      	str	r2, [r3, #0]
   d4a76:	bd38      	pop	{r3, r4, r5, pc}
   d4a78:	2003e3f0 	.word	0x2003e3f0
   d4a7c:	2003e3e8 	.word	0x2003e3e8
   d4a80:	000d5cdc 	.word	0x000d5cdc

000d4a84 <_ZN11USARTSerialD1Ev>:
private:
  HAL_USART_Serial _serial;
  bool _blocking;
public:
  USARTSerial(HAL_USART_Serial serial, Ring_Buffer *rx_buffer, Ring_Buffer *tx_buffer);
  virtual ~USARTSerial() {};
   d4a84:	4770      	bx	lr

000d4a86 <_ZN11USARTSerial14blockOnOverrunEb>:
    HAL_USART_Half_Duplex(_serial, Enable);
}

void USARTSerial::blockOnOverrun(bool block)
{
  _blocking = block;
   d4a86:	7441      	strb	r1, [r0, #17]
   d4a88:	4770      	bx	lr

000d4a8a <_ZN11USARTSerial17availableForWriteEv>:
}


int USARTSerial::availableForWrite(void)
{
   d4a8a:	b508      	push	{r3, lr}
  return std::max(0, (int)HAL_USART_Available_Data_For_Write(_serial));
   d4a8c:	7c00      	ldrb	r0, [r0, #16]
   d4a8e:	f7ff fbfb 	bl	d4288 <HAL_USART_Available_Data_For_Write>
}
   d4a92:	ea20 70e0 	bic.w	r0, r0, r0, asr #31
   d4a96:	bd08      	pop	{r3, pc}

000d4a98 <_ZN11USARTSerial9availableEv>:

int USARTSerial::available(void)
{
   d4a98:	b508      	push	{r3, lr}
  return std::max(0, (int)HAL_USART_Available_Data(_serial));
   d4a9a:	7c00      	ldrb	r0, [r0, #16]
   d4a9c:	f7ff fbcc 	bl	d4238 <HAL_USART_Available_Data>
}
   d4aa0:	ea20 70e0 	bic.w	r0, r0, r0, asr #31
   d4aa4:	bd08      	pop	{r3, pc}

000d4aa6 <_ZN11USARTSerial4peekEv>:

int USARTSerial::peek(void)
{
   d4aa6:	b508      	push	{r3, lr}
  return std::max(-1, (int)HAL_USART_Peek_Data(_serial));
   d4aa8:	7c00      	ldrb	r0, [r0, #16]
   d4aaa:	f7ff fbd5 	bl	d4258 <HAL_USART_Peek_Data>
}
   d4aae:	ea30 0020 	bics.w	r0, r0, r0, asr #32
   d4ab2:	bf28      	it	cs
   d4ab4:	f04f 30ff 	movcs.w	r0, #4294967295
   d4ab8:	bd08      	pop	{r3, pc}

000d4aba <_ZN11USARTSerial4readEv>:

int USARTSerial::read(void)
{
   d4aba:	b508      	push	{r3, lr}
  return std::max(-1, (int)HAL_USART_Read_Data(_serial));
   d4abc:	7c00      	ldrb	r0, [r0, #16]
   d4abe:	f7ff fbc3 	bl	d4248 <HAL_USART_Read_Data>
}
   d4ac2:	ea30 0020 	bics.w	r0, r0, r0, asr #32
   d4ac6:	bf28      	it	cs
   d4ac8:	f04f 30ff 	movcs.w	r0, #4294967295
   d4acc:	bd08      	pop	{r3, pc}

000d4ace <_ZN11USARTSerial5flushEv>:

void USARTSerial::flush()
{
  HAL_USART_Flush_Data(_serial);
   d4ace:	7c00      	ldrb	r0, [r0, #16]
   d4ad0:	f7ff bbca 	b.w	d4268 <HAL_USART_Flush_Data>

000d4ad4 <_ZN11USARTSerialD0Ev>:
   d4ad4:	b510      	push	{r4, lr}
   d4ad6:	2114      	movs	r1, #20
   d4ad8:	4604      	mov	r4, r0
   d4ada:	f000 fa70 	bl	d4fbe <_ZdlPvj>
   d4ade:	4620      	mov	r0, r4
   d4ae0:	bd10      	pop	{r4, pc}

000d4ae2 <_ZN11USARTSerial5writeEh>:
}

size_t USARTSerial::write(uint8_t c)
{
   d4ae2:	b570      	push	{r4, r5, r6, lr}
  // attempt a write if blocking, or for non-blocking if there is room.
  if (_blocking || HAL_USART_Available_Data_For_Write(_serial) > 0) {
   d4ae4:	7c45      	ldrb	r5, [r0, #17]
{
  HAL_USART_Flush_Data(_serial);
}

size_t USARTSerial::write(uint8_t c)
{
   d4ae6:	4604      	mov	r4, r0
   d4ae8:	460e      	mov	r6, r1
  // attempt a write if blocking, or for non-blocking if there is room.
  if (_blocking || HAL_USART_Available_Data_For_Write(_serial) > 0) {
   d4aea:	b925      	cbnz	r5, d4af6 <_ZN11USARTSerial5writeEh+0x14>
   d4aec:	7c00      	ldrb	r0, [r0, #16]
   d4aee:	f7ff fbcb 	bl	d4288 <HAL_USART_Available_Data_For_Write>
   d4af2:	2800      	cmp	r0, #0
   d4af4:	dd05      	ble.n	d4b02 <_ZN11USARTSerial5writeEh+0x20>
    // the HAL always blocks.
	  return HAL_USART_Write_Data(_serial, c);
   d4af6:	4631      	mov	r1, r6
   d4af8:	7c20      	ldrb	r0, [r4, #16]
  }
  return 0;
}
   d4afa:	e8bd 4070 	ldmia.w	sp!, {r4, r5, r6, lr}
size_t USARTSerial::write(uint8_t c)
{
  // attempt a write if blocking, or for non-blocking if there is room.
  if (_blocking || HAL_USART_Available_Data_For_Write(_serial) > 0) {
    // the HAL always blocks.
	  return HAL_USART_Write_Data(_serial, c);
   d4afe:	f7ff bb93 	b.w	d4228 <HAL_USART_Write_Data>
  }
  return 0;
}
   d4b02:	4628      	mov	r0, r5
   d4b04:	bd70      	pop	{r4, r5, r6, pc}
	...

000d4b08 <_ZN11USARTSerialC1E16HAL_USART_SerialP11Ring_BufferS2_>:
#include "spark_wiring_constants.h"
#include "module_info.h"

// Constructors ////////////////////////////////////////////////////////////////

USARTSerial::USARTSerial(HAL_USART_Serial serial, Ring_Buffer *rx_buffer, Ring_Buffer *tx_buffer)
   d4b08:	b510      	push	{r4, lr}
   d4b0a:	4604      	mov	r4, r0
   d4b0c:	4608      	mov	r0, r1
   d4b0e:	4611      	mov	r1, r2
   d4b10:	2200      	movs	r2, #0
   d4b12:	6062      	str	r2, [r4, #4]
   d4b14:	f44f 727a 	mov.w	r2, #1000	; 0x3e8
   d4b18:	60a2      	str	r2, [r4, #8]
   d4b1a:	4a05      	ldr	r2, [pc, #20]	; (d4b30 <_ZN11USARTSerialC1E16HAL_USART_SerialP11Ring_BufferS2_+0x28>)
   d4b1c:	6022      	str	r2, [r4, #0]
{
  _serial = serial;
  // Default is blocking mode
  _blocking = true;
   d4b1e:	2201      	movs	r2, #1

// Constructors ////////////////////////////////////////////////////////////////

USARTSerial::USARTSerial(HAL_USART_Serial serial, Ring_Buffer *rx_buffer, Ring_Buffer *tx_buffer)
{
  _serial = serial;
   d4b20:	7420      	strb	r0, [r4, #16]
  // Default is blocking mode
  _blocking = true;
   d4b22:	7462      	strb	r2, [r4, #17]
  HAL_USART_Init(serial, rx_buffer, tx_buffer);
   d4b24:	461a      	mov	r2, r3
   d4b26:	f7ff fb77 	bl	d4218 <HAL_USART_Init>
}
   d4b2a:	4620      	mov	r0, r4
   d4b2c:	bd10      	pop	{r4, pc}
   d4b2e:	bf00      	nop
   d4b30:	000d5d10 	.word	0x000d5d10

000d4b34 <_ZN11USARTSerial9isEnabledEv>:
USARTSerial::operator bool() {
  return true;
}

bool USARTSerial::isEnabled() {
  return HAL_USART_Is_Enabled(_serial);
   d4b34:	7c00      	ldrb	r0, [r0, #16]
   d4b36:	f7ff bb9f 	b.w	d4278 <HAL_USART_Is_Enabled>
	...

000d4b3c <_Z22__fetch_global_Serial1v>:
static Ring_Buffer* serial1_rx_buffer = NULL;
static Ring_Buffer* serial1_tx_buffer = NULL;
#endif

USARTSerial& __fetch_global_Serial1()
{
   d4b3c:	b538      	push	{r3, r4, r5, lr}
#if ((MODULE_FUNCTION == MOD_FUNC_USER_PART) || (MODULE_FUNCTION == MOD_FUNC_MONO_FIRMWARE))
	static USARTSerial serial1(HAL_USART_SERIAL1, &serial1_rx_buffer, &serial1_tx_buffer);
   d4b3e:	4d0c      	ldr	r5, [pc, #48]	; (d4b70 <_Z22__fetch_global_Serial1v+0x34>)
   d4b40:	6829      	ldr	r1, [r5, #0]
   d4b42:	f011 0401 	ands.w	r4, r1, #1
   d4b46:	d111      	bne.n	d4b6c <_Z22__fetch_global_Serial1v+0x30>
   d4b48:	4628      	mov	r0, r5
   d4b4a:	f7ff faaa 	bl	d40a2 <__cxa_guard_acquire>
   d4b4e:	b168      	cbz	r0, d4b6c <_Z22__fetch_global_Serial1v+0x30>
   d4b50:	4a08      	ldr	r2, [pc, #32]	; (d4b74 <_Z22__fetch_global_Serial1v+0x38>)
   d4b52:	4b09      	ldr	r3, [pc, #36]	; (d4b78 <_Z22__fetch_global_Serial1v+0x3c>)
   d4b54:	4809      	ldr	r0, [pc, #36]	; (d4b7c <_Z22__fetch_global_Serial1v+0x40>)
   d4b56:	4621      	mov	r1, r4
   d4b58:	f7ff ffd6 	bl	d4b08 <_ZN11USARTSerialC1E16HAL_USART_SerialP11Ring_BufferS2_>
   d4b5c:	4628      	mov	r0, r5
   d4b5e:	f7ff faa5 	bl	d40ac <__cxa_guard_release>
   d4b62:	4a07      	ldr	r2, [pc, #28]	; (d4b80 <_Z22__fetch_global_Serial1v+0x44>)
   d4b64:	4907      	ldr	r1, [pc, #28]	; (d4b84 <_Z22__fetch_global_Serial1v+0x48>)
   d4b66:	4805      	ldr	r0, [pc, #20]	; (d4b7c <_Z22__fetch_global_Serial1v+0x40>)
   d4b68:	f000 fa24 	bl	d4fb4 <__aeabi_atexit>
    serial1_tx_buffer = new Ring_Buffer();
  }
  static USARTSerial serial1(HAL_USART_SERIAL1, serial1_rx_buffer, serial1_tx_buffer);
#endif
	return serial1;
}
   d4b6c:	4803      	ldr	r0, [pc, #12]	; (d4b7c <_Z22__fetch_global_Serial1v+0x40>)
   d4b6e:	bd38      	pop	{r3, r4, r5, pc}
   d4b70:	2003e4b0 	.word	0x2003e4b0
   d4b74:	2003e4b4 	.word	0x2003e4b4
   d4b78:	2003e42c 	.word	0x2003e42c
   d4b7c:	2003e418 	.word	0x2003e418
   d4b80:	2003e398 	.word	0x2003e398
   d4b84:	000d4a85 	.word	0x000d4a85

000d4b88 <_ZN7TwoWireD1Ev>:
private:
  HAL_I2C_Interface _i2c;

public:
  TwoWire(HAL_I2C_Interface i2c);
  virtual ~TwoWire() {};
   d4b88:	4770      	bx	lr

000d4b8a <_ZN7TwoWire5writeEPKhj>:

// must be called in:
// slave tx event callback
// or after beginTransmission(address)
size_t TwoWire::write(const uint8_t *data, size_t quantity)
{
   d4b8a:	b5f8      	push	{r3, r4, r5, r6, r7, lr}
   d4b8c:	4606      	mov	r6, r0
   d4b8e:	4615      	mov	r5, r2
   d4b90:	460c      	mov	r4, r1
   d4b92:	188f      	adds	r7, r1, r2
  // in master/slave transmitter mode
  for(size_t i = 0; i < quantity; ++i)
   d4b94:	42bc      	cmp	r4, r7
   d4b96:	d006      	beq.n	d4ba6 <_ZN7TwoWire5writeEPKhj+0x1c>
  {
    write(data[i]);
   d4b98:	6833      	ldr	r3, [r6, #0]
   d4b9a:	f814 1b01 	ldrb.w	r1, [r4], #1
   d4b9e:	689b      	ldr	r3, [r3, #8]
   d4ba0:	4630      	mov	r0, r6
   d4ba2:	4798      	blx	r3
// slave tx event callback
// or after beginTransmission(address)
size_t TwoWire::write(const uint8_t *data, size_t quantity)
{
  // in master/slave transmitter mode
  for(size_t i = 0; i < quantity; ++i)
   d4ba4:	e7f6      	b.n	d4b94 <_ZN7TwoWire5writeEPKhj+0xa>
  {
    write(data[i]);
  }

  return quantity;
}
   d4ba6:	4628      	mov	r0, r5
   d4ba8:	bdf8      	pop	{r3, r4, r5, r6, r7, pc}

000d4baa <_ZN7TwoWire5writeEh>:
// must be called in:
// slave tx event callback
// or after beginTransmission(address)
size_t TwoWire::write(uint8_t data)
{
  return HAL_I2C_Write_Data(_i2c, data, NULL);
   d4baa:	2200      	movs	r2, #0
   d4bac:	7c00      	ldrb	r0, [r0, #16]
   d4bae:	f7ff bb73 	b.w	d4298 <HAL_I2C_Write_Data>

000d4bb2 <_ZN7TwoWire9availableEv>:
// must be called in:
// slave rx event callback
// or after requestFrom(address, numBytes)
int TwoWire::available(void)
{
  return HAL_I2C_Available_Data(_i2c, NULL);
   d4bb2:	2100      	movs	r1, #0
   d4bb4:	7c00      	ldrb	r0, [r0, #16]
   d4bb6:	f7ff bb77 	b.w	d42a8 <HAL_I2C_Available_Data>

000d4bba <_ZN7TwoWire4readEv>:
// must be called in:
// slave rx event callback
// or after requestFrom(address, numBytes)
int TwoWire::read(void)
{
  return HAL_I2C_Read_Data(_i2c, NULL);
   d4bba:	2100      	movs	r1, #0
   d4bbc:	7c00      	ldrb	r0, [r0, #16]
   d4bbe:	f7ff bb7b 	b.w	d42b8 <HAL_I2C_Read_Data>

000d4bc2 <_ZN7TwoWire4peekEv>:
// must be called in:
// slave rx event callback
// or after requestFrom(address, numBytes)
int TwoWire::peek(void)
{
  return HAL_I2C_Peek_Data(_i2c, NULL);
   d4bc2:	2100      	movs	r1, #0
   d4bc4:	7c00      	ldrb	r0, [r0, #16]
   d4bc6:	f7ff bb7f 	b.w	d42c8 <HAL_I2C_Peek_Data>

000d4bca <_ZN7TwoWire5flushEv>:
}

void TwoWire::flush(void)
{
  HAL_I2C_Flush_Data(_i2c, NULL);
   d4bca:	2100      	movs	r1, #0
   d4bcc:	7c00      	ldrb	r0, [r0, #16]
   d4bce:	f7ff bb83 	b.w	d42d8 <HAL_I2C_Flush_Data>

000d4bd2 <_ZN7TwoWireD0Ev>:
   d4bd2:	b510      	push	{r4, lr}
   d4bd4:	2114      	movs	r1, #20
   d4bd6:	4604      	mov	r4, r0
   d4bd8:	f000 f9f1 	bl	d4fbe <_ZdlPvj>
   d4bdc:	4620      	mov	r0, r4
   d4bde:	bd10      	pop	{r4, pc}

000d4be0 <_ZN7TwoWireC1E17HAL_I2C_Interface>:
#include "i2c_hal.h"
#include "spark_wiring_thread.h"

// Constructors ////////////////////////////////////////////////////////////////

TwoWire::TwoWire(HAL_I2C_Interface i2c)
   d4be0:	b510      	push	{r4, lr}
   d4be2:	4604      	mov	r4, r0
   d4be4:	f44f 737a 	mov.w	r3, #1000	; 0x3e8
   d4be8:	4608      	mov	r0, r1
   d4bea:	60a3      	str	r3, [r4, #8]
   d4bec:	2100      	movs	r1, #0
   d4bee:	4b04      	ldr	r3, [pc, #16]	; (d4c00 <_ZN7TwoWireC1E17HAL_I2C_Interface+0x20>)
{
  _i2c = i2c;
   d4bf0:	7420      	strb	r0, [r4, #16]
   d4bf2:	6061      	str	r1, [r4, #4]
#include "i2c_hal.h"
#include "spark_wiring_thread.h"

// Constructors ////////////////////////////////////////////////////////////////

TwoWire::TwoWire(HAL_I2C_Interface i2c)
   d4bf4:	6023      	str	r3, [r4, #0]
{
  _i2c = i2c;
  HAL_I2C_Init(_i2c, NULL);
   d4bf6:	f7ff fb7f 	bl	d42f8 <HAL_I2C_Init>

}
   d4bfa:	4620      	mov	r0, r4
   d4bfc:	bd10      	pop	{r4, pc}
   d4bfe:	bf00      	nop
   d4c00:	000d5d40 	.word	0x000d5d40

000d4c04 <_ZN7TwoWire9isEnabledEv>:
  HAL_I2C_Set_Callback_On_Request(_i2c, function, NULL);
}

bool TwoWire::isEnabled()
{
  return HAL_I2C_Is_Enabled(_i2c, NULL);
   d4c04:	2100      	movs	r1, #0
   d4c06:	7c00      	ldrb	r0, [r0, #16]
   d4c08:	f7ff bb6e 	b.w	d42e8 <HAL_I2C_Is_Enabled>

000d4c0c <_ZN5spark9MeshClass9listeningEv>:
    uint16_t getListenTimeout(void) {
        return network_get_listen_timeout(*this, 0, NULL);
    }

    bool listening(void) {
        return network_listening(*this, 0, NULL);
   d4c0c:	2200      	movs	r2, #0
   d4c0e:	4611      	mov	r1, r2
   d4c10:	6840      	ldr	r0, [r0, #4]
   d4c12:	f7ff bc0d 	b.w	d4430 <network_listening>

000d4c16 <_ZN5spark9MeshClass16getListenTimeoutEv>:
    void setListenTimeout(uint16_t timeout) {
        network_set_listen_timeout(*this, timeout, NULL);
    }

    uint16_t getListenTimeout(void) {
        return network_get_listen_timeout(*this, 0, NULL);
   d4c16:	2200      	movs	r2, #0
   d4c18:	4611      	mov	r1, r2
   d4c1a:	6840      	ldr	r0, [r0, #4]
   d4c1c:	f7ff bc18 	b.w	d4450 <network_get_listen_timeout>

000d4c20 <_ZN5spark9MeshClass16setListenTimeoutEt>:
    void listen(bool begin=true) {
        network_listen(*this, begin ? 0 : 1, NULL);
    }

    void setListenTimeout(uint16_t timeout) {
        network_set_listen_timeout(*this, timeout, NULL);
   d4c20:	2200      	movs	r2, #0
   d4c22:	6840      	ldr	r0, [r0, #4]
   d4c24:	f7ff bc0c 	b.w	d4440 <network_set_listen_timeout>

000d4c28 <_ZN5spark9MeshClass6listenEb>:
    void disconnect() {
        network_disconnect(*this, NETWORK_DISCONNECT_REASON_USER, NULL);
    }

    void listen(bool begin=true) {
        network_listen(*this, begin ? 0 : 1, NULL);
   d4c28:	2200      	movs	r2, #0
   d4c2a:	f081 0101 	eor.w	r1, r1, #1
   d4c2e:	6840      	ldr	r0, [r0, #4]
   d4c30:	f7ff bbf6 	b.w	d4420 <network_listen>

000d4c34 <_ZN5spark9MeshClass3offEv>:
    void on() {
        network_on(*this, 0, 0, NULL);
    }

    void off() {
        network_off(*this, 1, 0, NULL);
   d4c34:	2300      	movs	r3, #0
   d4c36:	461a      	mov	r2, r3
   d4c38:	2101      	movs	r1, #1
   d4c3a:	6840      	ldr	r0, [r0, #4]
   d4c3c:	f7ff bbe8 	b.w	d4410 <network_off>

000d4c40 <_ZN5spark9MeshClass2onEv>:
    MeshClass() :
            NetworkClass(NETWORK_INTERFACE_MESH) {
    }

    void on() {
        network_on(*this, 0, 0, NULL);
   d4c40:	2300      	movs	r3, #0
   d4c42:	461a      	mov	r2, r3
   d4c44:	4619      	mov	r1, r3
   d4c46:	6840      	ldr	r0, [r0, #4]
   d4c48:	f7ff bbda 	b.w	d4400 <network_on>

000d4c4c <_ZN5spark9MeshClass5readyEv>:
    bool listening(void) {
        return network_listening(*this, 0, NULL);
    }

    bool ready() {
        return network_ready(*this, 0,  NULL);
   d4c4c:	2200      	movs	r2, #0
   d4c4e:	4611      	mov	r1, r2
   d4c50:	6840      	ldr	r0, [r0, #4]
   d4c52:	f7ff bbcd 	b.w	d43f0 <network_ready>

000d4c56 <_ZN5spark9MeshClass10connectingEv>:
    void connect(unsigned flags=0) {
        network_connect(*this, flags, 0, NULL);
    }

    bool connecting(void) {
        return network_connecting(*this, 0, NULL);
   d4c56:	2200      	movs	r2, #0
   d4c58:	4611      	mov	r1, r2
   d4c5a:	6840      	ldr	r0, [r0, #4]
   d4c5c:	f7ff bbb8 	b.w	d43d0 <network_connecting>

000d4c60 <_ZN5spark9MeshClass10disconnectEv>:
    }

    void disconnect() {
        network_disconnect(*this, NETWORK_DISCONNECT_REASON_USER, NULL);
   d4c60:	2200      	movs	r2, #0
   d4c62:	2102      	movs	r1, #2
   d4c64:	6840      	ldr	r0, [r0, #4]
   d4c66:	f7ff bbbb 	b.w	d43e0 <network_disconnect>

000d4c6a <_ZN5spark9MeshClass7connectEj>:
    void off() {
        network_off(*this, 1, 0, NULL);
    }

    void connect(unsigned flags=0) {
        network_connect(*this, flags, 0, NULL);
   d4c6a:	2300      	movs	r3, #0
   d4c6c:	461a      	mov	r2, r3
   d4c6e:	6840      	ldr	r0, [r0, #4]
   d4c70:	f7ff bba6 	b.w	d43c0 <network_connect>

000d4c74 <_ZNKSt14default_deleteIN6Thread4DataEEclEPS1_.isra.6>:
	       enable_if<is_convertible<_Up*, _Tp*>::value>::type>
        default_delete(const default_delete<_Up>&) noexcept { }

      /// Calls @c delete @p __ptr
      void
      operator()(_Tp* __ptr) const
   d4c74:	b538      	push	{r3, r4, r5, lr}
      {
	static_assert(!is_void<_Tp>::value,
		      "can't delete pointer to incomplete type");
	static_assert(sizeof(_Tp)>0,
		      "can't delete pointer to incomplete type");
	delete __ptr;
   d4c76:	4605      	mov	r5, r0
   d4c78:	b188      	cbz	r0, d4c9e <_ZNKSt14default_deleteIN6Thread4DataEEclEPS1_.isra.6+0x2a>

      /// Destructor, invokes the deleter if the stored pointer is not null.
      ~unique_ptr() noexcept
      {
	auto& __ptr = std::get<0>(_M_t);
	if (__ptr != nullptr)
   d4c7a:	6804      	ldr	r4, [r0, #0]
   d4c7c:	b14c      	cbz	r4, d4c92 <_ZNKSt14default_deleteIN6Thread4DataEEclEPS1_.isra.6+0x1e>

    ~_Function_base()
    {
      if (_M_manager)
   d4c7e:	68a3      	ldr	r3, [r4, #8]
   d4c80:	b11b      	cbz	r3, d4c8a <_ZNKSt14default_deleteIN6Thread4DataEEclEPS1_.isra.6+0x16>
	_M_manager(_M_functor, _M_functor, __destroy_functor);
   d4c82:	2203      	movs	r2, #3
   d4c84:	4621      	mov	r1, r4
   d4c86:	4620      	mov	r0, r4
   d4c88:	4798      	blx	r3
      {
	static_assert(!is_void<_Tp>::value,
		      "can't delete pointer to incomplete type");
	static_assert(sizeof(_Tp)>0,
		      "can't delete pointer to incomplete type");
	delete __ptr;
   d4c8a:	2110      	movs	r1, #16
   d4c8c:	4620      	mov	r0, r4
   d4c8e:	f000 f996 	bl	d4fbe <_ZdlPvj>
   d4c92:	4628      	mov	r0, r5
   d4c94:	2114      	movs	r1, #20
      }
   d4c96:	e8bd 4038 	ldmia.w	sp!, {r3, r4, r5, lr}
      {
	static_assert(!is_void<_Tp>::value,
		      "can't delete pointer to incomplete type");
	static_assert(sizeof(_Tp)>0,
		      "can't delete pointer to incomplete type");
	delete __ptr;
   d4c9a:	f000 b990 	b.w	d4fbe <_ZdlPvj>
   d4c9e:	bd38      	pop	{r3, r4, r5, pc}

000d4ca0 <_ZNKSt14default_deleteI3UDPEclEPS0_.isra.8.constprop.13>:
   d4ca0:	b110      	cbz	r0, d4ca8 <_ZNKSt14default_deleteI3UDPEclEPS0_.isra.8.constprop.13+0x8>
   d4ca2:	6803      	ldr	r3, [r0, #0]
   d4ca4:	685b      	ldr	r3, [r3, #4]
   d4ca6:	4718      	bx	r3
   d4ca8:	4770      	bx	lr

000d4caa <_ZN6ThreadD1Ev>:
    Thread(Thread&& thread)
        : d_(std::move(thread.d_))
    {
    }

    ~Thread()
   d4caa:	b510      	push	{r4, lr}
      }

      /// Return the stored pointer.
      pointer
      get() const noexcept
      { return std::get<0>(_M_t); }
   d4cac:	6803      	ldr	r3, [r0, #0]
   d4cae:	4604      	mov	r4, r0
        dispose();
    }

    void dispose()
    {
        if (!isValid())
   d4cb0:	b1bb      	cbz	r3, d4ce2 <_ZN6ThreadD1Ev+0x38>
        return isCurrent();
    }

    bool isCurrent() const
    {
        return isValid() && os_thread_is_current(d_->handle);
   d4cb2:	6858      	ldr	r0, [r3, #4]
   d4cb4:	f7ff fa80 	bl	d41b8 <os_thread_is_current>
   d4cb8:	b978      	cbnz	r0, d4cda <_ZN6ThreadD1Ev+0x30>
   d4cba:	6823      	ldr	r3, [r4, #0]

        // We shouldn't dispose of current thread
        if (isCurrent())
            return;

        if (!d_->exited) {
   d4cbc:	7c5a      	ldrb	r2, [r3, #17]
   d4cbe:	b912      	cbnz	r2, d4cc6 <_ZN6ThreadD1Ev+0x1c>
        d_.reset();
    }

    bool join()
    {
        return isValid() && os_thread_join(d_->handle)==0;
   d4cc0:	6858      	ldr	r0, [r3, #4]
   d4cc2:	f7ff fa81 	bl	d41c8 <os_thread_join>

        if (!d_->exited) {
            join();
        }

        os_thread_cleanup(d_->handle);
   d4cc6:	6823      	ldr	r3, [r4, #0]
   d4cc8:	6858      	ldr	r0, [r3, #4]
   d4cca:	f7ff fa85 	bl	d41d8 <os_thread_cleanup>
#endif
    {
      // concept requirements
      __glibcxx_function_requires(_SGIAssignableConcept<_Tp>)

      _Tp __tmp = _GLIBCXX_MOVE(__a);
   d4cce:	6820      	ldr	r0, [r4, #0]
      __a = _GLIBCXX_MOVE(__b);
   d4cd0:	2300      	movs	r3, #0
   d4cd2:	6023      	str	r3, [r4, #0]
      void
      reset(pointer __p = pointer()) noexcept
      {
	using std::swap;
	swap(std::get<0>(_M_t), __p);
	if (__p != pointer())
   d4cd4:	b128      	cbz	r0, d4ce2 <_ZN6ThreadD1Ev+0x38>
	  get_deleter()(__p);
   d4cd6:	f7ff ffcd 	bl	d4c74 <_ZNKSt14default_deleteIN6Thread4DataEEclEPS1_.isra.6>

      /// Destructor, invokes the deleter if the stored pointer is not null.
      ~unique_ptr() noexcept
      {
	auto& __ptr = std::get<0>(_M_t);
	if (__ptr != nullptr)
   d4cda:	6820      	ldr	r0, [r4, #0]
   d4cdc:	b108      	cbz	r0, d4ce2 <_ZN6ThreadD1Ev+0x38>
	  get_deleter()(__ptr);
   d4cde:	f7ff ffc9 	bl	d4c74 <_ZNKSt14default_deleteIN6Thread4DataEEclEPS1_.isra.6>
    }

    ~Thread()
    {
        dispose();
    }
   d4ce2:	4620      	mov	r0, r4
   d4ce4:	bd10      	pop	{r4, pc}
	...

000d4ce8 <_ZN5spark9MeshClassD1Ev>:
    RecursiveMutex mutex_;
    std::unique_ptr<uint8_t[]> buffer_;
    std::atomic_bool exit_;
};

class MeshClass : public NetworkClass, public MeshPublish {
   d4ce8:	b538      	push	{r3, r4, r5, lr}
   d4cea:	4b0c      	ldr	r3, [pc, #48]	; (d4d1c <_ZN5spark9MeshClassD1Ev+0x34>)
   d4cec:	6003      	str	r3, [r0, #0]
   d4cee:	4604      	mov	r4, r0

      /// Destructor, invokes the deleter if the stored pointer is not null.
      ~unique_ptr()
      {
	auto& __ptr = std::get<0>(_M_t);
	if (__ptr != nullptr)
   d4cf0:	f8d0 01cc 	ldr.w	r0, [r0, #460]	; 0x1cc
   d4cf4:	b108      	cbz	r0, d4cfa <_ZN5spark9MeshClassD1Ev+0x12>
      void
      operator()(_Tp* __ptr) const
      {
	static_assert(sizeof(_Tp)>0,
		      "can't delete pointer to incomplete type");
	delete [] __ptr;
   d4cf6:	f7ff f9d2 	bl	d409e <_ZdaPv>

      /// Destructor, invokes the deleter if the stored pointer is not null.
      ~unique_ptr() noexcept
      {
	auto& __ptr = std::get<0>(_M_t);
	if (__ptr != nullptr)
   d4cfa:	f8d4 51c4 	ldr.w	r5, [r4, #452]	; 0x1c4
   d4cfe:	b135      	cbz	r5, d4d0e <_ZN5spark9MeshClassD1Ev+0x26>
      {
	static_assert(!is_void<_Tp>::value,
		      "can't delete pointer to incomplete type");
	static_assert(sizeof(_Tp)>0,
		      "can't delete pointer to incomplete type");
	delete __ptr;
   d4d00:	4628      	mov	r0, r5
   d4d02:	f7ff ffd2 	bl	d4caa <_ZN6ThreadD1Ev>
   d4d06:	2104      	movs	r1, #4
   d4d08:	4628      	mov	r0, r5
   d4d0a:	f000 f958 	bl	d4fbe <_ZdlPvj>

      /// Destructor, invokes the deleter if the stored pointer is not null.
      ~unique_ptr() noexcept
      {
	auto& __ptr = std::get<0>(_M_t);
	if (__ptr != nullptr)
   d4d0e:	68a0      	ldr	r0, [r4, #8]
   d4d10:	b108      	cbz	r0, d4d16 <_ZN5spark9MeshClassD1Ev+0x2e>
	  get_deleter()(__ptr);
   d4d12:	f7ff ffc5 	bl	d4ca0 <_ZNKSt14default_deleteI3UDPEclEPS0_.isra.8.constprop.13>
   d4d16:	4620      	mov	r0, r4
   d4d18:	bd38      	pop	{r3, r4, r5, pc}
   d4d1a:	bf00      	nop
   d4d1c:	000d5d68 	.word	0x000d5d68

000d4d20 <_GLOBAL__sub_I__ZN5spark11MeshPublish13Subscriptions20event_handler_existsEPKcPFvS3_S3_EPvN17SubscriptionScope4EnumES3_>:

    return addr;
}

MeshClass Mesh;
} // namespace spark
   d4d20:	b538      	push	{r3, r4, r5, lr}
   d4d22:	4c0e      	ldr	r4, [pc, #56]	; (d4d5c <_GLOBAL__sub_I__ZN5spark11MeshPublish13Subscriptions20event_handler_existsEPKcPFvS3_S3_EPvN17SubscriptionScope4EnumES3_+0x3c>)
   d4d24:	4b0e      	ldr	r3, [pc, #56]	; (d4d60 <_GLOBAL__sub_I__ZN5spark11MeshPublish13Subscriptions20event_handler_existsEPKcPFvS3_S3_EPvN17SubscriptionScope4EnumES3_+0x40>)
   d4d26:	6023      	str	r3, [r4, #0]

  template<std::size_t _Idx, typename _Head>
    struct _Head_base<_Idx, _Head, false>
    {
      constexpr _Head_base()
      : _M_head_impl() { }
   d4d28:	2500      	movs	r5, #0
   d4d2a:	2302      	movs	r3, #2
     */
    RecursiveMutex(os_mutex_recursive_t handle) : handle_(handle) {}

    RecursiveMutex() : handle_(nullptr)
    {
        os_mutex_recursive_create(&handle_);
   d4d2c:	f504 70e4 	add.w	r0, r4, #456	; 0x1c8
   d4d30:	6063      	str	r3, [r4, #4]
   d4d32:	60a5      	str	r5, [r4, #8]
   d4d34:	f8c4 51c4 	str.w	r5, [r4, #452]	; 0x1c4
    /**
     * Creates a shared mutex.
     */
    RecursiveMutex(os_mutex_recursive_t handle) : handle_(handle) {}

    RecursiveMutex() : handle_(nullptr)
   d4d38:	f8c4 51c8 	str.w	r5, [r4, #456]	; 0x1c8
    {
        os_mutex_recursive_create(&handle_);
   d4d3c:	f7ff fa5c 	bl	d41f8 <os_mutex_recursive_create>
public:
    MeshClass() :
            NetworkClass(NETWORK_INTERFACE_MESH) {
   d4d40:	4b08      	ldr	r3, [pc, #32]	; (d4d64 <_GLOBAL__sub_I__ZN5spark11MeshPublish13Subscriptions20event_handler_existsEPKcPFvS3_S3_EPvN17SubscriptionScope4EnumES3_+0x44>)
   d4d42:	f8c4 51cc 	str.w	r5, [r4, #460]	; 0x1cc
      __atomic_base(const __atomic_base&) = delete;
      __atomic_base& operator=(const __atomic_base&) = delete;
      __atomic_base& operator=(const __atomic_base&) volatile = delete;

      // Requires __int_type convertible to _M_i.
      constexpr __atomic_base(__int_type __i) noexcept : _M_i (__i) { }
   d4d46:	f884 51d0 	strb.w	r5, [r4, #464]	; 0x1d0
   d4d4a:	6023      	str	r3, [r4, #0]
    }

    return addr;
}

MeshClass Mesh;
   d4d4c:	4620      	mov	r0, r4
   d4d4e:	4a06      	ldr	r2, [pc, #24]	; (d4d68 <_GLOBAL__sub_I__ZN5spark11MeshPublish13Subscriptions20event_handler_existsEPKcPFvS3_S3_EPvN17SubscriptionScope4EnumES3_+0x48>)
   d4d50:	4906      	ldr	r1, [pc, #24]	; (d4d6c <_GLOBAL__sub_I__ZN5spark11MeshPublish13Subscriptions20event_handler_existsEPKcPFvS3_S3_EPvN17SubscriptionScope4EnumES3_+0x4c>)
} // namespace spark
   d4d52:	e8bd 4038 	ldmia.w	sp!, {r3, r4, r5, lr}
    }

    return addr;
}

MeshClass Mesh;
   d4d56:	f000 b92d 	b.w	d4fb4 <__aeabi_atexit>
   d4d5a:	bf00      	nop
   d4d5c:	2003e538 	.word	0x2003e538
   d4d60:	000d5d9c 	.word	0x000d5d9c
   d4d64:	000d5d68 	.word	0x000d5d68
   d4d68:	2003e398 	.word	0x2003e398
   d4d6c:	000d4ce9 	.word	0x000d4ce9

000d4d70 <_ZN5spark12NetworkClass7connectEj>:
        return Network;
    }
}

void NetworkClass::connect(unsigned flags) {
    network_connect(*this, flags, 0, nullptr);
   d4d70:	2300      	movs	r3, #0
   d4d72:	461a      	mov	r2, r3
   d4d74:	6840      	ldr	r0, [r0, #4]
   d4d76:	f7ff bb23 	b.w	d43c0 <network_connect>

000d4d7a <_ZN5spark12NetworkClass10disconnectEv>:
}

void NetworkClass::disconnect() {
    network_disconnect(*this, NETWORK_DISCONNECT_REASON_USER, nullptr);
   d4d7a:	2200      	movs	r2, #0
   d4d7c:	2102      	movs	r1, #2
   d4d7e:	6840      	ldr	r0, [r0, #4]
   d4d80:	f7ff bb2e 	b.w	d43e0 <network_disconnect>

000d4d84 <_ZN5spark12NetworkClass10connectingEv>:
}

bool NetworkClass::connecting() {
    return network_connecting(*this, 0, nullptr);
   d4d84:	2200      	movs	r2, #0
   d4d86:	4611      	mov	r1, r2
   d4d88:	6840      	ldr	r0, [r0, #4]
   d4d8a:	f7ff bb21 	b.w	d43d0 <network_connecting>

000d4d8e <_ZN5spark12NetworkClass5readyEv>:
}

bool NetworkClass::ready() {
    return network_ready(*this, 0, nullptr);
   d4d8e:	2200      	movs	r2, #0
   d4d90:	4611      	mov	r1, r2
   d4d92:	6840      	ldr	r0, [r0, #4]
   d4d94:	f7ff bb2c 	b.w	d43f0 <network_ready>

000d4d98 <_ZN5spark12NetworkClass2onEv>:
}

void NetworkClass::on() {
    network_on(*this, 0, 0, nullptr);
   d4d98:	2300      	movs	r3, #0
   d4d9a:	461a      	mov	r2, r3
   d4d9c:	4619      	mov	r1, r3
   d4d9e:	6840      	ldr	r0, [r0, #4]
   d4da0:	f7ff bb2e 	b.w	d4400 <network_on>

000d4da4 <_ZN5spark12NetworkClass3offEv>:
}

void NetworkClass::off() {
    network_off(*this, 0, 0, nullptr);
   d4da4:	2300      	movs	r3, #0
   d4da6:	461a      	mov	r2, r3
   d4da8:	4619      	mov	r1, r3
   d4daa:	6840      	ldr	r0, [r0, #4]
   d4dac:	f7ff bb30 	b.w	d4410 <network_off>

000d4db0 <_ZN5spark12NetworkClass6listenEb>:
}

void NetworkClass::listen(bool begin) {
    network_listen(*this, begin ? 0 : 1, nullptr);
   d4db0:	2200      	movs	r2, #0
   d4db2:	f081 0101 	eor.w	r1, r1, #1
   d4db6:	6840      	ldr	r0, [r0, #4]
   d4db8:	f7ff bb32 	b.w	d4420 <network_listen>

000d4dbc <_ZN5spark12NetworkClass16setListenTimeoutEt>:
}

void NetworkClass::setListenTimeout(uint16_t timeout) {
    network_set_listen_timeout(*this, timeout, nullptr);
   d4dbc:	2200      	movs	r2, #0
   d4dbe:	6840      	ldr	r0, [r0, #4]
   d4dc0:	f7ff bb3e 	b.w	d4440 <network_set_listen_timeout>

000d4dc4 <_ZN5spark12NetworkClass16getListenTimeoutEv>:
}

uint16_t NetworkClass::getListenTimeout() {
    return network_get_listen_timeout(*this, 0, nullptr);
   d4dc4:	2200      	movs	r2, #0
   d4dc6:	4611      	mov	r1, r2
   d4dc8:	6840      	ldr	r0, [r0, #4]
   d4dca:	f7ff bb41 	b.w	d4450 <network_get_listen_timeout>

000d4dce <_ZN5spark12NetworkClass9listeningEv>:
}

bool NetworkClass::listening() {
    return network_listening(*this, 0, nullptr);
   d4dce:	2200      	movs	r2, #0
   d4dd0:	4611      	mov	r1, r2
   d4dd2:	6840      	ldr	r0, [r0, #4]
   d4dd4:	f7ff bb2c 	b.w	d4430 <network_listening>

000d4dd8 <_ZN5spark12NetworkClass7resolveEPKc>:
}

IPAddress NetworkClass::resolve(const char* name) {
   d4dd8:	e92d 43f0 	stmdb	sp!, {r4, r5, r6, r7, r8, r9, lr}
    IPAddress addr;
#if HAL_USE_INET_HAL_POSIX
    struct addrinfo *ai = nullptr;
   d4ddc:	2400      	movs	r4, #0

bool NetworkClass::listening() {
    return network_listening(*this, 0, nullptr);
}

IPAddress NetworkClass::resolve(const char* name) {
   d4dde:	b095      	sub	sp, #84	; 0x54
   d4de0:	4616      	mov	r6, r2
   d4de2:	460d      	mov	r5, r1
   d4de4:	4607      	mov	r7, r0
    IPAddress addr;
   d4de6:	f7ff fd41 	bl	d486c <_ZN9IPAddressC1Ev>
#if HAL_USE_INET_HAL_POSIX
    struct addrinfo *ai = nullptr;
    struct addrinfo hints = {};
   d4dea:	4621      	mov	r1, r4
   d4dec:	2220      	movs	r2, #32
   d4dee:	a80c      	add	r0, sp, #48	; 0x30
}

IPAddress NetworkClass::resolve(const char* name) {
    IPAddress addr;
#if HAL_USE_INET_HAL_POSIX
    struct addrinfo *ai = nullptr;
   d4df0:	9400      	str	r4, [sp, #0]
    struct addrinfo hints = {};
   d4df2:	f000 fe62 	bl	d5aba <memset>
    hints.ai_flags = AI_ADDRCONFIG;
   d4df6:	2340      	movs	r3, #64	; 0x40
   d4df8:	930c      	str	r3, [sp, #48]	; 0x30
    hints.ai_family = AF_UNSPEC;
    const int r = getaddrinfo(name, nullptr, &hints, &ai);
   d4dfa:	4621      	mov	r1, r4
   d4dfc:	466b      	mov	r3, sp
   d4dfe:	aa0c      	add	r2, sp, #48	; 0x30
   d4e00:	4630      	mov	r0, r6
   d4e02:	f7ff f999 	bl	d4138 <netdb_getaddrinfo>
    if (!r) {
   d4e06:	4604      	mov	r4, r0
   d4e08:	2800      	cmp	r0, #0
   d4e0a:	d144      	bne.n	d4e96 <_ZN5spark12NetworkClass7resolveEPKc+0xbe>
        bool ok = false;
        // This is not really needed if AI_ADDRCONFIG is properly supported
        bool ipv4 = network_ready(*this, NETWORK_READY_TYPE_IPV4, nullptr);
   d4e0c:	4602      	mov	r2, r0
   d4e0e:	2101      	movs	r1, #1
   d4e10:	6868      	ldr	r0, [r5, #4]
   d4e12:	f7ff faed 	bl	d43f0 <network_ready>
        bool ipv6 = network_ready(*this, NETWORK_READY_TYPE_IPV6, nullptr);
   d4e16:	2102      	movs	r1, #2
    hints.ai_family = AF_UNSPEC;
    const int r = getaddrinfo(name, nullptr, &hints, &ai);
    if (!r) {
        bool ok = false;
        // This is not really needed if AI_ADDRCONFIG is properly supported
        bool ipv4 = network_ready(*this, NETWORK_READY_TYPE_IPV4, nullptr);
   d4e18:	4680      	mov	r8, r0
        bool ipv6 = network_ready(*this, NETWORK_READY_TYPE_IPV6, nullptr);
   d4e1a:	4622      	mov	r2, r4
   d4e1c:	6868      	ldr	r0, [r5, #4]
   d4e1e:	f7ff fae7 	bl	d43f0 <network_ready>
        for (auto cur = ai; cur != nullptr && !ok; cur = cur->ai_next) {
   d4e22:	9e00      	ldr	r6, [sp, #0]
    const int r = getaddrinfo(name, nullptr, &hints, &ai);
    if (!r) {
        bool ok = false;
        // This is not really needed if AI_ADDRCONFIG is properly supported
        bool ipv4 = network_ready(*this, NETWORK_READY_TYPE_IPV4, nullptr);
        bool ipv6 = network_ready(*this, NETWORK_READY_TYPE_IPV6, nullptr);
   d4e24:	4681      	mov	r9, r0
    struct addrinfo hints = {};
    hints.ai_flags = AI_ADDRCONFIG;
    hints.ai_family = AF_UNSPEC;
    const int r = getaddrinfo(name, nullptr, &hints, &ai);
    if (!r) {
        bool ok = false;
   d4e26:	4621      	mov	r1, r4
        // This is not really needed if AI_ADDRCONFIG is properly supported
        bool ipv4 = network_ready(*this, NETWORK_READY_TYPE_IPV4, nullptr);
        bool ipv6 = network_ready(*this, NETWORK_READY_TYPE_IPV6, nullptr);
        for (auto cur = ai; cur != nullptr && !ok; cur = cur->ai_next) {
   d4e28:	2e00      	cmp	r6, #0
   d4e2a:	d034      	beq.n	d4e96 <_ZN5spark12NetworkClass7resolveEPKc+0xbe>
   d4e2c:	2900      	cmp	r1, #0
   d4e2e:	d132      	bne.n	d4e96 <_ZN5spark12NetworkClass7resolveEPKc+0xbe>
            // NOTE: using only the first entry that matches the current state of IPv4/IPv6 connectivity
            switch (cur->ai_family) {
   d4e30:	6873      	ldr	r3, [r6, #4]
   d4e32:	2b02      	cmp	r3, #2
   d4e34:	d002      	beq.n	d4e3c <_ZN5spark12NetworkClass7resolveEPKc+0x64>
   d4e36:	2b0a      	cmp	r3, #10
   d4e38:	d009      	beq.n	d4e4e <_ZN5spark12NetworkClass7resolveEPKc+0x76>
   d4e3a:	e02a      	b.n	d4e92 <_ZN5spark12NetworkClass7resolveEPKc+0xba>
                case AF_INET: {
                    if (!ipv4) {
   d4e3c:	f1b8 0f00 	cmp.w	r8, #0
   d4e40:	d027      	beq.n	d4e92 <_ZN5spark12NetworkClass7resolveEPKc+0xba>
                        continue;
                    }
                    // NOTE: HAL_IPAddress is little-endian
                    auto in = (struct sockaddr_in*)cur->ai_addr;
                    addr = (const uint8_t*)(&in->sin_addr.s_addr);
   d4e42:	6971      	ldr	r1, [r6, #20]
   d4e44:	4638      	mov	r0, r7
   d4e46:	3104      	adds	r1, #4
   d4e48:	f7ff fd3d 	bl	d48c6 <_ZN9IPAddressaSEPKh>
   d4e4c:	e020      	b.n	d4e90 <_ZN5spark12NetworkClass7resolveEPKc+0xb8>
                    ok = true;
                    break;
                }
                case AF_INET6: {
                    if (!ipv6) {
   d4e4e:	f1b9 0f00 	cmp.w	r9, #0
   d4e52:	d01e      	beq.n	d4e92 <_ZN5spark12NetworkClass7resolveEPKc+0xba>
                        continue;
                    }
                    auto in6 = (struct sockaddr_in6*)cur->ai_addr;
   d4e54:	6974      	ldr	r4, [r6, #20]
                    HAL_IPAddress a = {};
   d4e56:	2211      	movs	r2, #17
   d4e58:	a801      	add	r0, sp, #4
   d4e5a:	f000 fe2e 	bl	d5aba <memset>
                    a.v = 6;
   d4e5e:	2306      	movs	r3, #6
   d4e60:	f88d 3014 	strb.w	r3, [sp, #20]
                    memcpy(a.ipv6, in6->sin6_addr.s6_addr, sizeof(a.ipv6));
   d4e64:	ad01      	add	r5, sp, #4
   d4e66:	f104 0308 	add.w	r3, r4, #8
   d4e6a:	3418      	adds	r4, #24
   d4e6c:	6818      	ldr	r0, [r3, #0]
   d4e6e:	6859      	ldr	r1, [r3, #4]
   d4e70:	462a      	mov	r2, r5
   d4e72:	c203      	stmia	r2!, {r0, r1}
   d4e74:	3308      	adds	r3, #8
   d4e76:	42a3      	cmp	r3, r4
   d4e78:	4615      	mov	r5, r2
   d4e7a:	d1f7      	bne.n	d4e6c <_ZN5spark12NetworkClass7resolveEPKc+0x94>
                    addr = IPAddress(a);
   d4e7c:	a901      	add	r1, sp, #4
   d4e7e:	a806      	add	r0, sp, #24

/**
 * The IP address stored in host order.
 *
 */
class IPAddress : public Printable {
   d4e80:	ad07      	add	r5, sp, #28
   d4e82:	f7ff fd01 	bl	d4888 <_ZN9IPAddressC1ERK16_HAL_IPAddress_t>
   d4e86:	cd0f      	ldmia	r5!, {r0, r1, r2, r3}
   d4e88:	1d3c      	adds	r4, r7, #4
   d4e8a:	c40f      	stmia	r4!, {r0, r1, r2, r3}
   d4e8c:	682b      	ldr	r3, [r5, #0]
   d4e8e:	7023      	strb	r3, [r4, #0]
                    ok = true;
   d4e90:	2101      	movs	r1, #1
    if (!r) {
        bool ok = false;
        // This is not really needed if AI_ADDRCONFIG is properly supported
        bool ipv4 = network_ready(*this, NETWORK_READY_TYPE_IPV4, nullptr);
        bool ipv6 = network_ready(*this, NETWORK_READY_TYPE_IPV6, nullptr);
        for (auto cur = ai; cur != nullptr && !ok; cur = cur->ai_next) {
   d4e92:	69f6      	ldr	r6, [r6, #28]
   d4e94:	e7c8      	b.n	d4e28 <_ZN5spark12NetworkClass7resolveEPKc+0x50>
                    break;
                }
            }
        }
    }
    freeaddrinfo(ai);
   d4e96:	9800      	ldr	r0, [sp, #0]
   d4e98:	f7ff f946 	bl	d4128 <netdb_freeaddrinfo>
    return Cellular.resolve(name);
#endif // Wiring_Cellular

#endif // HAL_USE_INET_HAL_POSIX
    return addr;
}
   d4e9c:	4638      	mov	r0, r7
   d4e9e:	b015      	add	sp, #84	; 0x54
   d4ea0:	e8bd 83f0 	ldmia.w	sp!, {r4, r5, r6, r7, r8, r9, pc}

000d4ea4 <_GLOBAL__sub_I__ZN5spark7NetworkE>:
   d4ea4:	4b02      	ldr	r3, [pc, #8]	; (d4eb0 <_GLOBAL__sub_I__ZN5spark7NetworkE+0xc>)
   d4ea6:	4a03      	ldr	r2, [pc, #12]	; (d4eb4 <_GLOBAL__sub_I__ZN5spark7NetworkE+0x10>)
   d4ea8:	601a      	str	r2, [r3, #0]
   d4eaa:	2200      	movs	r2, #0
   d4eac:	605a      	str	r2, [r3, #4]
   d4eae:	4770      	bx	lr
   d4eb0:	2003e70c 	.word	0x2003e70c
   d4eb4:	000d5d9c 	.word	0x000d5d9c

000d4eb8 <pinAvailable>:

/*
 * @brief Perform safety check on desired pin to see if it's already
 * being used.  Return 0 if used, otherwise return 1 if available.
 */
bool pinAvailable(uint16_t pin) {
   d4eb8:	b510      	push	{r4, lr}
   d4eba:	4604      	mov	r4, r0

  // SPI safety check
#ifndef SPARK_WIRING_NO_SPI
  if(SPI.isEnabled() == true && (pin == SCK || pin == MOSI || pin == MISO))
   d4ebc:	480f      	ldr	r0, [pc, #60]	; (d4efc <pinAvailable+0x44>)
   d4ebe:	f7ff fb49 	bl	d4554 <_ZN8SPIClass9isEnabledEv>
   d4ec2:	b128      	cbz	r0, d4ed0 <pinAvailable+0x18>
   d4ec4:	f1a4 030b 	sub.w	r3, r4, #11
   d4ec8:	2b02      	cmp	r3, #2
   d4eca:	d801      	bhi.n	d4ed0 <pinAvailable+0x18>
  {
    return 0; // 'pin' is used
   d4ecc:	2000      	movs	r0, #0
   d4ece:	bd10      	pop	{r4, pc}
  }
#endif
  // I2C safety check
#ifndef SPARK_WIRING_NO_I2C
  if(Wire.isEnabled() == true && (pin == SCL || pin == SDA))
   d4ed0:	f000 f850 	bl	d4f74 <_Z19__fetch_global_Wirev>
   d4ed4:	f7ff fe96 	bl	d4c04 <_ZN7TwoWire9isEnabledEv>
   d4ed8:	b108      	cbz	r0, d4ede <pinAvailable+0x26>
   d4eda:	2c01      	cmp	r4, #1
   d4edc:	d9f6      	bls.n	d4ecc <pinAvailable+0x14>
    return 0; // 'pin' is used
  }
#endif
#ifndef SPARK_WIRING_NO_USART_SERIAL
  // Serial1 safety check
  if(Serial1.isEnabled() == true && (pin == RX || pin == TX))
   d4ede:	f7ff fe2d 	bl	d4b3c <_Z22__fetch_global_Serial1v>
   d4ee2:	f7ff fe27 	bl	d4b34 <_ZN11USARTSerial9isEnabledEv>
   d4ee6:	b118      	cbz	r0, d4ef0 <pinAvailable+0x38>
   d4ee8:	f1a4 0309 	sub.w	r3, r4, #9
   d4eec:	2b01      	cmp	r3, #1
   d4eee:	d9ed      	bls.n	d4ecc <pinAvailable+0x14>
  {
    return 0; // 'pin' is used
  }
#endif

  if (pin >= TOTAL_PINS)
   d4ef0:	2c23      	cmp	r4, #35	; 0x23
   d4ef2:	bf8c      	ite	hi
   d4ef4:	2000      	movhi	r0, #0
   d4ef6:	2001      	movls	r0, #1
    return 0;
  else
    return 1; // 'pin' is available
}
   d4ef8:	bd10      	pop	{r4, pc}
   d4efa:	bf00      	nop
   d4efc:	2003e714 	.word	0x2003e714

000d4f00 <analogRead>:
 * Note: ADC is 12-bit. Currently it returns 0-4095
 */
int32_t analogRead(pin_t pin)
{
  // Allow people to use 0-7 to define analog pins by checking to see if the values are too low.
  if(pin < FIRST_ANALOG_PIN)
   d4f00:	280d      	cmp	r0, #13
 * @brief Read the analog value of a pin.
 * Should return a 16-bit value, 0-65536 (0 = LOW, 65536 = HIGH)
 * Note: ADC is 12-bit. Currently it returns 0-4095
 */
int32_t analogRead(pin_t pin)
{
   d4f02:	b510      	push	{r4, lr}
   d4f04:	4604      	mov	r4, r0
  // Allow people to use 0-7 to define analog pins by checking to see if the values are too low.
  if(pin < FIRST_ANALOG_PIN)
  {
    pin = pin + FIRST_ANALOG_PIN;
   d4f06:	bf9c      	itt	ls
   d4f08:	340e      	addls	r4, #14
   d4f0a:	b2a4      	uxthls	r4, r4
  }

  // Safety check
  if( !pinAvailable(pin) ) {
   d4f0c:	4620      	mov	r0, r4
   d4f0e:	f7ff ffd3 	bl	d4eb8 <pinAvailable>
   d4f12:	b150      	cbz	r0, d4f2a <analogRead+0x2a>
    return LOW;
  }

  if(HAL_Validate_Pin_Function(pin, PF_ADC)!=PF_ADC)
   d4f14:	2103      	movs	r1, #3
   d4f16:	4620      	mov	r0, r4
   d4f18:	f7ff f91e 	bl	d4158 <HAL_Validate_Pin_Function>
   d4f1c:	2803      	cmp	r0, #3
   d4f1e:	d104      	bne.n	d4f2a <analogRead+0x2a>
  {
    return LOW;
  }

  return HAL_ADC_Read(pin);
   d4f20:	4620      	mov	r0, r4
}
   d4f22:	e8bd 4010 	ldmia.w	sp!, {r4, lr}
  if(HAL_Validate_Pin_Function(pin, PF_ADC)!=PF_ADC)
  {
    return LOW;
  }

  return HAL_ADC_Read(pin);
   d4f26:	f7ff b91f 	b.w	d4168 <HAL_ADC_Read>
}
   d4f2a:	2000      	movs	r0, #0
   d4f2c:	bd10      	pop	{r4, pc}
	...

000d4f30 <_GLOBAL__sub_I_SPI>:
#ifndef SPARK_WIRING_NO_SPI

SPIClass SPI(HAL_SPI_INTERFACE1);

#if Wiring_SPI1
SPIClass SPI1(HAL_SPI_INTERFACE2);
   d4f30:	b570      	push	{r4, r5, r6, lr}
#include "core_hal.h"
#include "spark_macros.h"

#ifndef SPARK_WIRING_NO_SPI

SPIClass SPI(HAL_SPI_INTERFACE1);
   d4f32:	4c0c      	ldr	r4, [pc, #48]	; (d4f64 <_GLOBAL__sub_I_SPI+0x34>)
   d4f34:	4e0c      	ldr	r6, [pc, #48]	; (d4f68 <_GLOBAL__sub_I_SPI+0x38>)
   d4f36:	4d0d      	ldr	r5, [pc, #52]	; (d4f6c <_GLOBAL__sub_I_SPI+0x3c>)
   d4f38:	2100      	movs	r1, #0
   d4f3a:	4620      	mov	r0, r4
   d4f3c:	f7ff faf6 	bl	d452c <_ZN8SPIClassC1E17HAL_SPI_Interface>
   d4f40:	4620      	mov	r0, r4

#if Wiring_SPI1
SPIClass SPI1(HAL_SPI_INTERFACE2);
   d4f42:	4c0b      	ldr	r4, [pc, #44]	; (d4f70 <_GLOBAL__sub_I_SPI+0x40>)
#include "core_hal.h"
#include "spark_macros.h"

#ifndef SPARK_WIRING_NO_SPI

SPIClass SPI(HAL_SPI_INTERFACE1);
   d4f44:	4632      	mov	r2, r6
   d4f46:	4629      	mov	r1, r5
   d4f48:	f000 f834 	bl	d4fb4 <__aeabi_atexit>

#if Wiring_SPI1
SPIClass SPI1(HAL_SPI_INTERFACE2);
   d4f4c:	2101      	movs	r1, #1
   d4f4e:	4620      	mov	r0, r4
   d4f50:	f7ff faec 	bl	d452c <_ZN8SPIClassC1E17HAL_SPI_Interface>
   d4f54:	4632      	mov	r2, r6
   d4f56:	4629      	mov	r1, r5
   d4f58:	4620      	mov	r0, r4
   d4f5a:	e8bd 4070 	ldmia.w	sp!, {r4, r5, r6, lr}
   d4f5e:	f000 b829 	b.w	d4fb4 <__aeabi_atexit>
   d4f62:	bf00      	nop
   d4f64:	2003e714 	.word	0x2003e714
   d4f68:	2003e398 	.word	0x2003e398
   d4f6c:	000d451d 	.word	0x000d451d
   d4f70:	2003e724 	.word	0x2003e724

000d4f74 <_Z19__fetch_global_Wirev>:
#include "i2c_hal.h"

#ifndef SPARK_WIRING_NO_I2C

TwoWire& __fetch_global_Wire()
{
   d4f74:	b538      	push	{r3, r4, r5, lr}
	static TwoWire wire(HAL_I2C_INTERFACE1);
   d4f76:	4d0b      	ldr	r5, [pc, #44]	; (d4fa4 <_Z19__fetch_global_Wirev+0x30>)
   d4f78:	6829      	ldr	r1, [r5, #0]
   d4f7a:	f011 0401 	ands.w	r4, r1, #1
   d4f7e:	d10f      	bne.n	d4fa0 <_Z19__fetch_global_Wirev+0x2c>
   d4f80:	4628      	mov	r0, r5
   d4f82:	f7ff f88e 	bl	d40a2 <__cxa_guard_acquire>
   d4f86:	b158      	cbz	r0, d4fa0 <_Z19__fetch_global_Wirev+0x2c>
   d4f88:	4621      	mov	r1, r4
   d4f8a:	4807      	ldr	r0, [pc, #28]	; (d4fa8 <_Z19__fetch_global_Wirev+0x34>)
   d4f8c:	f7ff fe28 	bl	d4be0 <_ZN7TwoWireC1E17HAL_I2C_Interface>
   d4f90:	4628      	mov	r0, r5
   d4f92:	f7ff f88b 	bl	d40ac <__cxa_guard_release>
   d4f96:	4a05      	ldr	r2, [pc, #20]	; (d4fac <_Z19__fetch_global_Wirev+0x38>)
   d4f98:	4905      	ldr	r1, [pc, #20]	; (d4fb0 <_Z19__fetch_global_Wirev+0x3c>)
   d4f9a:	4803      	ldr	r0, [pc, #12]	; (d4fa8 <_Z19__fetch_global_Wirev+0x34>)
   d4f9c:	f000 f80a 	bl	d4fb4 <__aeabi_atexit>
	return wire;
}
   d4fa0:	4801      	ldr	r0, [pc, #4]	; (d4fa8 <_Z19__fetch_global_Wirev+0x34>)
   d4fa2:	bd38      	pop	{r3, r4, r5, pc}
   d4fa4:	2003e738 	.word	0x2003e738
   d4fa8:	2003e73c 	.word	0x2003e73c
   d4fac:	2003e398 	.word	0x2003e398
   d4fb0:	000d4b89 	.word	0x000d4b89

000d4fb4 <__aeabi_atexit>:
   d4fb4:	460b      	mov	r3, r1
   d4fb6:	4601      	mov	r1, r0
   d4fb8:	4618      	mov	r0, r3
   d4fba:	f000 bd65 	b.w	d5a88 <__cxa_atexit>

000d4fbe <_ZdlPvj>:
   d4fbe:	f7ff b86c 	b.w	d409a <_ZdlPv>
	...

000d4fc4 <_GLOBAL__sub_I__ZNSt12ctype_bynameIcEC2ERKNSt7__cxx1112basic_stringIcSt11char_traitsIcESaIcEEEj>:
   d4fc4:	4b18      	ldr	r3, [pc, #96]	; (d5028 <_GLOBAL__sub_I__ZNSt12ctype_bynameIcEC2ERKNSt7__cxx1112basic_stringIcSt11char_traitsIcESaIcEEEj+0x64>)
   d4fc6:	681a      	ldr	r2, [r3, #0]
   d4fc8:	07d1      	lsls	r1, r2, #31
   d4fca:	bf5c      	itt	pl
   d4fcc:	2201      	movpl	r2, #1
   d4fce:	601a      	strpl	r2, [r3, #0]
   d4fd0:	4b16      	ldr	r3, [pc, #88]	; (d502c <_GLOBAL__sub_I__ZNSt12ctype_bynameIcEC2ERKNSt7__cxx1112basic_stringIcSt11char_traitsIcESaIcEEEj+0x68>)
   d4fd2:	681a      	ldr	r2, [r3, #0]
   d4fd4:	07d2      	lsls	r2, r2, #31
   d4fd6:	bf5c      	itt	pl
   d4fd8:	2201      	movpl	r2, #1
   d4fda:	601a      	strpl	r2, [r3, #0]
   d4fdc:	4b14      	ldr	r3, [pc, #80]	; (d5030 <_GLOBAL__sub_I__ZNSt12ctype_bynameIcEC2ERKNSt7__cxx1112basic_stringIcSt11char_traitsIcESaIcEEEj+0x6c>)
   d4fde:	681a      	ldr	r2, [r3, #0]
   d4fe0:	07d0      	lsls	r0, r2, #31
   d4fe2:	bf5c      	itt	pl
   d4fe4:	2201      	movpl	r2, #1
   d4fe6:	601a      	strpl	r2, [r3, #0]
   d4fe8:	4b12      	ldr	r3, [pc, #72]	; (d5034 <_GLOBAL__sub_I__ZNSt12ctype_bynameIcEC2ERKNSt7__cxx1112basic_stringIcSt11char_traitsIcESaIcEEEj+0x70>)
   d4fea:	681a      	ldr	r2, [r3, #0]
   d4fec:	07d1      	lsls	r1, r2, #31
   d4fee:	bf5c      	itt	pl
   d4ff0:	2201      	movpl	r2, #1
   d4ff2:	601a      	strpl	r2, [r3, #0]
   d4ff4:	4b10      	ldr	r3, [pc, #64]	; (d5038 <_GLOBAL__sub_I__ZNSt12ctype_bynameIcEC2ERKNSt7__cxx1112basic_stringIcSt11char_traitsIcESaIcEEEj+0x74>)
   d4ff6:	681a      	ldr	r2, [r3, #0]
   d4ff8:	07d2      	lsls	r2, r2, #31
   d4ffa:	bf5c      	itt	pl
   d4ffc:	2201      	movpl	r2, #1
   d4ffe:	601a      	strpl	r2, [r3, #0]
   d5000:	4b0e      	ldr	r3, [pc, #56]	; (d503c <_GLOBAL__sub_I__ZNSt12ctype_bynameIcEC2ERKNSt7__cxx1112basic_stringIcSt11char_traitsIcESaIcEEEj+0x78>)
   d5002:	681a      	ldr	r2, [r3, #0]
   d5004:	07d0      	lsls	r0, r2, #31
   d5006:	bf5c      	itt	pl
   d5008:	2201      	movpl	r2, #1
   d500a:	601a      	strpl	r2, [r3, #0]
   d500c:	4b0c      	ldr	r3, [pc, #48]	; (d5040 <_GLOBAL__sub_I__ZNSt12ctype_bynameIcEC2ERKNSt7__cxx1112basic_stringIcSt11char_traitsIcESaIcEEEj+0x7c>)
   d500e:	681a      	ldr	r2, [r3, #0]
   d5010:	07d1      	lsls	r1, r2, #31
   d5012:	bf5c      	itt	pl
   d5014:	2201      	movpl	r2, #1
   d5016:	601a      	strpl	r2, [r3, #0]
   d5018:	4b0a      	ldr	r3, [pc, #40]	; (d5044 <_GLOBAL__sub_I__ZNSt12ctype_bynameIcEC2ERKNSt7__cxx1112basic_stringIcSt11char_traitsIcESaIcEEEj+0x80>)
   d501a:	681a      	ldr	r2, [r3, #0]
   d501c:	07d2      	lsls	r2, r2, #31
   d501e:	bf5c      	itt	pl
   d5020:	2201      	movpl	r2, #1
   d5022:	601a      	strpl	r2, [r3, #0]
   d5024:	4770      	bx	lr
   d5026:	bf00      	nop
   d5028:	2003e76c 	.word	0x2003e76c
   d502c:	2003e768 	.word	0x2003e768
   d5030:	2003e764 	.word	0x2003e764
   d5034:	2003e760 	.word	0x2003e760
   d5038:	2003e75c 	.word	0x2003e75c
   d503c:	2003e758 	.word	0x2003e758
   d5040:	2003e754 	.word	0x2003e754
   d5044:	2003e750 	.word	0x2003e750

000d5048 <_GLOBAL__sub_I__ZNSt12ctype_bynameIwEC2ERKSsj>:
   d5048:	4b24      	ldr	r3, [pc, #144]	; (d50dc <_GLOBAL__sub_I__ZNSt12ctype_bynameIwEC2ERKSsj+0x94>)
   d504a:	681a      	ldr	r2, [r3, #0]
   d504c:	07d0      	lsls	r0, r2, #31
   d504e:	bf5c      	itt	pl
   d5050:	2201      	movpl	r2, #1
   d5052:	601a      	strpl	r2, [r3, #0]
   d5054:	4b22      	ldr	r3, [pc, #136]	; (d50e0 <_GLOBAL__sub_I__ZNSt12ctype_bynameIwEC2ERKSsj+0x98>)
   d5056:	681a      	ldr	r2, [r3, #0]
   d5058:	07d1      	lsls	r1, r2, #31
   d505a:	bf5c      	itt	pl
   d505c:	2201      	movpl	r2, #1
   d505e:	601a      	strpl	r2, [r3, #0]
   d5060:	4b20      	ldr	r3, [pc, #128]	; (d50e4 <_GLOBAL__sub_I__ZNSt12ctype_bynameIwEC2ERKSsj+0x9c>)
   d5062:	681a      	ldr	r2, [r3, #0]
   d5064:	07d2      	lsls	r2, r2, #31
   d5066:	bf5c      	itt	pl
   d5068:	2201      	movpl	r2, #1
   d506a:	601a      	strpl	r2, [r3, #0]
   d506c:	4b1e      	ldr	r3, [pc, #120]	; (d50e8 <_GLOBAL__sub_I__ZNSt12ctype_bynameIwEC2ERKSsj+0xa0>)
   d506e:	681a      	ldr	r2, [r3, #0]
   d5070:	07d0      	lsls	r0, r2, #31
   d5072:	bf5c      	itt	pl
   d5074:	2201      	movpl	r2, #1
   d5076:	601a      	strpl	r2, [r3, #0]
   d5078:	4b1c      	ldr	r3, [pc, #112]	; (d50ec <_GLOBAL__sub_I__ZNSt12ctype_bynameIwEC2ERKSsj+0xa4>)
   d507a:	681a      	ldr	r2, [r3, #0]
   d507c:	07d1      	lsls	r1, r2, #31
   d507e:	bf5c      	itt	pl
   d5080:	2201      	movpl	r2, #1
   d5082:	601a      	strpl	r2, [r3, #0]
   d5084:	4b1a      	ldr	r3, [pc, #104]	; (d50f0 <_GLOBAL__sub_I__ZNSt12ctype_bynameIwEC2ERKSsj+0xa8>)
   d5086:	681a      	ldr	r2, [r3, #0]
   d5088:	07d2      	lsls	r2, r2, #31
   d508a:	bf5c      	itt	pl
   d508c:	2201      	movpl	r2, #1
   d508e:	601a      	strpl	r2, [r3, #0]
   d5090:	4b18      	ldr	r3, [pc, #96]	; (d50f4 <_GLOBAL__sub_I__ZNSt12ctype_bynameIwEC2ERKSsj+0xac>)
   d5092:	681a      	ldr	r2, [r3, #0]
   d5094:	07d0      	lsls	r0, r2, #31
   d5096:	bf5c      	itt	pl
   d5098:	2201      	movpl	r2, #1
   d509a:	601a      	strpl	r2, [r3, #0]
   d509c:	4b16      	ldr	r3, [pc, #88]	; (d50f8 <_GLOBAL__sub_I__ZNSt12ctype_bynameIwEC2ERKSsj+0xb0>)
   d509e:	681a      	ldr	r2, [r3, #0]
   d50a0:	07d1      	lsls	r1, r2, #31
   d50a2:	bf5c      	itt	pl
   d50a4:	2201      	movpl	r2, #1
   d50a6:	601a      	strpl	r2, [r3, #0]
   d50a8:	4b14      	ldr	r3, [pc, #80]	; (d50fc <_GLOBAL__sub_I__ZNSt12ctype_bynameIwEC2ERKSsj+0xb4>)
   d50aa:	681a      	ldr	r2, [r3, #0]
   d50ac:	07d2      	lsls	r2, r2, #31
   d50ae:	bf5c      	itt	pl
   d50b0:	2201      	movpl	r2, #1
   d50b2:	601a      	strpl	r2, [r3, #0]
   d50b4:	4b12      	ldr	r3, [pc, #72]	; (d5100 <_GLOBAL__sub_I__ZNSt12ctype_bynameIwEC2ERKSsj+0xb8>)
   d50b6:	681a      	ldr	r2, [r3, #0]
   d50b8:	07d0      	lsls	r0, r2, #31
   d50ba:	bf5c      	itt	pl
   d50bc:	2201      	movpl	r2, #1
   d50be:	601a      	strpl	r2, [r3, #0]
   d50c0:	4b10      	ldr	r3, [pc, #64]	; (d5104 <_GLOBAL__sub_I__ZNSt12ctype_bynameIwEC2ERKSsj+0xbc>)
   d50c2:	681a      	ldr	r2, [r3, #0]
   d50c4:	07d1      	lsls	r1, r2, #31
   d50c6:	bf5c      	itt	pl
   d50c8:	2201      	movpl	r2, #1
   d50ca:	601a      	strpl	r2, [r3, #0]
   d50cc:	4b0e      	ldr	r3, [pc, #56]	; (d5108 <_GLOBAL__sub_I__ZNSt12ctype_bynameIwEC2ERKSsj+0xc0>)
   d50ce:	681a      	ldr	r2, [r3, #0]
   d50d0:	07d2      	lsls	r2, r2, #31
   d50d2:	bf5c      	itt	pl
   d50d4:	2201      	movpl	r2, #1
   d50d6:	601a      	strpl	r2, [r3, #0]
   d50d8:	4770      	bx	lr
   d50da:	bf00      	nop
   d50dc:	2003e79c 	.word	0x2003e79c
   d50e0:	2003e798 	.word	0x2003e798
   d50e4:	2003e794 	.word	0x2003e794
   d50e8:	2003e790 	.word	0x2003e790
   d50ec:	2003e78c 	.word	0x2003e78c
   d50f0:	2003e788 	.word	0x2003e788
   d50f4:	2003e784 	.word	0x2003e784
   d50f8:	2003e780 	.word	0x2003e780
   d50fc:	2003e77c 	.word	0x2003e77c
   d5100:	2003e778 	.word	0x2003e778
   d5104:	2003e774 	.word	0x2003e774
   d5108:	2003e770 	.word	0x2003e770

000d510c <_GLOBAL__sub_I__ZNSt12ctype_bynameIcEC2ERKSsj>:
   d510c:	4b24      	ldr	r3, [pc, #144]	; (d51a0 <_GLOBAL__sub_I__ZNSt12ctype_bynameIcEC2ERKSsj+0x94>)
   d510e:	681a      	ldr	r2, [r3, #0]
   d5110:	07d0      	lsls	r0, r2, #31
   d5112:	bf5c      	itt	pl
   d5114:	2201      	movpl	r2, #1
   d5116:	601a      	strpl	r2, [r3, #0]
   d5118:	4b22      	ldr	r3, [pc, #136]	; (d51a4 <_GLOBAL__sub_I__ZNSt12ctype_bynameIcEC2ERKSsj+0x98>)
   d511a:	681a      	ldr	r2, [r3, #0]
   d511c:	07d1      	lsls	r1, r2, #31
   d511e:	bf5c      	itt	pl
   d5120:	2201      	movpl	r2, #1
   d5122:	601a      	strpl	r2, [r3, #0]
   d5124:	4b20      	ldr	r3, [pc, #128]	; (d51a8 <_GLOBAL__sub_I__ZNSt12ctype_bynameIcEC2ERKSsj+0x9c>)
   d5126:	681a      	ldr	r2, [r3, #0]
   d5128:	07d2      	lsls	r2, r2, #31
   d512a:	bf5c      	itt	pl
   d512c:	2201      	movpl	r2, #1
   d512e:	601a      	strpl	r2, [r3, #0]
   d5130:	4b1e      	ldr	r3, [pc, #120]	; (d51ac <_GLOBAL__sub_I__ZNSt12ctype_bynameIcEC2ERKSsj+0xa0>)
   d5132:	681a      	ldr	r2, [r3, #0]
   d5134:	07d0      	lsls	r0, r2, #31
   d5136:	bf5c      	itt	pl
   d5138:	2201      	movpl	r2, #1
   d513a:	601a      	strpl	r2, [r3, #0]
   d513c:	4b1c      	ldr	r3, [pc, #112]	; (d51b0 <_GLOBAL__sub_I__ZNSt12ctype_bynameIcEC2ERKSsj+0xa4>)
   d513e:	681a      	ldr	r2, [r3, #0]
   d5140:	07d1      	lsls	r1, r2, #31
   d5142:	bf5c      	itt	pl
   d5144:	2201      	movpl	r2, #1
   d5146:	601a      	strpl	r2, [r3, #0]
   d5148:	4b1a      	ldr	r3, [pc, #104]	; (d51b4 <_GLOBAL__sub_I__ZNSt12ctype_bynameIcEC2ERKSsj+0xa8>)
   d514a:	681a      	ldr	r2, [r3, #0]
   d514c:	07d2      	lsls	r2, r2, #31
   d514e:	bf5c      	itt	pl
   d5150:	2201      	movpl	r2, #1
   d5152:	601a      	strpl	r2, [r3, #0]
   d5154:	4b18      	ldr	r3, [pc, #96]	; (d51b8 <_GLOBAL__sub_I__ZNSt12ctype_bynameIcEC2ERKSsj+0xac>)
   d5156:	681a      	ldr	r2, [r3, #0]
   d5158:	07d0      	lsls	r0, r2, #31
   d515a:	bf5c      	itt	pl
   d515c:	2201      	movpl	r2, #1
   d515e:	601a      	strpl	r2, [r3, #0]
   d5160:	4b16      	ldr	r3, [pc, #88]	; (d51bc <_GLOBAL__sub_I__ZNSt12ctype_bynameIcEC2ERKSsj+0xb0>)
   d5162:	681a      	ldr	r2, [r3, #0]
   d5164:	07d1      	lsls	r1, r2, #31
   d5166:	bf5c      	itt	pl
   d5168:	2201      	movpl	r2, #1
   d516a:	601a      	strpl	r2, [r3, #0]
   d516c:	4b14      	ldr	r3, [pc, #80]	; (d51c0 <_GLOBAL__sub_I__ZNSt12ctype_bynameIcEC2ERKSsj+0xb4>)
   d516e:	681a      	ldr	r2, [r3, #0]
   d5170:	07d2      	lsls	r2, r2, #31
   d5172:	bf5c      	itt	pl
   d5174:	2201      	movpl	r2, #1
   d5176:	601a      	strpl	r2, [r3, #0]
   d5178:	4b12      	ldr	r3, [pc, #72]	; (d51c4 <_GLOBAL__sub_I__ZNSt12ctype_bynameIcEC2ERKSsj+0xb8>)
   d517a:	681a      	ldr	r2, [r3, #0]
   d517c:	07d0      	lsls	r0, r2, #31
   d517e:	bf5c      	itt	pl
   d5180:	2201      	movpl	r2, #1
   d5182:	601a      	strpl	r2, [r3, #0]
   d5184:	4b10      	ldr	r3, [pc, #64]	; (d51c8 <_GLOBAL__sub_I__ZNSt12ctype_bynameIcEC2ERKSsj+0xbc>)
   d5186:	681a      	ldr	r2, [r3, #0]
   d5188:	07d1      	lsls	r1, r2, #31
   d518a:	bf5c      	itt	pl
   d518c:	2201      	movpl	r2, #1
   d518e:	601a      	strpl	r2, [r3, #0]
   d5190:	4b0e      	ldr	r3, [pc, #56]	; (d51cc <_GLOBAL__sub_I__ZNSt12ctype_bynameIcEC2ERKSsj+0xc0>)
   d5192:	681a      	ldr	r2, [r3, #0]
   d5194:	07d2      	lsls	r2, r2, #31
   d5196:	bf5c      	itt	pl
   d5198:	2201      	movpl	r2, #1
   d519a:	601a      	strpl	r2, [r3, #0]
   d519c:	4770      	bx	lr
   d519e:	bf00      	nop
   d51a0:	2003e7cc 	.word	0x2003e7cc
   d51a4:	2003e7c8 	.word	0x2003e7c8
   d51a8:	2003e7c4 	.word	0x2003e7c4
   d51ac:	2003e7c0 	.word	0x2003e7c0
   d51b0:	2003e7bc 	.word	0x2003e7bc
   d51b4:	2003e7b8 	.word	0x2003e7b8
   d51b8:	2003e7b4 	.word	0x2003e7b4
   d51bc:	2003e7b0 	.word	0x2003e7b0
   d51c0:	2003e7ac 	.word	0x2003e7ac
   d51c4:	2003e7a8 	.word	0x2003e7a8
   d51c8:	2003e7a4 	.word	0x2003e7a4
   d51cc:	2003e7a0 	.word	0x2003e7a0

000d51d0 <_GLOBAL__sub_I__ZNSt12ctype_bynameIwEC2ERKNSt7__cxx1112basic_stringIcSt11char_traitsIcESaIcEEEj>:
   d51d0:	4b18      	ldr	r3, [pc, #96]	; (d5234 <_GLOBAL__sub_I__ZNSt12ctype_bynameIwEC2ERKNSt7__cxx1112basic_stringIcSt11char_traitsIcESaIcEEEj+0x64>)
   d51d2:	681a      	ldr	r2, [r3, #0]
   d51d4:	07d1      	lsls	r1, r2, #31
   d51d6:	bf5c      	itt	pl
   d51d8:	2201      	movpl	r2, #1
   d51da:	601a      	strpl	r2, [r3, #0]
   d51dc:	4b16      	ldr	r3, [pc, #88]	; (d5238 <_GLOBAL__sub_I__ZNSt12ctype_bynameIwEC2ERKNSt7__cxx1112basic_stringIcSt11char_traitsIcESaIcEEEj+0x68>)
   d51de:	681a      	ldr	r2, [r3, #0]
   d51e0:	07d2      	lsls	r2, r2, #31
   d51e2:	bf5c      	itt	pl
   d51e4:	2201      	movpl	r2, #1
   d51e6:	601a      	strpl	r2, [r3, #0]
   d51e8:	4b14      	ldr	r3, [pc, #80]	; (d523c <_GLOBAL__sub_I__ZNSt12ctype_bynameIwEC2ERKNSt7__cxx1112basic_stringIcSt11char_traitsIcESaIcEEEj+0x6c>)
   d51ea:	681a      	ldr	r2, [r3, #0]
   d51ec:	07d0      	lsls	r0, r2, #31
   d51ee:	bf5c      	itt	pl
   d51f0:	2201      	movpl	r2, #1
   d51f2:	601a      	strpl	r2, [r3, #0]
   d51f4:	4b12      	ldr	r3, [pc, #72]	; (d5240 <_GLOBAL__sub_I__ZNSt12ctype_bynameIwEC2ERKNSt7__cxx1112basic_stringIcSt11char_traitsIcESaIcEEEj+0x70>)
   d51f6:	681a      	ldr	r2, [r3, #0]
   d51f8:	07d1      	lsls	r1, r2, #31
   d51fa:	bf5c      	itt	pl
   d51fc:	2201      	movpl	r2, #1
   d51fe:	601a      	strpl	r2, [r3, #0]
   d5200:	4b10      	ldr	r3, [pc, #64]	; (d5244 <_GLOBAL__sub_I__ZNSt12ctype_bynameIwEC2ERKNSt7__cxx1112basic_stringIcSt11char_traitsIcESaIcEEEj+0x74>)
   d5202:	681a      	ldr	r2, [r3, #0]
   d5204:	07d2      	lsls	r2, r2, #31
   d5206:	bf5c      	itt	pl
   d5208:	2201      	movpl	r2, #1
   d520a:	601a      	strpl	r2, [r3, #0]
   d520c:	4b0e      	ldr	r3, [pc, #56]	; (d5248 <_GLOBAL__sub_I__ZNSt12ctype_bynameIwEC2ERKNSt7__cxx1112basic_stringIcSt11char_traitsIcESaIcEEEj+0x78>)
   d520e:	681a      	ldr	r2, [r3, #0]
   d5210:	07d0      	lsls	r0, r2, #31
   d5212:	bf5c      	itt	pl
   d5214:	2201      	movpl	r2, #1
   d5216:	601a      	strpl	r2, [r3, #0]
   d5218:	4b0c      	ldr	r3, [pc, #48]	; (d524c <_GLOBAL__sub_I__ZNSt12ctype_bynameIwEC2ERKNSt7__cxx1112basic_stringIcSt11char_traitsIcESaIcEEEj+0x7c>)
   d521a:	681a      	ldr	r2, [r3, #0]
   d521c:	07d1      	lsls	r1, r2, #31
   d521e:	bf5c      	itt	pl
   d5220:	2201      	movpl	r2, #1
   d5222:	601a      	strpl	r2, [r3, #0]
   d5224:	4b0a      	ldr	r3, [pc, #40]	; (d5250 <_GLOBAL__sub_I__ZNSt12ctype_bynameIwEC2ERKNSt7__cxx1112basic_stringIcSt11char_traitsIcESaIcEEEj+0x80>)
   d5226:	681a      	ldr	r2, [r3, #0]
   d5228:	07d2      	lsls	r2, r2, #31
   d522a:	bf5c      	itt	pl
   d522c:	2201      	movpl	r2, #1
   d522e:	601a      	strpl	r2, [r3, #0]
   d5230:	4770      	bx	lr
   d5232:	bf00      	nop
   d5234:	2003e7ec 	.word	0x2003e7ec
   d5238:	2003e7e8 	.word	0x2003e7e8
   d523c:	2003e7e4 	.word	0x2003e7e4
   d5240:	2003e7e0 	.word	0x2003e7e0
   d5244:	2003e7dc 	.word	0x2003e7dc
   d5248:	2003e7d8 	.word	0x2003e7d8
   d524c:	2003e7d4 	.word	0x2003e7d4
   d5250:	2003e7d0 	.word	0x2003e7d0

000d5254 <__aeabi_drsub>:
   d5254:	f081 4100 	eor.w	r1, r1, #2147483648	; 0x80000000
   d5258:	e002      	b.n	d5260 <__adddf3>
   d525a:	bf00      	nop

000d525c <__aeabi_dsub>:
   d525c:	f083 4300 	eor.w	r3, r3, #2147483648	; 0x80000000

000d5260 <__adddf3>:
   d5260:	b530      	push	{r4, r5, lr}
   d5262:	ea4f 0441 	mov.w	r4, r1, lsl #1
   d5266:	ea4f 0543 	mov.w	r5, r3, lsl #1
   d526a:	ea94 0f05 	teq	r4, r5
   d526e:	bf08      	it	eq
   d5270:	ea90 0f02 	teqeq	r0, r2
   d5274:	bf1f      	itttt	ne
   d5276:	ea54 0c00 	orrsne.w	ip, r4, r0
   d527a:	ea55 0c02 	orrsne.w	ip, r5, r2
   d527e:	ea7f 5c64 	mvnsne.w	ip, r4, asr #21
   d5282:	ea7f 5c65 	mvnsne.w	ip, r5, asr #21
   d5286:	f000 80e2 	beq.w	d544e <__adddf3+0x1ee>
   d528a:	ea4f 5454 	mov.w	r4, r4, lsr #21
   d528e:	ebd4 5555 	rsbs	r5, r4, r5, lsr #21
   d5292:	bfb8      	it	lt
   d5294:	426d      	neglt	r5, r5
   d5296:	dd0c      	ble.n	d52b2 <__adddf3+0x52>
   d5298:	442c      	add	r4, r5
   d529a:	ea80 0202 	eor.w	r2, r0, r2
   d529e:	ea81 0303 	eor.w	r3, r1, r3
   d52a2:	ea82 0000 	eor.w	r0, r2, r0
   d52a6:	ea83 0101 	eor.w	r1, r3, r1
   d52aa:	ea80 0202 	eor.w	r2, r0, r2
   d52ae:	ea81 0303 	eor.w	r3, r1, r3
   d52b2:	2d36      	cmp	r5, #54	; 0x36
   d52b4:	bf88      	it	hi
   d52b6:	bd30      	pophi	{r4, r5, pc}
   d52b8:	f011 4f00 	tst.w	r1, #2147483648	; 0x80000000
   d52bc:	ea4f 3101 	mov.w	r1, r1, lsl #12
   d52c0:	f44f 1c80 	mov.w	ip, #1048576	; 0x100000
   d52c4:	ea4c 3111 	orr.w	r1, ip, r1, lsr #12
   d52c8:	d002      	beq.n	d52d0 <__adddf3+0x70>
   d52ca:	4240      	negs	r0, r0
   d52cc:	eb61 0141 	sbc.w	r1, r1, r1, lsl #1
   d52d0:	f013 4f00 	tst.w	r3, #2147483648	; 0x80000000
   d52d4:	ea4f 3303 	mov.w	r3, r3, lsl #12
   d52d8:	ea4c 3313 	orr.w	r3, ip, r3, lsr #12
   d52dc:	d002      	beq.n	d52e4 <__adddf3+0x84>
   d52de:	4252      	negs	r2, r2
   d52e0:	eb63 0343 	sbc.w	r3, r3, r3, lsl #1
   d52e4:	ea94 0f05 	teq	r4, r5
   d52e8:	f000 80a7 	beq.w	d543a <__adddf3+0x1da>
   d52ec:	f1a4 0401 	sub.w	r4, r4, #1
   d52f0:	f1d5 0e20 	rsbs	lr, r5, #32
   d52f4:	db0d      	blt.n	d5312 <__adddf3+0xb2>
   d52f6:	fa02 fc0e 	lsl.w	ip, r2, lr
   d52fa:	fa22 f205 	lsr.w	r2, r2, r5
   d52fe:	1880      	adds	r0, r0, r2
   d5300:	f141 0100 	adc.w	r1, r1, #0
   d5304:	fa03 f20e 	lsl.w	r2, r3, lr
   d5308:	1880      	adds	r0, r0, r2
   d530a:	fa43 f305 	asr.w	r3, r3, r5
   d530e:	4159      	adcs	r1, r3
   d5310:	e00e      	b.n	d5330 <__adddf3+0xd0>
   d5312:	f1a5 0520 	sub.w	r5, r5, #32
   d5316:	f10e 0e20 	add.w	lr, lr, #32
   d531a:	2a01      	cmp	r2, #1
   d531c:	fa03 fc0e 	lsl.w	ip, r3, lr
   d5320:	bf28      	it	cs
   d5322:	f04c 0c02 	orrcs.w	ip, ip, #2
   d5326:	fa43 f305 	asr.w	r3, r3, r5
   d532a:	18c0      	adds	r0, r0, r3
   d532c:	eb51 71e3 	adcs.w	r1, r1, r3, asr #31
   d5330:	f001 4500 	and.w	r5, r1, #2147483648	; 0x80000000
   d5334:	d507      	bpl.n	d5346 <__adddf3+0xe6>
   d5336:	f04f 0e00 	mov.w	lr, #0
   d533a:	f1dc 0c00 	rsbs	ip, ip, #0
   d533e:	eb7e 0000 	sbcs.w	r0, lr, r0
   d5342:	eb6e 0101 	sbc.w	r1, lr, r1
   d5346:	f5b1 1f80 	cmp.w	r1, #1048576	; 0x100000
   d534a:	d31b      	bcc.n	d5384 <__adddf3+0x124>
   d534c:	f5b1 1f00 	cmp.w	r1, #2097152	; 0x200000
   d5350:	d30c      	bcc.n	d536c <__adddf3+0x10c>
   d5352:	0849      	lsrs	r1, r1, #1
   d5354:	ea5f 0030 	movs.w	r0, r0, rrx
   d5358:	ea4f 0c3c 	mov.w	ip, ip, rrx
   d535c:	f104 0401 	add.w	r4, r4, #1
   d5360:	ea4f 5244 	mov.w	r2, r4, lsl #21
   d5364:	f512 0f80 	cmn.w	r2, #4194304	; 0x400000
   d5368:	f080 809a 	bcs.w	d54a0 <__adddf3+0x240>
   d536c:	f1bc 4f00 	cmp.w	ip, #2147483648	; 0x80000000
   d5370:	bf08      	it	eq
   d5372:	ea5f 0c50 	movseq.w	ip, r0, lsr #1
   d5376:	f150 0000 	adcs.w	r0, r0, #0
   d537a:	eb41 5104 	adc.w	r1, r1, r4, lsl #20
   d537e:	ea41 0105 	orr.w	r1, r1, r5
   d5382:	bd30      	pop	{r4, r5, pc}
   d5384:	ea5f 0c4c 	movs.w	ip, ip, lsl #1
   d5388:	4140      	adcs	r0, r0
   d538a:	eb41 0101 	adc.w	r1, r1, r1
   d538e:	f411 1f80 	tst.w	r1, #1048576	; 0x100000
   d5392:	f1a4 0401 	sub.w	r4, r4, #1
   d5396:	d1e9      	bne.n	d536c <__adddf3+0x10c>
   d5398:	f091 0f00 	teq	r1, #0
   d539c:	bf04      	itt	eq
   d539e:	4601      	moveq	r1, r0
   d53a0:	2000      	moveq	r0, #0
   d53a2:	fab1 f381 	clz	r3, r1
   d53a6:	bf08      	it	eq
   d53a8:	3320      	addeq	r3, #32
   d53aa:	f1a3 030b 	sub.w	r3, r3, #11
   d53ae:	f1b3 0220 	subs.w	r2, r3, #32
   d53b2:	da0c      	bge.n	d53ce <__adddf3+0x16e>
   d53b4:	320c      	adds	r2, #12
   d53b6:	dd08      	ble.n	d53ca <__adddf3+0x16a>
   d53b8:	f102 0c14 	add.w	ip, r2, #20
   d53bc:	f1c2 020c 	rsb	r2, r2, #12
   d53c0:	fa01 f00c 	lsl.w	r0, r1, ip
   d53c4:	fa21 f102 	lsr.w	r1, r1, r2
   d53c8:	e00c      	b.n	d53e4 <__adddf3+0x184>
   d53ca:	f102 0214 	add.w	r2, r2, #20
   d53ce:	bfd8      	it	le
   d53d0:	f1c2 0c20 	rsble	ip, r2, #32
   d53d4:	fa01 f102 	lsl.w	r1, r1, r2
   d53d8:	fa20 fc0c 	lsr.w	ip, r0, ip
   d53dc:	bfdc      	itt	le
   d53de:	ea41 010c 	orrle.w	r1, r1, ip
   d53e2:	4090      	lslle	r0, r2
   d53e4:	1ae4      	subs	r4, r4, r3
   d53e6:	bfa2      	ittt	ge
   d53e8:	eb01 5104 	addge.w	r1, r1, r4, lsl #20
   d53ec:	4329      	orrge	r1, r5
   d53ee:	bd30      	popge	{r4, r5, pc}
   d53f0:	ea6f 0404 	mvn.w	r4, r4
   d53f4:	3c1f      	subs	r4, #31
   d53f6:	da1c      	bge.n	d5432 <__adddf3+0x1d2>
   d53f8:	340c      	adds	r4, #12
   d53fa:	dc0e      	bgt.n	d541a <__adddf3+0x1ba>
   d53fc:	f104 0414 	add.w	r4, r4, #20
   d5400:	f1c4 0220 	rsb	r2, r4, #32
   d5404:	fa20 f004 	lsr.w	r0, r0, r4
   d5408:	fa01 f302 	lsl.w	r3, r1, r2
   d540c:	ea40 0003 	orr.w	r0, r0, r3
   d5410:	fa21 f304 	lsr.w	r3, r1, r4
   d5414:	ea45 0103 	orr.w	r1, r5, r3
   d5418:	bd30      	pop	{r4, r5, pc}
   d541a:	f1c4 040c 	rsb	r4, r4, #12
   d541e:	f1c4 0220 	rsb	r2, r4, #32
   d5422:	fa20 f002 	lsr.w	r0, r0, r2
   d5426:	fa01 f304 	lsl.w	r3, r1, r4
   d542a:	ea40 0003 	orr.w	r0, r0, r3
   d542e:	4629      	mov	r1, r5
   d5430:	bd30      	pop	{r4, r5, pc}
   d5432:	fa21 f004 	lsr.w	r0, r1, r4
   d5436:	4629      	mov	r1, r5
   d5438:	bd30      	pop	{r4, r5, pc}
   d543a:	f094 0f00 	teq	r4, #0
   d543e:	f483 1380 	eor.w	r3, r3, #1048576	; 0x100000
   d5442:	bf06      	itte	eq
   d5444:	f481 1180 	eoreq.w	r1, r1, #1048576	; 0x100000
   d5448:	3401      	addeq	r4, #1
   d544a:	3d01      	subne	r5, #1
   d544c:	e74e      	b.n	d52ec <__adddf3+0x8c>
   d544e:	ea7f 5c64 	mvns.w	ip, r4, asr #21
   d5452:	bf18      	it	ne
   d5454:	ea7f 5c65 	mvnsne.w	ip, r5, asr #21
   d5458:	d029      	beq.n	d54ae <__adddf3+0x24e>
   d545a:	ea94 0f05 	teq	r4, r5
   d545e:	bf08      	it	eq
   d5460:	ea90 0f02 	teqeq	r0, r2
   d5464:	d005      	beq.n	d5472 <__adddf3+0x212>
   d5466:	ea54 0c00 	orrs.w	ip, r4, r0
   d546a:	bf04      	itt	eq
   d546c:	4619      	moveq	r1, r3
   d546e:	4610      	moveq	r0, r2
   d5470:	bd30      	pop	{r4, r5, pc}
   d5472:	ea91 0f03 	teq	r1, r3
   d5476:	bf1e      	ittt	ne
   d5478:	2100      	movne	r1, #0
   d547a:	2000      	movne	r0, #0
   d547c:	bd30      	popne	{r4, r5, pc}
   d547e:	ea5f 5c54 	movs.w	ip, r4, lsr #21
   d5482:	d105      	bne.n	d5490 <__adddf3+0x230>
   d5484:	0040      	lsls	r0, r0, #1
   d5486:	4149      	adcs	r1, r1
   d5488:	bf28      	it	cs
   d548a:	f041 4100 	orrcs.w	r1, r1, #2147483648	; 0x80000000
   d548e:	bd30      	pop	{r4, r5, pc}
   d5490:	f514 0480 	adds.w	r4, r4, #4194304	; 0x400000
   d5494:	bf3c      	itt	cc
   d5496:	f501 1180 	addcc.w	r1, r1, #1048576	; 0x100000
   d549a:	bd30      	popcc	{r4, r5, pc}
   d549c:	f001 4500 	and.w	r5, r1, #2147483648	; 0x80000000
   d54a0:	f045 41fe 	orr.w	r1, r5, #2130706432	; 0x7f000000
   d54a4:	f441 0170 	orr.w	r1, r1, #15728640	; 0xf00000
   d54a8:	f04f 0000 	mov.w	r0, #0
   d54ac:	bd30      	pop	{r4, r5, pc}
   d54ae:	ea7f 5c64 	mvns.w	ip, r4, asr #21
   d54b2:	bf1a      	itte	ne
   d54b4:	4619      	movne	r1, r3
   d54b6:	4610      	movne	r0, r2
   d54b8:	ea7f 5c65 	mvnseq.w	ip, r5, asr #21
   d54bc:	bf1c      	itt	ne
   d54be:	460b      	movne	r3, r1
   d54c0:	4602      	movne	r2, r0
   d54c2:	ea50 3401 	orrs.w	r4, r0, r1, lsl #12
   d54c6:	bf06      	itte	eq
   d54c8:	ea52 3503 	orrseq.w	r5, r2, r3, lsl #12
   d54cc:	ea91 0f03 	teqeq	r1, r3
   d54d0:	f441 2100 	orrne.w	r1, r1, #524288	; 0x80000
   d54d4:	bd30      	pop	{r4, r5, pc}
   d54d6:	bf00      	nop

000d54d8 <__aeabi_ui2d>:
   d54d8:	f090 0f00 	teq	r0, #0
   d54dc:	bf04      	itt	eq
   d54de:	2100      	moveq	r1, #0
   d54e0:	4770      	bxeq	lr
   d54e2:	b530      	push	{r4, r5, lr}
   d54e4:	f44f 6480 	mov.w	r4, #1024	; 0x400
   d54e8:	f104 0432 	add.w	r4, r4, #50	; 0x32
   d54ec:	f04f 0500 	mov.w	r5, #0
   d54f0:	f04f 0100 	mov.w	r1, #0
   d54f4:	e750      	b.n	d5398 <__adddf3+0x138>
   d54f6:	bf00      	nop

000d54f8 <__aeabi_i2d>:
   d54f8:	f090 0f00 	teq	r0, #0
   d54fc:	bf04      	itt	eq
   d54fe:	2100      	moveq	r1, #0
   d5500:	4770      	bxeq	lr
   d5502:	b530      	push	{r4, r5, lr}
   d5504:	f44f 6480 	mov.w	r4, #1024	; 0x400
   d5508:	f104 0432 	add.w	r4, r4, #50	; 0x32
   d550c:	f010 4500 	ands.w	r5, r0, #2147483648	; 0x80000000
   d5510:	bf48      	it	mi
   d5512:	4240      	negmi	r0, r0
   d5514:	f04f 0100 	mov.w	r1, #0
   d5518:	e73e      	b.n	d5398 <__adddf3+0x138>
   d551a:	bf00      	nop

000d551c <__aeabi_f2d>:
   d551c:	0042      	lsls	r2, r0, #1
   d551e:	ea4f 01e2 	mov.w	r1, r2, asr #3
   d5522:	ea4f 0131 	mov.w	r1, r1, rrx
   d5526:	ea4f 7002 	mov.w	r0, r2, lsl #28
   d552a:	bf1f      	itttt	ne
   d552c:	f012 437f 	andsne.w	r3, r2, #4278190080	; 0xff000000
   d5530:	f093 4f7f 	teqne	r3, #4278190080	; 0xff000000
   d5534:	f081 5160 	eorne.w	r1, r1, #939524096	; 0x38000000
   d5538:	4770      	bxne	lr
   d553a:	f092 0f00 	teq	r2, #0
   d553e:	bf14      	ite	ne
   d5540:	f093 4f7f 	teqne	r3, #4278190080	; 0xff000000
   d5544:	4770      	bxeq	lr
   d5546:	b530      	push	{r4, r5, lr}
   d5548:	f44f 7460 	mov.w	r4, #896	; 0x380
   d554c:	f001 4500 	and.w	r5, r1, #2147483648	; 0x80000000
   d5550:	f021 4100 	bic.w	r1, r1, #2147483648	; 0x80000000
   d5554:	e720      	b.n	d5398 <__adddf3+0x138>
   d5556:	bf00      	nop

000d5558 <__aeabi_ul2d>:
   d5558:	ea50 0201 	orrs.w	r2, r0, r1
   d555c:	bf08      	it	eq
   d555e:	4770      	bxeq	lr
   d5560:	b530      	push	{r4, r5, lr}
   d5562:	f04f 0500 	mov.w	r5, #0
   d5566:	e00a      	b.n	d557e <__aeabi_l2d+0x16>

000d5568 <__aeabi_l2d>:
   d5568:	ea50 0201 	orrs.w	r2, r0, r1
   d556c:	bf08      	it	eq
   d556e:	4770      	bxeq	lr
   d5570:	b530      	push	{r4, r5, lr}
   d5572:	f011 4500 	ands.w	r5, r1, #2147483648	; 0x80000000
   d5576:	d502      	bpl.n	d557e <__aeabi_l2d+0x16>
   d5578:	4240      	negs	r0, r0
   d557a:	eb61 0141 	sbc.w	r1, r1, r1, lsl #1
   d557e:	f44f 6480 	mov.w	r4, #1024	; 0x400
   d5582:	f104 0432 	add.w	r4, r4, #50	; 0x32
   d5586:	ea5f 5c91 	movs.w	ip, r1, lsr #22
   d558a:	f43f aedc 	beq.w	d5346 <__adddf3+0xe6>
   d558e:	f04f 0203 	mov.w	r2, #3
   d5592:	ea5f 0cdc 	movs.w	ip, ip, lsr #3
   d5596:	bf18      	it	ne
   d5598:	3203      	addne	r2, #3
   d559a:	ea5f 0cdc 	movs.w	ip, ip, lsr #3
   d559e:	bf18      	it	ne
   d55a0:	3203      	addne	r2, #3
   d55a2:	eb02 02dc 	add.w	r2, r2, ip, lsr #3
   d55a6:	f1c2 0320 	rsb	r3, r2, #32
   d55aa:	fa00 fc03 	lsl.w	ip, r0, r3
   d55ae:	fa20 f002 	lsr.w	r0, r0, r2
   d55b2:	fa01 fe03 	lsl.w	lr, r1, r3
   d55b6:	ea40 000e 	orr.w	r0, r0, lr
   d55ba:	fa21 f102 	lsr.w	r1, r1, r2
   d55be:	4414      	add	r4, r2
   d55c0:	e6c1      	b.n	d5346 <__adddf3+0xe6>
   d55c2:	bf00      	nop

000d55c4 <__aeabi_dmul>:
   d55c4:	b570      	push	{r4, r5, r6, lr}
   d55c6:	f04f 0cff 	mov.w	ip, #255	; 0xff
   d55ca:	f44c 6ce0 	orr.w	ip, ip, #1792	; 0x700
   d55ce:	ea1c 5411 	ands.w	r4, ip, r1, lsr #20
   d55d2:	bf1d      	ittte	ne
   d55d4:	ea1c 5513 	andsne.w	r5, ip, r3, lsr #20
   d55d8:	ea94 0f0c 	teqne	r4, ip
   d55dc:	ea95 0f0c 	teqne	r5, ip
   d55e0:	f000 f8de 	bleq	d57a0 <__aeabi_dmul+0x1dc>
   d55e4:	442c      	add	r4, r5
   d55e6:	ea81 0603 	eor.w	r6, r1, r3
   d55ea:	ea21 514c 	bic.w	r1, r1, ip, lsl #21
   d55ee:	ea23 534c 	bic.w	r3, r3, ip, lsl #21
   d55f2:	ea50 3501 	orrs.w	r5, r0, r1, lsl #12
   d55f6:	bf18      	it	ne
   d55f8:	ea52 3503 	orrsne.w	r5, r2, r3, lsl #12
   d55fc:	f441 1180 	orr.w	r1, r1, #1048576	; 0x100000
   d5600:	f443 1380 	orr.w	r3, r3, #1048576	; 0x100000
   d5604:	d038      	beq.n	d5678 <__aeabi_dmul+0xb4>
   d5606:	fba0 ce02 	umull	ip, lr, r0, r2
   d560a:	f04f 0500 	mov.w	r5, #0
   d560e:	fbe1 e502 	umlal	lr, r5, r1, r2
   d5612:	f006 4200 	and.w	r2, r6, #2147483648	; 0x80000000
   d5616:	fbe0 e503 	umlal	lr, r5, r0, r3
   d561a:	f04f 0600 	mov.w	r6, #0
   d561e:	fbe1 5603 	umlal	r5, r6, r1, r3
   d5622:	f09c 0f00 	teq	ip, #0
   d5626:	bf18      	it	ne
   d5628:	f04e 0e01 	orrne.w	lr, lr, #1
   d562c:	f1a4 04ff 	sub.w	r4, r4, #255	; 0xff
   d5630:	f5b6 7f00 	cmp.w	r6, #512	; 0x200
   d5634:	f564 7440 	sbc.w	r4, r4, #768	; 0x300
   d5638:	d204      	bcs.n	d5644 <__aeabi_dmul+0x80>
   d563a:	ea5f 0e4e 	movs.w	lr, lr, lsl #1
   d563e:	416d      	adcs	r5, r5
   d5640:	eb46 0606 	adc.w	r6, r6, r6
   d5644:	ea42 21c6 	orr.w	r1, r2, r6, lsl #11
   d5648:	ea41 5155 	orr.w	r1, r1, r5, lsr #21
   d564c:	ea4f 20c5 	mov.w	r0, r5, lsl #11
   d5650:	ea40 505e 	orr.w	r0, r0, lr, lsr #21
   d5654:	ea4f 2ece 	mov.w	lr, lr, lsl #11
   d5658:	f1b4 0cfd 	subs.w	ip, r4, #253	; 0xfd
   d565c:	bf88      	it	hi
   d565e:	f5bc 6fe0 	cmphi.w	ip, #1792	; 0x700
   d5662:	d81e      	bhi.n	d56a2 <__aeabi_dmul+0xde>
   d5664:	f1be 4f00 	cmp.w	lr, #2147483648	; 0x80000000
   d5668:	bf08      	it	eq
   d566a:	ea5f 0e50 	movseq.w	lr, r0, lsr #1
   d566e:	f150 0000 	adcs.w	r0, r0, #0
   d5672:	eb41 5104 	adc.w	r1, r1, r4, lsl #20
   d5676:	bd70      	pop	{r4, r5, r6, pc}
   d5678:	f006 4600 	and.w	r6, r6, #2147483648	; 0x80000000
   d567c:	ea46 0101 	orr.w	r1, r6, r1
   d5680:	ea40 0002 	orr.w	r0, r0, r2
   d5684:	ea81 0103 	eor.w	r1, r1, r3
   d5688:	ebb4 045c 	subs.w	r4, r4, ip, lsr #1
   d568c:	bfc2      	ittt	gt
   d568e:	ebd4 050c 	rsbsgt	r5, r4, ip
   d5692:	ea41 5104 	orrgt.w	r1, r1, r4, lsl #20
   d5696:	bd70      	popgt	{r4, r5, r6, pc}
   d5698:	f441 1180 	orr.w	r1, r1, #1048576	; 0x100000
   d569c:	f04f 0e00 	mov.w	lr, #0
   d56a0:	3c01      	subs	r4, #1
   d56a2:	f300 80ab 	bgt.w	d57fc <__aeabi_dmul+0x238>
   d56a6:	f114 0f36 	cmn.w	r4, #54	; 0x36
   d56aa:	bfde      	ittt	le
   d56ac:	2000      	movle	r0, #0
   d56ae:	f001 4100 	andle.w	r1, r1, #2147483648	; 0x80000000
   d56b2:	bd70      	pople	{r4, r5, r6, pc}
   d56b4:	f1c4 0400 	rsb	r4, r4, #0
   d56b8:	3c20      	subs	r4, #32
   d56ba:	da35      	bge.n	d5728 <__aeabi_dmul+0x164>
   d56bc:	340c      	adds	r4, #12
   d56be:	dc1b      	bgt.n	d56f8 <__aeabi_dmul+0x134>
   d56c0:	f104 0414 	add.w	r4, r4, #20
   d56c4:	f1c4 0520 	rsb	r5, r4, #32
   d56c8:	fa00 f305 	lsl.w	r3, r0, r5
   d56cc:	fa20 f004 	lsr.w	r0, r0, r4
   d56d0:	fa01 f205 	lsl.w	r2, r1, r5
   d56d4:	ea40 0002 	orr.w	r0, r0, r2
   d56d8:	f001 4200 	and.w	r2, r1, #2147483648	; 0x80000000
   d56dc:	f021 4100 	bic.w	r1, r1, #2147483648	; 0x80000000
   d56e0:	eb10 70d3 	adds.w	r0, r0, r3, lsr #31
   d56e4:	fa21 f604 	lsr.w	r6, r1, r4
   d56e8:	eb42 0106 	adc.w	r1, r2, r6
   d56ec:	ea5e 0e43 	orrs.w	lr, lr, r3, lsl #1
   d56f0:	bf08      	it	eq
   d56f2:	ea20 70d3 	biceq.w	r0, r0, r3, lsr #31
   d56f6:	bd70      	pop	{r4, r5, r6, pc}
   d56f8:	f1c4 040c 	rsb	r4, r4, #12
   d56fc:	f1c4 0520 	rsb	r5, r4, #32
   d5700:	fa00 f304 	lsl.w	r3, r0, r4
   d5704:	fa20 f005 	lsr.w	r0, r0, r5
   d5708:	fa01 f204 	lsl.w	r2, r1, r4
   d570c:	ea40 0002 	orr.w	r0, r0, r2
   d5710:	f001 4100 	and.w	r1, r1, #2147483648	; 0x80000000
   d5714:	eb10 70d3 	adds.w	r0, r0, r3, lsr #31
   d5718:	f141 0100 	adc.w	r1, r1, #0
   d571c:	ea5e 0e43 	orrs.w	lr, lr, r3, lsl #1
   d5720:	bf08      	it	eq
   d5722:	ea20 70d3 	biceq.w	r0, r0, r3, lsr #31
   d5726:	bd70      	pop	{r4, r5, r6, pc}
   d5728:	f1c4 0520 	rsb	r5, r4, #32
   d572c:	fa00 f205 	lsl.w	r2, r0, r5
   d5730:	ea4e 0e02 	orr.w	lr, lr, r2
   d5734:	fa20 f304 	lsr.w	r3, r0, r4
   d5738:	fa01 f205 	lsl.w	r2, r1, r5
   d573c:	ea43 0302 	orr.w	r3, r3, r2
   d5740:	fa21 f004 	lsr.w	r0, r1, r4
   d5744:	f001 4100 	and.w	r1, r1, #2147483648	; 0x80000000
   d5748:	fa21 f204 	lsr.w	r2, r1, r4
   d574c:	ea20 0002 	bic.w	r0, r0, r2
   d5750:	eb00 70d3 	add.w	r0, r0, r3, lsr #31
   d5754:	ea5e 0e43 	orrs.w	lr, lr, r3, lsl #1
   d5758:	bf08      	it	eq
   d575a:	ea20 70d3 	biceq.w	r0, r0, r3, lsr #31
   d575e:	bd70      	pop	{r4, r5, r6, pc}
   d5760:	f094 0f00 	teq	r4, #0
   d5764:	d10f      	bne.n	d5786 <__aeabi_dmul+0x1c2>
   d5766:	f001 4600 	and.w	r6, r1, #2147483648	; 0x80000000
   d576a:	0040      	lsls	r0, r0, #1
   d576c:	eb41 0101 	adc.w	r1, r1, r1
   d5770:	f411 1f80 	tst.w	r1, #1048576	; 0x100000
   d5774:	bf08      	it	eq
   d5776:	3c01      	subeq	r4, #1
   d5778:	d0f7      	beq.n	d576a <__aeabi_dmul+0x1a6>
   d577a:	ea41 0106 	orr.w	r1, r1, r6
   d577e:	f095 0f00 	teq	r5, #0
   d5782:	bf18      	it	ne
   d5784:	4770      	bxne	lr
   d5786:	f003 4600 	and.w	r6, r3, #2147483648	; 0x80000000
   d578a:	0052      	lsls	r2, r2, #1
   d578c:	eb43 0303 	adc.w	r3, r3, r3
   d5790:	f413 1f80 	tst.w	r3, #1048576	; 0x100000
   d5794:	bf08      	it	eq
   d5796:	3d01      	subeq	r5, #1
   d5798:	d0f7      	beq.n	d578a <__aeabi_dmul+0x1c6>
   d579a:	ea43 0306 	orr.w	r3, r3, r6
   d579e:	4770      	bx	lr
   d57a0:	ea94 0f0c 	teq	r4, ip
   d57a4:	ea0c 5513 	and.w	r5, ip, r3, lsr #20
   d57a8:	bf18      	it	ne
   d57aa:	ea95 0f0c 	teqne	r5, ip
   d57ae:	d00c      	beq.n	d57ca <__aeabi_dmul+0x206>
   d57b0:	ea50 0641 	orrs.w	r6, r0, r1, lsl #1
   d57b4:	bf18      	it	ne
   d57b6:	ea52 0643 	orrsne.w	r6, r2, r3, lsl #1
   d57ba:	d1d1      	bne.n	d5760 <__aeabi_dmul+0x19c>
   d57bc:	ea81 0103 	eor.w	r1, r1, r3
   d57c0:	f001 4100 	and.w	r1, r1, #2147483648	; 0x80000000
   d57c4:	f04f 0000 	mov.w	r0, #0
   d57c8:	bd70      	pop	{r4, r5, r6, pc}
   d57ca:	ea50 0641 	orrs.w	r6, r0, r1, lsl #1
   d57ce:	bf06      	itte	eq
   d57d0:	4610      	moveq	r0, r2
   d57d2:	4619      	moveq	r1, r3
   d57d4:	ea52 0643 	orrsne.w	r6, r2, r3, lsl #1
   d57d8:	d019      	beq.n	d580e <__aeabi_dmul+0x24a>
   d57da:	ea94 0f0c 	teq	r4, ip
   d57de:	d102      	bne.n	d57e6 <__aeabi_dmul+0x222>
   d57e0:	ea50 3601 	orrs.w	r6, r0, r1, lsl #12
   d57e4:	d113      	bne.n	d580e <__aeabi_dmul+0x24a>
   d57e6:	ea95 0f0c 	teq	r5, ip
   d57ea:	d105      	bne.n	d57f8 <__aeabi_dmul+0x234>
   d57ec:	ea52 3603 	orrs.w	r6, r2, r3, lsl #12
   d57f0:	bf1c      	itt	ne
   d57f2:	4610      	movne	r0, r2
   d57f4:	4619      	movne	r1, r3
   d57f6:	d10a      	bne.n	d580e <__aeabi_dmul+0x24a>
   d57f8:	ea81 0103 	eor.w	r1, r1, r3
   d57fc:	f001 4100 	and.w	r1, r1, #2147483648	; 0x80000000
   d5800:	f041 41fe 	orr.w	r1, r1, #2130706432	; 0x7f000000
   d5804:	f441 0170 	orr.w	r1, r1, #15728640	; 0xf00000
   d5808:	f04f 0000 	mov.w	r0, #0
   d580c:	bd70      	pop	{r4, r5, r6, pc}
   d580e:	f041 41fe 	orr.w	r1, r1, #2130706432	; 0x7f000000
   d5812:	f441 0178 	orr.w	r1, r1, #16252928	; 0xf80000
   d5816:	bd70      	pop	{r4, r5, r6, pc}

000d5818 <__aeabi_ddiv>:
   d5818:	b570      	push	{r4, r5, r6, lr}
   d581a:	f04f 0cff 	mov.w	ip, #255	; 0xff
   d581e:	f44c 6ce0 	orr.w	ip, ip, #1792	; 0x700
   d5822:	ea1c 5411 	ands.w	r4, ip, r1, lsr #20
   d5826:	bf1d      	ittte	ne
   d5828:	ea1c 5513 	andsne.w	r5, ip, r3, lsr #20
   d582c:	ea94 0f0c 	teqne	r4, ip
   d5830:	ea95 0f0c 	teqne	r5, ip
   d5834:	f000 f8a7 	bleq	d5986 <__aeabi_ddiv+0x16e>
   d5838:	eba4 0405 	sub.w	r4, r4, r5
   d583c:	ea81 0e03 	eor.w	lr, r1, r3
   d5840:	ea52 3503 	orrs.w	r5, r2, r3, lsl #12
   d5844:	ea4f 3101 	mov.w	r1, r1, lsl #12
   d5848:	f000 8088 	beq.w	d595c <__aeabi_ddiv+0x144>
   d584c:	ea4f 3303 	mov.w	r3, r3, lsl #12
   d5850:	f04f 5580 	mov.w	r5, #268435456	; 0x10000000
   d5854:	ea45 1313 	orr.w	r3, r5, r3, lsr #4
   d5858:	ea43 6312 	orr.w	r3, r3, r2, lsr #24
   d585c:	ea4f 2202 	mov.w	r2, r2, lsl #8
   d5860:	ea45 1511 	orr.w	r5, r5, r1, lsr #4
   d5864:	ea45 6510 	orr.w	r5, r5, r0, lsr #24
   d5868:	ea4f 2600 	mov.w	r6, r0, lsl #8
   d586c:	f00e 4100 	and.w	r1, lr, #2147483648	; 0x80000000
   d5870:	429d      	cmp	r5, r3
   d5872:	bf08      	it	eq
   d5874:	4296      	cmpeq	r6, r2
   d5876:	f144 04fd 	adc.w	r4, r4, #253	; 0xfd
   d587a:	f504 7440 	add.w	r4, r4, #768	; 0x300
   d587e:	d202      	bcs.n	d5886 <__aeabi_ddiv+0x6e>
   d5880:	085b      	lsrs	r3, r3, #1
   d5882:	ea4f 0232 	mov.w	r2, r2, rrx
   d5886:	1ab6      	subs	r6, r6, r2
   d5888:	eb65 0503 	sbc.w	r5, r5, r3
   d588c:	085b      	lsrs	r3, r3, #1
   d588e:	ea4f 0232 	mov.w	r2, r2, rrx
   d5892:	f44f 1080 	mov.w	r0, #1048576	; 0x100000
   d5896:	f44f 2c00 	mov.w	ip, #524288	; 0x80000
   d589a:	ebb6 0e02 	subs.w	lr, r6, r2
   d589e:	eb75 0e03 	sbcs.w	lr, r5, r3
   d58a2:	bf22      	ittt	cs
   d58a4:	1ab6      	subcs	r6, r6, r2
   d58a6:	4675      	movcs	r5, lr
   d58a8:	ea40 000c 	orrcs.w	r0, r0, ip
   d58ac:	085b      	lsrs	r3, r3, #1
   d58ae:	ea4f 0232 	mov.w	r2, r2, rrx
   d58b2:	ebb6 0e02 	subs.w	lr, r6, r2
   d58b6:	eb75 0e03 	sbcs.w	lr, r5, r3
   d58ba:	bf22      	ittt	cs
   d58bc:	1ab6      	subcs	r6, r6, r2
   d58be:	4675      	movcs	r5, lr
   d58c0:	ea40 005c 	orrcs.w	r0, r0, ip, lsr #1
   d58c4:	085b      	lsrs	r3, r3, #1
   d58c6:	ea4f 0232 	mov.w	r2, r2, rrx
   d58ca:	ebb6 0e02 	subs.w	lr, r6, r2
   d58ce:	eb75 0e03 	sbcs.w	lr, r5, r3
   d58d2:	bf22      	ittt	cs
   d58d4:	1ab6      	subcs	r6, r6, r2
   d58d6:	4675      	movcs	r5, lr
   d58d8:	ea40 009c 	orrcs.w	r0, r0, ip, lsr #2
   d58dc:	085b      	lsrs	r3, r3, #1
   d58de:	ea4f 0232 	mov.w	r2, r2, rrx
   d58e2:	ebb6 0e02 	subs.w	lr, r6, r2
   d58e6:	eb75 0e03 	sbcs.w	lr, r5, r3
   d58ea:	bf22      	ittt	cs
   d58ec:	1ab6      	subcs	r6, r6, r2
   d58ee:	4675      	movcs	r5, lr
   d58f0:	ea40 00dc 	orrcs.w	r0, r0, ip, lsr #3
   d58f4:	ea55 0e06 	orrs.w	lr, r5, r6
   d58f8:	d018      	beq.n	d592c <__aeabi_ddiv+0x114>
   d58fa:	ea4f 1505 	mov.w	r5, r5, lsl #4
   d58fe:	ea45 7516 	orr.w	r5, r5, r6, lsr #28
   d5902:	ea4f 1606 	mov.w	r6, r6, lsl #4
   d5906:	ea4f 03c3 	mov.w	r3, r3, lsl #3
   d590a:	ea43 7352 	orr.w	r3, r3, r2, lsr #29
   d590e:	ea4f 02c2 	mov.w	r2, r2, lsl #3
   d5912:	ea5f 1c1c 	movs.w	ip, ip, lsr #4
   d5916:	d1c0      	bne.n	d589a <__aeabi_ddiv+0x82>
   d5918:	f411 1f80 	tst.w	r1, #1048576	; 0x100000
   d591c:	d10b      	bne.n	d5936 <__aeabi_ddiv+0x11e>
   d591e:	ea41 0100 	orr.w	r1, r1, r0
   d5922:	f04f 0000 	mov.w	r0, #0
   d5926:	f04f 4c00 	mov.w	ip, #2147483648	; 0x80000000
   d592a:	e7b6      	b.n	d589a <__aeabi_ddiv+0x82>
   d592c:	f411 1f80 	tst.w	r1, #1048576	; 0x100000
   d5930:	bf04      	itt	eq
   d5932:	4301      	orreq	r1, r0
   d5934:	2000      	moveq	r0, #0
   d5936:	f1b4 0cfd 	subs.w	ip, r4, #253	; 0xfd
   d593a:	bf88      	it	hi
   d593c:	f5bc 6fe0 	cmphi.w	ip, #1792	; 0x700
   d5940:	f63f aeaf 	bhi.w	d56a2 <__aeabi_dmul+0xde>
   d5944:	ebb5 0c03 	subs.w	ip, r5, r3
   d5948:	bf04      	itt	eq
   d594a:	ebb6 0c02 	subseq.w	ip, r6, r2
   d594e:	ea5f 0c50 	movseq.w	ip, r0, lsr #1
   d5952:	f150 0000 	adcs.w	r0, r0, #0
   d5956:	eb41 5104 	adc.w	r1, r1, r4, lsl #20
   d595a:	bd70      	pop	{r4, r5, r6, pc}
   d595c:	f00e 4e00 	and.w	lr, lr, #2147483648	; 0x80000000
   d5960:	ea4e 3111 	orr.w	r1, lr, r1, lsr #12
   d5964:	eb14 045c 	adds.w	r4, r4, ip, lsr #1
   d5968:	bfc2      	ittt	gt
   d596a:	ebd4 050c 	rsbsgt	r5, r4, ip
   d596e:	ea41 5104 	orrgt.w	r1, r1, r4, lsl #20
   d5972:	bd70      	popgt	{r4, r5, r6, pc}
   d5974:	f441 1180 	orr.w	r1, r1, #1048576	; 0x100000
   d5978:	f04f 0e00 	mov.w	lr, #0
   d597c:	3c01      	subs	r4, #1
   d597e:	e690      	b.n	d56a2 <__aeabi_dmul+0xde>
   d5980:	ea45 0e06 	orr.w	lr, r5, r6
   d5984:	e68d      	b.n	d56a2 <__aeabi_dmul+0xde>
   d5986:	ea0c 5513 	and.w	r5, ip, r3, lsr #20
   d598a:	ea94 0f0c 	teq	r4, ip
   d598e:	bf08      	it	eq
   d5990:	ea95 0f0c 	teqeq	r5, ip
   d5994:	f43f af3b 	beq.w	d580e <__aeabi_dmul+0x24a>
   d5998:	ea94 0f0c 	teq	r4, ip
   d599c:	d10a      	bne.n	d59b4 <__aeabi_ddiv+0x19c>
   d599e:	ea50 3401 	orrs.w	r4, r0, r1, lsl #12
   d59a2:	f47f af34 	bne.w	d580e <__aeabi_dmul+0x24a>
   d59a6:	ea95 0f0c 	teq	r5, ip
   d59aa:	f47f af25 	bne.w	d57f8 <__aeabi_dmul+0x234>
   d59ae:	4610      	mov	r0, r2
   d59b0:	4619      	mov	r1, r3
   d59b2:	e72c      	b.n	d580e <__aeabi_dmul+0x24a>
   d59b4:	ea95 0f0c 	teq	r5, ip
   d59b8:	d106      	bne.n	d59c8 <__aeabi_ddiv+0x1b0>
   d59ba:	ea52 3503 	orrs.w	r5, r2, r3, lsl #12
   d59be:	f43f aefd 	beq.w	d57bc <__aeabi_dmul+0x1f8>
   d59c2:	4610      	mov	r0, r2
   d59c4:	4619      	mov	r1, r3
   d59c6:	e722      	b.n	d580e <__aeabi_dmul+0x24a>
   d59c8:	ea50 0641 	orrs.w	r6, r0, r1, lsl #1
   d59cc:	bf18      	it	ne
   d59ce:	ea52 0643 	orrsne.w	r6, r2, r3, lsl #1
   d59d2:	f47f aec5 	bne.w	d5760 <__aeabi_dmul+0x19c>
   d59d6:	ea50 0441 	orrs.w	r4, r0, r1, lsl #1
   d59da:	f47f af0d 	bne.w	d57f8 <__aeabi_dmul+0x234>
   d59de:	ea52 0543 	orrs.w	r5, r2, r3, lsl #1
   d59e2:	f47f aeeb 	bne.w	d57bc <__aeabi_dmul+0x1f8>
   d59e6:	e712      	b.n	d580e <__aeabi_dmul+0x24a>

000d59e8 <__aeabi_d2f>:
   d59e8:	ea4f 0241 	mov.w	r2, r1, lsl #1
   d59ec:	f1b2 43e0 	subs.w	r3, r2, #1879048192	; 0x70000000
   d59f0:	bf24      	itt	cs
   d59f2:	f5b3 1c00 	subscs.w	ip, r3, #2097152	; 0x200000
   d59f6:	f1dc 5cfe 	rsbscs	ip, ip, #532676608	; 0x1fc00000
   d59fa:	d90d      	bls.n	d5a18 <__aeabi_d2f+0x30>
   d59fc:	f001 4c00 	and.w	ip, r1, #2147483648	; 0x80000000
   d5a00:	ea4f 02c0 	mov.w	r2, r0, lsl #3
   d5a04:	ea4c 7050 	orr.w	r0, ip, r0, lsr #29
   d5a08:	f1b2 4f00 	cmp.w	r2, #2147483648	; 0x80000000
   d5a0c:	eb40 0083 	adc.w	r0, r0, r3, lsl #2
   d5a10:	bf08      	it	eq
   d5a12:	f020 0001 	biceq.w	r0, r0, #1
   d5a16:	4770      	bx	lr
   d5a18:	f011 4f80 	tst.w	r1, #1073741824	; 0x40000000
   d5a1c:	d121      	bne.n	d5a62 <__aeabi_d2f+0x7a>
   d5a1e:	f113 7238 	adds.w	r2, r3, #48234496	; 0x2e00000
   d5a22:	bfbc      	itt	lt
   d5a24:	f001 4000 	andlt.w	r0, r1, #2147483648	; 0x80000000
   d5a28:	4770      	bxlt	lr
   d5a2a:	f441 1180 	orr.w	r1, r1, #1048576	; 0x100000
   d5a2e:	ea4f 5252 	mov.w	r2, r2, lsr #21
   d5a32:	f1c2 0218 	rsb	r2, r2, #24
   d5a36:	f1c2 0c20 	rsb	ip, r2, #32
   d5a3a:	fa10 f30c 	lsls.w	r3, r0, ip
   d5a3e:	fa20 f002 	lsr.w	r0, r0, r2
   d5a42:	bf18      	it	ne
   d5a44:	f040 0001 	orrne.w	r0, r0, #1
   d5a48:	ea4f 23c1 	mov.w	r3, r1, lsl #11
   d5a4c:	ea4f 23d3 	mov.w	r3, r3, lsr #11
   d5a50:	fa03 fc0c 	lsl.w	ip, r3, ip
   d5a54:	ea40 000c 	orr.w	r0, r0, ip
   d5a58:	fa23 f302 	lsr.w	r3, r3, r2
   d5a5c:	ea4f 0343 	mov.w	r3, r3, lsl #1
   d5a60:	e7cc      	b.n	d59fc <__aeabi_d2f+0x14>
   d5a62:	ea7f 5362 	mvns.w	r3, r2, asr #21
   d5a66:	d107      	bne.n	d5a78 <__aeabi_d2f+0x90>
   d5a68:	ea50 3301 	orrs.w	r3, r0, r1, lsl #12
   d5a6c:	bf1e      	ittt	ne
   d5a6e:	f04f 40fe 	movne.w	r0, #2130706432	; 0x7f000000
   d5a72:	f440 0040 	orrne.w	r0, r0, #12582912	; 0xc00000
   d5a76:	4770      	bxne	lr
   d5a78:	f001 4000 	and.w	r0, r1, #2147483648	; 0x80000000
   d5a7c:	f040 40fe 	orr.w	r0, r0, #2130706432	; 0x7f000000
   d5a80:	f440 0000 	orr.w	r0, r0, #8388608	; 0x800000
   d5a84:	4770      	bx	lr
   d5a86:	bf00      	nop

000d5a88 <__cxa_atexit>:
   d5a88:	b510      	push	{r4, lr}
   d5a8a:	4c05      	ldr	r4, [pc, #20]	; (d5aa0 <__cxa_atexit+0x18>)
   d5a8c:	4613      	mov	r3, r2
   d5a8e:	b12c      	cbz	r4, d5a9c <__cxa_atexit+0x14>
   d5a90:	460a      	mov	r2, r1
   d5a92:	4601      	mov	r1, r0
   d5a94:	2002      	movs	r0, #2
   d5a96:	f3af 8000 	nop.w
   d5a9a:	bd10      	pop	{r4, pc}
   d5a9c:	4620      	mov	r0, r4
   d5a9e:	bd10      	pop	{r4, pc}
   d5aa0:	00000000 	.word	0x00000000

000d5aa4 <memcpy>:
   d5aa4:	b510      	push	{r4, lr}
   d5aa6:	1e43      	subs	r3, r0, #1
   d5aa8:	440a      	add	r2, r1
   d5aaa:	4291      	cmp	r1, r2
   d5aac:	d004      	beq.n	d5ab8 <memcpy+0x14>
   d5aae:	f811 4b01 	ldrb.w	r4, [r1], #1
   d5ab2:	f803 4f01 	strb.w	r4, [r3, #1]!
   d5ab6:	e7f8      	b.n	d5aaa <memcpy+0x6>
   d5ab8:	bd10      	pop	{r4, pc}

000d5aba <memset>:
   d5aba:	4402      	add	r2, r0
   d5abc:	4603      	mov	r3, r0
   d5abe:	4293      	cmp	r3, r2
   d5ac0:	d002      	beq.n	d5ac8 <memset+0xe>
   d5ac2:	f803 1b01 	strb.w	r1, [r3], #1
   d5ac6:	e7fa      	b.n	d5abe <memset+0x4>
   d5ac8:	4770      	bx	lr
	...

000d5acc <srand>:
   d5acc:	b538      	push	{r3, r4, r5, lr}
   d5ace:	4b12      	ldr	r3, [pc, #72]	; (d5b18 <srand+0x4c>)
   d5ad0:	681c      	ldr	r4, [r3, #0]
   d5ad2:	6ba3      	ldr	r3, [r4, #56]	; 0x38
   d5ad4:	4605      	mov	r5, r0
   d5ad6:	b9d3      	cbnz	r3, d5b0e <srand+0x42>
   d5ad8:	2018      	movs	r0, #24
   d5ada:	f7fe fcc9 	bl	d4470 <malloc>
   d5ade:	f243 330e 	movw	r3, #13070	; 0x330e
   d5ae2:	63a0      	str	r0, [r4, #56]	; 0x38
   d5ae4:	8003      	strh	r3, [r0, #0]
   d5ae6:	f64a 33cd 	movw	r3, #43981	; 0xabcd
   d5aea:	8043      	strh	r3, [r0, #2]
   d5aec:	f241 2334 	movw	r3, #4660	; 0x1234
   d5af0:	8083      	strh	r3, [r0, #4]
   d5af2:	f24e 636d 	movw	r3, #58989	; 0xe66d
   d5af6:	80c3      	strh	r3, [r0, #6]
   d5af8:	f64d 63ec 	movw	r3, #57068	; 0xdeec
   d5afc:	8103      	strh	r3, [r0, #8]
   d5afe:	2305      	movs	r3, #5
   d5b00:	8143      	strh	r3, [r0, #10]
   d5b02:	230b      	movs	r3, #11
   d5b04:	8183      	strh	r3, [r0, #12]
   d5b06:	2201      	movs	r2, #1
   d5b08:	2300      	movs	r3, #0
   d5b0a:	e9c0 2304 	strd	r2, r3, [r0, #16]
   d5b0e:	6ba3      	ldr	r3, [r4, #56]	; 0x38
   d5b10:	2200      	movs	r2, #0
   d5b12:	611d      	str	r5, [r3, #16]
   d5b14:	615a      	str	r2, [r3, #20]
   d5b16:	bd38      	pop	{r3, r4, r5, pc}
   d5b18:	2003e394 	.word	0x2003e394

000d5b1c <strlen>:
   d5b1c:	4603      	mov	r3, r0
   d5b1e:	f813 2b01 	ldrb.w	r2, [r3], #1
   d5b22:	2a00      	cmp	r2, #0
   d5b24:	d1fb      	bne.n	d5b1e <strlen+0x2>
   d5b26:	1a18      	subs	r0, r3, r0
   d5b28:	3801      	subs	r0, #1
   d5b2a:	4770      	bx	lr

000d5b2c <dynalib_user>:
   d5b2c:	4021 000d 405d 000d 4089 000d 408d 000d     !@..]@...@...@..
   d5b3c:	0000 0000 6625 0000                         ....%f..

000d5b44 <_ZTVN5spark13EthernetClassE>:
	...
   d5b4c:	44ff 000d 44f5 000d 44eb 000d 44e1 000d     .D...D...D...D..
   d5b5c:	44d5 000d 44c9 000d 44bd 000d 44b5 000d     .D...D...D...D..
   d5b6c:	44ab 000d 44a1 000d 4dd9 000d               .D...D...M..

000d5b78 <_ZTV8SPIClass>:
	...
   d5b80:	451d 000d 451f 000d 6162 6475 5300 7265     .E...E..baud.Ser
   d5b90:	6169 006c 6553 6972 6c61 0031 7974 6570     ial.Serial1.type
   d5ba0:	7000 7261 6d61 6300 646d 6900 0064 6e68     .param.cmd.id.hn
   d5bb0:	0064 7473 6d72 6600 6c69 0074 766c 006c     d.strm.filt.lvl.
   d5bc0:	6461 4864 6e61 6c64 7265 7200 6d65 766f     addHandler.remov
   d5bd0:	4865 6e61 6c64 7265 6500 756e 486d 6e61     eHandler.enumHan
   d5be0:	6c64 7265 0073 534a 4e4f 7453 6572 6d61     dlers.JSONStream
   d5bf0:	6f4c 4867 6e61 6c64 7265 6100 7070 2500     LogHandler.app.%
   d5c00:	3130 7530 0020 205d 2500 0064 202c 2800     010u .] .%d., .(
   d5c10:	3a29 0020 5b20 6300 646f 2065 203d 2500     ): . [.code = .%
   d5c20:	0069 6564 6174 6c69 2073 203d 0d00 000a     i.details = ....
   d5c30:	6e6c 6600 006e 6f63 6564 6400 7465 6961     ln.fn.code.detai
   d5c40:	006c 6f6e 656e 7400 6172 6563 6900 666e     l.none.trace.inf
   d5c50:	006f 6177 6e72 6500 7272 726f 7000 6e61     o.warn.error.pan
   d5c60:	6369 6100 6c6c 5a00 2500 302b 6433 253a     ic.all.Z.%+03d:%
   d5c70:	3230 0075 5925 252d 2d6d 6425 2554 3a48     02u.%Y-%m-%dT%H:
   d5c80:	4d25 253a 2553 007a 7361 7463 6d69 0065     %M:%S%z.asctime.

000d5c90 <_ZTV9IPAddress>:
	...
   d5c98:	4809 000d 47f9 000d 47fb 000d               .H...G...G..

000d5ca4 <_ZTV9USBSerial>:
	...
   d5cac:	48e1 000d 4931 000d 493f 000d 4585 000d     .H..1I..?I...E..
   d5cbc:	491d 000d 48e3 000d 48f9 000d 492b 000d     .I...H...H..+I..
   d5ccc:	490f 000d 48dd 000d                         .I...H..

000d5cd4 <_ZTVN5spark13CellularClassE>:
	...
   d5cdc:	4a4b 000d 4a41 000d 4a37 000d 49ed 000d     KJ..AJ..7J...I..
   d5cec:	4a2b 000d 4a1f 000d 4a13 000d 4a0b 000d     +J...J...J...J..
   d5cfc:	4a01 000d 49f7 000d 4dd9 000d               .J...I...M..

000d5d08 <_ZTV11USARTSerial>:
	...
   d5d10:	4a85 000d 4ad5 000d 4ae3 000d 4585 000d     .J...J...J...E..
   d5d20:	4a99 000d 4abb 000d 4aa7 000d 4acf 000d     .J...J...J...J..
   d5d30:	4a87 000d 4a8b 000d                         .J...J..

000d5d38 <_ZTV7TwoWire>:
	...
   d5d40:	4b89 000d 4bd3 000d 4bab 000d 4b8b 000d     .K...K...K...K..
   d5d50:	4bb3 000d 4bbb 000d 4bc3 000d 4bcb 000d     .K...K...K...K..

000d5d60 <_ZTVN5spark9MeshClassE>:
	...
   d5d68:	4c6b 000d 4c61 000d 4c57 000d 4c4d 000d     kL..aL..WL..ML..
   d5d78:	4c41 000d 4c35 000d 4c29 000d 4c21 000d     AL..5L..)L..!L..
   d5d88:	4c17 000d 4c0d 000d 4dd9 000d               .L...L...M..

000d5d94 <_ZTVN5spark12NetworkClassE>:
	...
   d5d9c:	4d71 000d 4d7b 000d 4d85 000d 4d8f 000d     qM..{M...M...M..
   d5dac:	4d99 000d 4da5 000d 4db1 000d 4dbd 000d     .M...M...M...M..
   d5dbc:	4dc5 000d 4dcf 000d 4dd9 000d               .M...M...M..

000d5dc8 <__sf_fake_stdin>:
	...

000d5de8 <__sf_fake_stdout>:
	...

000d5e08 <__sf_fake_stderr>:
	...
   d5e28:	0043                                        C.

000d5e2a <link_const_variable_data_end>:
	...

000d5e2c <link_constructors_location>:
   d5e2c:	000d4125 	.word	0x000d4125
   d5e30:	000d4509 	.word	0x000d4509
   d5e34:	000d455d 	.word	0x000d455d
   d5e38:	000d4575 	.word	0x000d4575
   d5e3c:	000d46c1 	.word	0x000d46c1
   d5e40:	000d46d1 	.word	0x000d46d1
   d5e44:	000d4709 	.word	0x000d4709
   d5e48:	000d4a55 	.word	0x000d4a55
   d5e4c:	000d4d21 	.word	0x000d4d21
   d5e50:	000d4ea5 	.word	0x000d4ea5
   d5e54:	000d4f31 	.word	0x000d4f31
   d5e58:	000d4fc5 	.word	0x000d4fc5
   d5e5c:	000d5049 	.word	0x000d5049
   d5e60:	000d510d 	.word	0x000d510d
   d5e64:	000d51d1 	.word	0x000d51d1

000d5e68 <link_constructors_end>:
	...
